{
	"compilerInput": "{\"language\":\"Solidity\",\"sources\":{\"edosetiawan.sol\":{\"content\":\"// SPDX-License-Identifier: MIT\\r\\npragma solidity ^0.8.17;\\r\\n\\r\\n/**\\r\\n * @title BatchTransfer\\r\\n * @dev Smart contract untuk melakukan transfer batch ke banyak alamat sekaligus\\r\\n * Optimal untuk jaringan assam.tea.xyz\\r\\n */\\r\\ncontract BatchTransfer {\\r\\n    address public owner;\\r\\n    \\r\\n    // Event yang akan diemit setiap kali batch transfer berhasil dilakukan\\r\\n    event BatchTransferSuccessful(uint256 totalAddresses, uint256 totalAmount, uint256 timestamp);\\r\\n    \\r\\n    // Modifier untuk memastikan hanya owner yang bisa mengakses fungsi tertentu\\r\\n    modifier onlyOwner() {\\r\\n        require(msg.sender == owner, \\\"Hanya owner yang dapat mengakses fungsi ini\\\");\\r\\n        _;\\r\\n    }\\r\\n    \\r\\n    // Constructor untuk menetapkan owner kontrak\\r\\n    constructor() {\\r\\n        owner = msg.sender;\\r\\n    }\\r\\n    \\r\\n    /**\\r\\n     * @dev Fungsi untuk mengubah owner kontrak\\r\\n     * @param newOwner Alamat owner baru\\r\\n     */\\r\\n    function transferOwnership(address newOwner) public onlyOwner {\\r\\n        require(newOwner != address(0), \\\"Alamat owner baru tidak boleh alamat nol\\\");\\r\\n        owner = newOwner;\\r\\n    }\\r\\n    \\r\\n    /**\\r\\n     * @dev Fungsi untuk mengirim native token ke banyak alamat sekaligus\\r\\n     * @param recipients Array alamat penerima\\r\\n     * @param amounts Array jumlah yang dikirim ke masing-masing penerima\\r\\n     * @return status Boolean yang menunjukkan keberhasilan transaksi\\r\\n     */\\r\\n    function batchTransfer(address[] calldata recipients, uint256[] calldata amounts) external payable onlyOwner returns (bool) {\\r\\n        uint256 totalRecipients = recipients.length;\\r\\n        \\r\\n        // Verifikasi bahwa panjang array recipients dan amounts sama\\r\\n        require(totalRecipients == amounts.length, \\\"Panjang array recipients dan amounts harus sama\\\");\\r\\n        \\r\\n        // Verifikasi batas maksimum alamat penerima untuk efisiensi gas\\r\\n        require(totalRecipients <= 2000, \\\"Maksimal 2000 alamat penerima dalam satu batch\\\");\\r\\n        \\r\\n        // Verifikasi total yang dikirim sama dengan msg.value\\r\\n        uint256 totalAmount = 0;\\r\\n        for (uint256 i = 0; i < totalRecipients; i++) {\\r\\n            totalAmount += amounts[i];\\r\\n        }\\r\\n        require(msg.value == totalAmount, \\\"Total amount harus sama dengan nilai yang dikirim\\\");\\r\\n        \\r\\n        // Lakukan transfer ke masing-masing alamat\\r\\n        bool success;\\r\\n        for (uint256 i = 0; i < totalRecipients; i++) {\\r\\n            // Verifikasi alamat valid\\r\\n            require(recipients[i] != address(0), \\\"Alamat penerima tidak boleh alamat nol\\\");\\r\\n            \\r\\n            // Kirim token ke alamat penerima\\r\\n            (success, ) = recipients[i].call{value: amounts[i]}(\\\"\\\");\\r\\n            require(success, \\\"Transfer gagal\\\");\\r\\n        }\\r\\n        \\r\\n        // Emit event setelah semua transfer berhasil\\r\\n        emit BatchTransferSuccessful(totalRecipients, totalAmount, block.timestamp);\\r\\n        \\r\\n        return true;\\r\\n    }\\r\\n    \\r\\n    /**\\r\\n     * @dev Fungsi untuk mengirim token ERC20 ke banyak alamat sekaligus\\r\\n     * @param tokenAddress Alamat kontrak ERC20\\r\\n     * @param recipients Array alamat penerima\\r\\n     * @param amounts Array jumlah token yang dikirim ke masing-masing penerima\\r\\n     * @return status Boolean yang menunjukkan keberhasilan transaksi\\r\\n     */\\r\\n    function batchTransferToken(address tokenAddress, address[] calldata recipients, uint256[] calldata amounts) external onlyOwner returns (bool) {\\r\\n        uint256 totalRecipients = recipients.length;\\r\\n        \\r\\n        // Verifikasi bahwa panjang array recipients dan amounts sama\\r\\n        require(totalRecipients == amounts.length, \\\"Panjang array recipients dan amounts harus sama\\\");\\r\\n        \\r\\n        // Verifikasi batas maksimum alamat penerima untuk efisiensi gas\\r\\n        require(totalRecipients <= 2000, \\\"Maksimal 2000 alamat penerima dalam satu batch\\\");\\r\\n        \\r\\n        // Interface minimal untuk token ERC20\\r\\n        IERC20 token = IERC20(tokenAddress);\\r\\n        \\r\\n        uint256 totalAmount = 0;\\r\\n        for (uint256 i = 0; i < totalRecipients; i++) {\\r\\n            totalAmount += amounts[i];\\r\\n        }\\r\\n        \\r\\n        // Verifikasi kontrak memiliki allowance yang cukup\\r\\n        require(token.allowance(msg.sender, address(this)) >= totalAmount, \\\"Allowance token tidak cukup\\\");\\r\\n        \\r\\n        // Transfer token dari pengirim ke kontrak\\r\\n        require(token.transferFrom(msg.sender, address(this), totalAmount), \\\"Transfer dari pengirim ke kontrak gagal\\\");\\r\\n        \\r\\n        // Transfer token ke masing-masing penerima\\r\\n        for (uint256 i = 0; i < totalRecipients; i++) {\\r\\n            // Verifikasi alamat valid\\r\\n            require(recipients[i] != address(0), \\\"Alamat penerima tidak boleh alamat nol\\\");\\r\\n            \\r\\n            // Transfer token ke alamat penerima\\r\\n            require(token.transfer(recipients[i], amounts[i]), \\\"Transfer token gagal\\\");\\r\\n        }\\r\\n        \\r\\n        // Emit event setelah semua transfer berhasil\\r\\n        emit BatchTransferSuccessful(totalRecipients, totalAmount, block.timestamp);\\r\\n        \\r\\n        return true;\\r\\n    }\\r\\n    \\r\\n    /**\\r\\n     * @dev Fungsi untuk mengembalikan token yang tidak sengaja dikirim ke kontrak\\r\\n     * @param tokenAddress Alamat kontrak token (gunakan address(0) untuk native token)\\r\\n     * @param amount Jumlah token yang akan dikembalikan\\r\\n     */\\r\\n    function recoverTokens(address tokenAddress, uint256 amount) external onlyOwner {\\r\\n        if (tokenAddress == address(0)) {\\r\\n            // Recover native token\\r\\n            (bool success, ) = owner.call{value: amount}(\\\"\\\");\\r\\n            require(success, \\\"Transfer native token gagal\\\");\\r\\n        } else {\\r\\n            // Recover ERC20 token\\r\\n            IERC20 token = IERC20(tokenAddress);\\r\\n            require(token.transfer(owner, amount), \\\"Transfer token gagal\\\");\\r\\n        }\\r\\n    }\\r\\n    \\r\\n    // Fungsi untuk menerima native token\\r\\n    receive() external payable {}\\r\\n}\\r\\n\\r\\n// Interface minimal untuk token ERC20\\r\\ninterface IERC20 {\\r\\n    function transferFrom(address sender, address recipient, uint256 amount) external returns (bool);\\r\\n    function transfer(address recipient, uint256 amount) external returns (bool);\\r\\n    function allowance(address owner, address spender) external view returns (uint256);\\r\\n}\"}},\"settings\":{\"optimizer\":{\"enabled\":false,\"runs\":200},\"outputSelection\":{\"*\":{\"\":[\"ast\"],\"*\":[\"abi\",\"metadata\",\"devdoc\",\"userdoc\",\"storageLayout\",\"evm.legacyAssembly\",\"evm.bytecode\",\"evm.deployedBytecode\",\"evm.methodIdentifiers\",\"evm.gasEstimates\",\"evm.assembly\"]}},\"remappings\":[]}}",
	"name": "BatchTransfer",
	"bytecode": {
		"linkReferences": {},
		"object": "6080604052348015600e575f5ffd5b50335f5f6101000a81548173ffffffffffffffffffffffffffffffffffffffff021916908373ffffffffffffffffffffffffffffffffffffffff1602179055506118858061005b5f395ff3fe60806040526004361061004d575f3560e01c8063069c9fae1461005857806320651d5d1461008057806388d695b2146100bc5780638da5cb5b146100ec578063f2fde38b1461011657610054565b3661005457005b5f5ffd5b348015610063575f5ffd5b5061007e60048036038101906100799190610e0b565b61013e565b005b34801561008b575f5ffd5b506100a660048036038101906100a19190610eff565b6103b1565b6040516100b39190610faa565b60405180910390f35b6100d660048036038101906100d19190610fc3565b610888565b6040516100e39190610faa565b60405180910390f35b3480156100f7575f5ffd5b50610100610c14565b60405161010d9190611050565b60405180910390f35b348015610121575f5ffd5b5061013c60048036038101906101379190611069565b610c38565b005b5f5f9054906101000a900473ffffffffffffffffffffffffffffffffffffffff1673ffffffffffffffffffffffffffffffffffffffff163373ffffffffffffffffffffffffffffffffffffffff16146101cc576040517f08c379a00000000000000000000000000000000000000000000000000000000081526004016101c390611114565b60405180910390fd5b5f73ffffffffffffffffffffffffffffffffffffffff168273ffffffffffffffffffffffffffffffffffffffff16036102cd575f5f5f9054906101000a900473ffffffffffffffffffffffffffffffffffffffff1673ffffffffffffffffffffffffffffffffffffffff16826040516102449061115f565b5f6040518083038185875af1925050503d805f811461027e576040519150601f19603f3d011682016040523d82523d5f602084013e610283565b606091505b50509050806102c7576040517f08c379a00000000000000000000000000000000000000000000000000000000081526004016102be906111bd565b60405180910390fd5b506103ad565b5f8290508073ffffffffffffffffffffffffffffffffffffffff1663a9059cbb5f5f9054906101000a900473ffffffffffffffffffffffffffffffffffffffff16846040518363ffffffff1660e01b815260040161032c9291906111ea565b6020604051808303815f875af1158015610348573d5f5f3e3d5ffd5b505050506040513d601f19601f8201168201806040525081019061036c919061123b565b6103ab576040517f08c379a00000000000000000000000000000000000000000000000000000000081526004016103a2906112b0565b60405180910390fd5b505b5050565b5f5f5f9054906101000a900473ffffffffffffffffffffffffffffffffffffffff1673ffffffffffffffffffffffffffffffffffffffff163373ffffffffffffffffffffffffffffffffffffffff1614610440576040517f08c379a000000000000000000000000000000000000000000000000000000000815260040161043790611114565b60405180910390fd5b5f85859050905083839050811461048c576040517f08c379a00000000000000000000000000000000000000000000000000000000081526004016104839061133e565b60405180910390fd5b6107d08111156104d1576040517f08c379a00000000000000000000000000000000000000000000000000000000081526004016104c8906113cc565b60405180910390fd5b5f8790505f5f90505f5f90505b8381101561051a578686828181106104f9576104f86113ea565b5b905060200201358261050b9190611444565b915080806001019150506104de565b50808273ffffffffffffffffffffffffffffffffffffffff1663dd62ed3e33306040518363ffffffff1660e01b8152600401610557929190611477565b602060405180830381865afa158015610572573d5f5f3e3d5ffd5b505050506040513d601f19601f8201168201806040525081019061059691906114b2565b10156105d7576040517f08c379a00000000000000000000000000000000000000000000000000000000081526004016105ce90611527565b60405180910390fd5b8173ffffffffffffffffffffffffffffffffffffffff166323b872dd3330846040518463ffffffff1660e01b815260040161061493929190611545565b6020604051808303815f875af1158015610630573d5f5f3e3d5ffd5b505050506040513d601f19601f82011682018060405250810190610654919061123b565b610693576040517f08c379a000000000000000000000000000000000000000000000000000000000815260040161068a906115ea565b60405180910390fd5b5f5f90505b8381101561083c575f73ffffffffffffffffffffffffffffffffffffffff168989838181106106ca576106c96113ea565b5b90506020020160208101906106df9190611069565b73ffffffffffffffffffffffffffffffffffffffff1603610735576040517f08c379a000000000000000000000000000000000000000000000000000000000815260040161072c90611678565b60405180910390fd5b8273ffffffffffffffffffffffffffffffffffffffff1663a9059cbb8a8a84818110610764576107636113ea565b5b90506020020160208101906107799190611069565b89898581811061078c5761078b6113ea565b5b905060200201356040518363ffffffff1660e01b81526004016107b09291906111ea565b6020604051808303815f875af11580156107cc573d5f5f3e3d5ffd5b505050506040513d601f19601f820116820180604052508101906107f0919061123b565b61082f576040517f08c379a0000000000000000000000000000000000000000000000000000000008152600401610826906112b0565b60405180910390fd5b8080600101915050610698565b507ff16e4d5f82c54d462ffe3d21d1d2a968d757649029d89f7253094312837a6e8b83824260405161087093929190611696565b60405180910390a16001935050505095945050505050565b5f5f5f9054906101000a900473ffffffffffffffffffffffffffffffffffffffff1673ffffffffffffffffffffffffffffffffffffffff163373ffffffffffffffffffffffffffffffffffffffff1614610917576040517f08c379a000000000000000000000000000000000000000000000000000000000815260040161090e90611114565b60405180910390fd5b5f858590509050838390508114610963576040517f08c379a000000000000000000000000000000000000000000000000000000000815260040161095a9061133e565b60405180910390fd5b6107d08111156109a8576040517f08c379a000000000000000000000000000000000000000000000000000000000815260040161099f906113cc565b60405180910390fd5b5f5f90505f5f90505b828110156109ed578585828181106109cc576109cb6113ea565b5b90506020020135826109de9190611444565b915080806001019150506109b1565b50803414610a30576040517f08c379a0000000000000000000000000000000000000000000000000000000008152600401610a279061173b565b60405180910390fd5b5f5f5f90505b83811015610bc9575f73ffffffffffffffffffffffffffffffffffffffff16898983818110610a6857610a676113ea565b5b9050602002016020810190610a7d9190611069565b73ffffffffffffffffffffffffffffffffffffffff1603610ad3576040517f08c379a0000000000000000000000000000000000000000000000000000000008152600401610aca90611678565b60405180910390fd5b888882818110610ae657610ae56113ea565b5b9050602002016020810190610afb9190611069565b73ffffffffffffffffffffffffffffffffffffffff16878783818110610b2457610b236113ea565b5b90506020020135604051610b379061115f565b5f6040518083038185875af1925050503d805f8114610b71576040519150601f19603f3d011682016040523d82523d5f602084013e610b76565b606091505b50508092505081610bbc576040517f08c379a0000000000000000000000000000000000000000000000000000000008152600401610bb3906117a3565b60405180910390fd5b8080600101915050610a36565b507ff16e4d5f82c54d462ffe3d21d1d2a968d757649029d89f7253094312837a6e8b838342604051610bfd93929190611696565b60405180910390a160019350505050949350505050565b5f5f9054906101000a900473ffffffffffffffffffffffffffffffffffffffff1681565b5f5f9054906101000a900473ffffffffffffffffffffffffffffffffffffffff1673ffffffffffffffffffffffffffffffffffffffff163373ffffffffffffffffffffffffffffffffffffffff1614610cc6576040517f08c379a0000000000000000000000000000000000000000000000000000000008152600401610cbd90611114565b60405180910390fd5b5f73ffffffffffffffffffffffffffffffffffffffff168173ffffffffffffffffffffffffffffffffffffffff1603610d34576040517f08c379a0000000000000000000000000000000000000000000000000000000008152600401610d2b90611831565b60405180910390fd5b805f5f6101000a81548173ffffffffffffffffffffffffffffffffffffffff021916908373ffffffffffffffffffffffffffffffffffffffff16021790555050565b5f5ffd5b5f5ffd5b5f73ffffffffffffffffffffffffffffffffffffffff82169050919050565b5f610da782610d7e565b9050919050565b610db781610d9d565b8114610dc1575f5ffd5b50565b5f81359050610dd281610dae565b92915050565b5f819050919050565b610dea81610dd8565b8114610df4575f5ffd5b50565b5f81359050610e0581610de1565b92915050565b5f5f60408385031215610e2157610e20610d76565b5b5f610e2e85828601610dc4565b9250506020610e3f85828601610df7565b9150509250929050565b5f5ffd5b5f5ffd5b5f5ffd5b5f5f83601f840112610e6a57610e69610e49565b5b8235905067ffffffffffffffff811115610e8757610e86610e4d565b5b602083019150836020820283011115610ea357610ea2610e51565b5b9250929050565b5f5f83601f840112610ebf57610ebe610e49565b5b8235905067ffffffffffffffff811115610edc57610edb610e4d565b5b602083019150836020820283011115610ef857610ef7610e51565b5b9250929050565b5f5f5f5f5f60608688031215610f1857610f17610d76565b5b5f610f2588828901610dc4565b955050602086013567ffffffffffffffff811115610f4657610f45610d7a565b5b610f5288828901610e55565b9450945050604086013567ffffffffffffffff811115610f7557610f74610d7a565b5b610f8188828901610eaa565b92509250509295509295909350565b5f8115159050919050565b610fa481610f90565b82525050565b5f602082019050610fbd5f830184610f9b565b92915050565b5f5f5f5f60408587031215610fdb57610fda610d76565b5b5f85013567ffffffffffffffff811115610ff857610ff7610d7a565b5b61100487828801610e55565b9450945050602085013567ffffffffffffffff81111561102757611026610d7a565b5b61103387828801610eaa565b925092505092959194509250565b61104a81610d9d565b82525050565b5f6020820190506110635f830184611041565b92915050565b5f6020828403121561107e5761107d610d76565b5b5f61108b84828501610dc4565b91505092915050565b5f82825260208201905092915050565b7f48616e7961206f776e65722079616e67206461706174206d656e67616b7365735f8201527f2066756e67736920696e69000000000000000000000000000000000000000000602082015250565b5f6110fe602b83611094565b9150611109826110a4565b604082019050919050565b5f6020820190508181035f83015261112b816110f2565b9050919050565b5f81905092915050565b50565b5f61114a5f83611132565b91506111558261113c565b5f82019050919050565b5f6111698261113f565b9150819050919050565b7f5472616e73666572206e617469766520746f6b656e20676167616c00000000005f82015250565b5f6111a7601b83611094565b91506111b282611173565b602082019050919050565b5f6020820190508181035f8301526111d48161119b565b9050919050565b6111e481610dd8565b82525050565b5f6040820190506111fd5f830185611041565b61120a60208301846111db565b9392505050565b61121a81610f90565b8114611224575f5ffd5b50565b5f8151905061123581611211565b92915050565b5f602082840312156112505761124f610d76565b5b5f61125d84828501611227565b91505092915050565b7f5472616e7366657220746f6b656e20676167616c0000000000000000000000005f82015250565b5f61129a601483611094565b91506112a582611266565b602082019050919050565b5f6020820190508181035f8301526112c78161128e565b9050919050565b7f50616e6a616e6720617272617920726563697069656e74732064616e20616d6f5f8201527f756e74732068617275732073616d610000000000000000000000000000000000602082015250565b5f611328602f83611094565b9150611333826112ce565b604082019050919050565b5f6020820190508181035f8301526113558161131c565b9050919050565b7f4d616b73696d616c203230303020616c616d61742070656e6572696d612064615f8201527f6c616d2073617475206261746368000000000000000000000000000000000000602082015250565b5f6113b6602e83611094565b91506113c18261135c565b604082019050919050565b5f6020820190508181035f8301526113e3816113aa565b9050919050565b7f4e487b71000000000000000000000000000000000000000000000000000000005f52603260045260245ffd5b7f4e487b71000000000000000000000000000000000000000000000000000000005f52601160045260245ffd5b5f61144e82610dd8565b915061145983610dd8565b925082820190508082111561147157611470611417565b5b92915050565b5f60408201905061148a5f830185611041565b6114976020830184611041565b9392505050565b5f815190506114ac81610de1565b92915050565b5f602082840312156114c7576114c6610d76565b5b5f6114d48482850161149e565b91505092915050565b7f416c6c6f77616e636520746f6b656e20746964616b2063756b757000000000005f82015250565b5f611511601b83611094565b915061151c826114dd565b602082019050919050565b5f6020820190508181035f83015261153e81611505565b9050919050565b5f6060820190506115585f830186611041565b6115656020830185611041565b61157260408301846111db565b949350505050565b7f5472616e7366657220646172692070656e676972696d206b65206b6f6e7472615f8201527f6b20676167616c00000000000000000000000000000000000000000000000000602082015250565b5f6115d4602783611094565b91506115df8261157a565b604082019050919050565b5f6020820190508181035f830152611601816115c8565b9050919050565b7f416c616d61742070656e6572696d6120746964616b20626f6c656820616c616d5f8201527f6174206e6f6c0000000000000000000000000000000000000000000000000000602082015250565b5f611662602683611094565b915061166d82611608565b604082019050919050565b5f6020820190508181035f83015261168f81611656565b9050919050565b5f6060820190506116a95f8301866111db565b6116b660208301856111db565b6116c360408301846111db565b949350505050565b7f546f74616c20616d6f756e742068617275732073616d612064656e67616e206e5f8201527f696c61692079616e672064696b6972696d000000000000000000000000000000602082015250565b5f611725603183611094565b9150611730826116cb565b604082019050919050565b5f6020820190508181035f83015261175281611719565b9050919050565b7f5472616e7366657220676167616c0000000000000000000000000000000000005f82015250565b5f61178d600e83611094565b915061179882611759565b602082019050919050565b5f6020820190508181035f8301526117ba81611781565b9050919050565b7f416c616d6174206f776e6572206261727520746964616b20626f6c656820616c5f8201527f616d6174206e6f6c000000000000000000000000000000000000000000000000602082015250565b5f61181b602883611094565b9150611826826117c1565b604082019050919050565b5f6020820190508181035f8301526118488161180f565b905091905056fea2646970667358221220bba330a36b942a63e899e406cf58e1b1a44842999d3841ceab946150588eac9864736f6c634300081c0033",
		"opcodes": "PUSH1 0x80 PUSH1 0x40 MSTORE CALLVALUE DUP1 ISZERO PUSH1 0xE JUMPI PUSH0 PUSH0 REVERT JUMPDEST POP CALLER PUSH0 PUSH0 PUSH2 0x100 EXP DUP2 SLOAD DUP2 PUSH20 0xFFFFFFFFFFFFFFFFFFFFFFFFFFFFFFFFFFFFFFFF MUL NOT AND SWAP1 DUP4 PUSH20 0xFFFFFFFFFFFFFFFFFFFFFFFFFFFFFFFFFFFFFFFF AND MUL OR SWAP1 SSTORE POP PUSH2 0x1885 DUP1 PUSH2 0x5B PUSH0 CODECOPY PUSH0 RETURN INVALID PUSH1 0x80 PUSH1 0x40 MSTORE PUSH1 0x4 CALLDATASIZE LT PUSH2 0x4D JUMPI PUSH0 CALLDATALOAD PUSH1 0xE0 SHR DUP1 PUSH4 0x69C9FAE EQ PUSH2 0x58 JUMPI DUP1 PUSH4 0x20651D5D EQ PUSH2 0x80 JUMPI DUP1 PUSH4 0x88D695B2 EQ PUSH2 0xBC JUMPI DUP1 PUSH4 0x8DA5CB5B EQ PUSH2 0xEC JUMPI DUP1 PUSH4 0xF2FDE38B EQ PUSH2 0x116 JUMPI PUSH2 0x54 JUMP JUMPDEST CALLDATASIZE PUSH2 0x54 JUMPI STOP JUMPDEST PUSH0 PUSH0 REVERT JUMPDEST CALLVALUE DUP1 ISZERO PUSH2 0x63 JUMPI PUSH0 PUSH0 REVERT JUMPDEST POP PUSH2 0x7E PUSH1 0x4 DUP1 CALLDATASIZE SUB DUP2 ADD SWAP1 PUSH2 0x79 SWAP2 SWAP1 PUSH2 0xE0B JUMP JUMPDEST PUSH2 0x13E JUMP JUMPDEST STOP JUMPDEST CALLVALUE DUP1 ISZERO PUSH2 0x8B JUMPI PUSH0 PUSH0 REVERT JUMPDEST POP PUSH2 0xA6 PUSH1 0x4 DUP1 CALLDATASIZE SUB DUP2 ADD SWAP1 PUSH2 0xA1 SWAP2 SWAP1 PUSH2 0xEFF JUMP JUMPDEST PUSH2 0x3B1 JUMP JUMPDEST PUSH1 0x40 MLOAD PUSH2 0xB3 SWAP2 SWAP1 PUSH2 0xFAA JUMP JUMPDEST PUSH1 0x40 MLOAD DUP1 SWAP2 SUB SWAP1 RETURN JUMPDEST PUSH2 0xD6 PUSH1 0x4 DUP1 CALLDATASIZE SUB DUP2 ADD SWAP1 PUSH2 0xD1 SWAP2 SWAP1 PUSH2 0xFC3 JUMP JUMPDEST PUSH2 0x888 JUMP JUMPDEST PUSH1 0x40 MLOAD PUSH2 0xE3 SWAP2 SWAP1 PUSH2 0xFAA JUMP JUMPDEST PUSH1 0x40 MLOAD DUP1 SWAP2 SUB SWAP1 RETURN JUMPDEST CALLVALUE DUP1 ISZERO PUSH2 0xF7 JUMPI PUSH0 PUSH0 REVERT JUMPDEST POP PUSH2 0x100 PUSH2 0xC14 JUMP JUMPDEST PUSH1 0x40 MLOAD PUSH2 0x10D SWAP2 SWAP1 PUSH2 0x1050 JUMP JUMPDEST PUSH1 0x40 MLOAD DUP1 SWAP2 SUB SWAP1 RETURN JUMPDEST CALLVALUE DUP1 ISZERO PUSH2 0x121 JUMPI PUSH0 PUSH0 REVERT JUMPDEST POP PUSH2 0x13C PUSH1 0x4 DUP1 CALLDATASIZE SUB DUP2 ADD SWAP1 PUSH2 0x137 SWAP2 SWAP1 PUSH2 0x1069 JUMP JUMPDEST PUSH2 0xC38 JUMP JUMPDEST STOP JUMPDEST PUSH0 PUSH0 SWAP1 SLOAD SWAP1 PUSH2 0x100 EXP SWAP1 DIV PUSH20 0xFFFFFFFFFFFFFFFFFFFFFFFFFFFFFFFFFFFFFFFF AND PUSH20 0xFFFFFFFFFFFFFFFFFFFFFFFFFFFFFFFFFFFFFFFF AND CALLER PUSH20 0xFFFFFFFFFFFFFFFFFFFFFFFFFFFFFFFFFFFFFFFF AND EQ PUSH2 0x1CC JUMPI PUSH1 0x40 MLOAD PUSH32 0x8C379A000000000000000000000000000000000000000000000000000000000 DUP2 MSTORE PUSH1 0x4 ADD PUSH2 0x1C3 SWAP1 PUSH2 0x1114 JUMP JUMPDEST PUSH1 0x40 MLOAD DUP1 SWAP2 SUB SWAP1 REVERT JUMPDEST PUSH0 PUSH20 0xFFFFFFFFFFFFFFFFFFFFFFFFFFFFFFFFFFFFFFFF AND DUP3 PUSH20 0xFFFFFFFFFFFFFFFFFFFFFFFFFFFFFFFFFFFFFFFF AND SUB PUSH2 0x2CD JUMPI PUSH0 PUSH0 PUSH0 SWAP1 SLOAD SWAP1 PUSH2 0x100 EXP SWAP1 DIV PUSH20 0xFFFFFFFFFFFFFFFFFFFFFFFFFFFFFFFFFFFFFFFF AND PUSH20 0xFFFFFFFFFFFFFFFFFFFFFFFFFFFFFFFFFFFFFFFF AND DUP3 PUSH1 0x40 MLOAD PUSH2 0x244 SWAP1 PUSH2 0x115F JUMP JUMPDEST PUSH0 PUSH1 0x40 MLOAD DUP1 DUP4 SUB DUP2 DUP6 DUP8 GAS CALL SWAP3 POP POP POP RETURNDATASIZE DUP1 PUSH0 DUP2 EQ PUSH2 0x27E JUMPI PUSH1 0x40 MLOAD SWAP2 POP PUSH1 0x1F NOT PUSH1 0x3F RETURNDATASIZE ADD AND DUP3 ADD PUSH1 0x40 MSTORE RETURNDATASIZE DUP3 MSTORE RETURNDATASIZE PUSH0 PUSH1 0x20 DUP5 ADD RETURNDATACOPY PUSH2 0x283 JUMP JUMPDEST PUSH1 0x60 SWAP2 POP JUMPDEST POP POP SWAP1 POP DUP1 PUSH2 0x2C7 JUMPI PUSH1 0x40 MLOAD PUSH32 0x8C379A000000000000000000000000000000000000000000000000000000000 DUP2 MSTORE PUSH1 0x4 ADD PUSH2 0x2BE SWAP1 PUSH2 0x11BD JUMP JUMPDEST PUSH1 0x40 MLOAD DUP1 SWAP2 SUB SWAP1 REVERT JUMPDEST POP PUSH2 0x3AD JUMP JUMPDEST PUSH0 DUP3 SWAP1 POP DUP1 PUSH20 0xFFFFFFFFFFFFFFFFFFFFFFFFFFFFFFFFFFFFFFFF AND PUSH4 0xA9059CBB PUSH0 PUSH0 SWAP1 SLOAD SWAP1 PUSH2 0x100 EXP SWAP1 DIV PUSH20 0xFFFFFFFFFFFFFFFFFFFFFFFFFFFFFFFFFFFFFFFF AND DUP5 PUSH1 0x40 MLOAD DUP4 PUSH4 0xFFFFFFFF AND PUSH1 0xE0 SHL DUP2 MSTORE PUSH1 0x4 ADD PUSH2 0x32C SWAP3 SWAP2 SWAP1 PUSH2 0x11EA JUMP JUMPDEST PUSH1 0x20 PUSH1 0x40 MLOAD DUP1 DUP4 SUB DUP2 PUSH0 DUP8 GAS CALL ISZERO DUP1 ISZERO PUSH2 0x348 JUMPI RETURNDATASIZE PUSH0 PUSH0 RETURNDATACOPY RETURNDATASIZE PUSH0 REVERT JUMPDEST POP POP POP POP PUSH1 0x40 MLOAD RETURNDATASIZE PUSH1 0x1F NOT PUSH1 0x1F DUP3 ADD AND DUP3 ADD DUP1 PUSH1 0x40 MSTORE POP DUP2 ADD SWAP1 PUSH2 0x36C SWAP2 SWAP1 PUSH2 0x123B JUMP JUMPDEST PUSH2 0x3AB JUMPI PUSH1 0x40 MLOAD PUSH32 0x8C379A000000000000000000000000000000000000000000000000000000000 DUP2 MSTORE PUSH1 0x4 ADD PUSH2 0x3A2 SWAP1 PUSH2 0x12B0 JUMP JUMPDEST PUSH1 0x40 MLOAD DUP1 SWAP2 SUB SWAP1 REVERT JUMPDEST POP JUMPDEST POP POP JUMP JUMPDEST PUSH0 PUSH0 PUSH0 SWAP1 SLOAD SWAP1 PUSH2 0x100 EXP SWAP1 DIV PUSH20 0xFFFFFFFFFFFFFFFFFFFFFFFFFFFFFFFFFFFFFFFF AND PUSH20 0xFFFFFFFFFFFFFFFFFFFFFFFFFFFFFFFFFFFFFFFF AND CALLER PUSH20 0xFFFFFFFFFFFFFFFFFFFFFFFFFFFFFFFFFFFFFFFF AND EQ PUSH2 0x440 JUMPI PUSH1 0x40 MLOAD PUSH32 0x8C379A000000000000000000000000000000000000000000000000000000000 DUP2 MSTORE PUSH1 0x4 ADD PUSH2 0x437 SWAP1 PUSH2 0x1114 JUMP JUMPDEST PUSH1 0x40 MLOAD DUP1 SWAP2 SUB SWAP1 REVERT JUMPDEST PUSH0 DUP6 DUP6 SWAP1 POP SWAP1 POP DUP4 DUP4 SWAP1 POP DUP2 EQ PUSH2 0x48C JUMPI PUSH1 0x40 MLOAD PUSH32 0x8C379A000000000000000000000000000000000000000000000000000000000 DUP2 MSTORE PUSH1 0x4 ADD PUSH2 0x483 SWAP1 PUSH2 0x133E JUMP JUMPDEST PUSH1 0x40 MLOAD DUP1 SWAP2 SUB SWAP1 REVERT JUMPDEST PUSH2 0x7D0 DUP2 GT ISZERO PUSH2 0x4D1 JUMPI PUSH1 0x40 MLOAD PUSH32 0x8C379A000000000000000000000000000000000000000000000000000000000 DUP2 MSTORE PUSH1 0x4 ADD PUSH2 0x4C8 SWAP1 PUSH2 0x13CC JUMP JUMPDEST PUSH1 0x40 MLOAD DUP1 SWAP2 SUB SWAP1 REVERT JUMPDEST PUSH0 DUP8 SWAP1 POP PUSH0 PUSH0 SWAP1 POP PUSH0 PUSH0 SWAP1 POP JUMPDEST DUP4 DUP2 LT ISZERO PUSH2 0x51A JUMPI DUP7 DUP7 DUP3 DUP2 DUP2 LT PUSH2 0x4F9 JUMPI PUSH2 0x4F8 PUSH2 0x13EA JUMP JUMPDEST JUMPDEST SWAP1 POP PUSH1 0x20 MUL ADD CALLDATALOAD DUP3 PUSH2 0x50B SWAP2 SWAP1 PUSH2 0x1444 JUMP JUMPDEST SWAP2 POP DUP1 DUP1 PUSH1 0x1 ADD SWAP2 POP POP PUSH2 0x4DE JUMP JUMPDEST POP DUP1 DUP3 PUSH20 0xFFFFFFFFFFFFFFFFFFFFFFFFFFFFFFFFFFFFFFFF AND PUSH4 0xDD62ED3E CALLER ADDRESS PUSH1 0x40 MLOAD DUP4 PUSH4 0xFFFFFFFF AND PUSH1 0xE0 SHL DUP2 MSTORE PUSH1 0x4 ADD PUSH2 0x557 SWAP3 SWAP2 SWAP1 PUSH2 0x1477 JUMP JUMPDEST PUSH1 0x20 PUSH1 0x40 MLOAD DUP1 DUP4 SUB DUP2 DUP7 GAS STATICCALL ISZERO DUP1 ISZERO PUSH2 0x572 JUMPI RETURNDATASIZE PUSH0 PUSH0 RETURNDATACOPY RETURNDATASIZE PUSH0 REVERT JUMPDEST POP POP POP POP PUSH1 0x40 MLOAD RETURNDATASIZE PUSH1 0x1F NOT PUSH1 0x1F DUP3 ADD AND DUP3 ADD DUP1 PUSH1 0x40 MSTORE POP DUP2 ADD SWAP1 PUSH2 0x596 SWAP2 SWAP1 PUSH2 0x14B2 JUMP JUMPDEST LT ISZERO PUSH2 0x5D7 JUMPI PUSH1 0x40 MLOAD PUSH32 0x8C379A000000000000000000000000000000000000000000000000000000000 DUP2 MSTORE PUSH1 0x4 ADD PUSH2 0x5CE SWAP1 PUSH2 0x1527 JUMP JUMPDEST PUSH1 0x40 MLOAD DUP1 SWAP2 SUB SWAP1 REVERT JUMPDEST DUP2 PUSH20 0xFFFFFFFFFFFFFFFFFFFFFFFFFFFFFFFFFFFFFFFF AND PUSH4 0x23B872DD CALLER ADDRESS DUP5 PUSH1 0x40 MLOAD DUP5 PUSH4 0xFFFFFFFF AND PUSH1 0xE0 SHL DUP2 MSTORE PUSH1 0x4 ADD PUSH2 0x614 SWAP4 SWAP3 SWAP2 SWAP1 PUSH2 0x1545 JUMP JUMPDEST PUSH1 0x20 PUSH1 0x40 MLOAD DUP1 DUP4 SUB DUP2 PUSH0 DUP8 GAS CALL ISZERO DUP1 ISZERO PUSH2 0x630 JUMPI RETURNDATASIZE PUSH0 PUSH0 RETURNDATACOPY RETURNDATASIZE PUSH0 REVERT JUMPDEST POP POP POP POP PUSH1 0x40 MLOAD RETURNDATASIZE PUSH1 0x1F NOT PUSH1 0x1F DUP3 ADD AND DUP3 ADD DUP1 PUSH1 0x40 MSTORE POP DUP2 ADD SWAP1 PUSH2 0x654 SWAP2 SWAP1 PUSH2 0x123B JUMP JUMPDEST PUSH2 0x693 JUMPI PUSH1 0x40 MLOAD PUSH32 0x8C379A000000000000000000000000000000000000000000000000000000000 DUP2 MSTORE PUSH1 0x4 ADD PUSH2 0x68A SWAP1 PUSH2 0x15EA JUMP JUMPDEST PUSH1 0x40 MLOAD DUP1 SWAP2 SUB SWAP1 REVERT JUMPDEST PUSH0 PUSH0 SWAP1 POP JUMPDEST DUP4 DUP2 LT ISZERO PUSH2 0x83C JUMPI PUSH0 PUSH20 0xFFFFFFFFFFFFFFFFFFFFFFFFFFFFFFFFFFFFFFFF AND DUP10 DUP10 DUP4 DUP2 DUP2 LT PUSH2 0x6CA JUMPI PUSH2 0x6C9 PUSH2 0x13EA JUMP JUMPDEST JUMPDEST SWAP1 POP PUSH1 0x20 MUL ADD PUSH1 0x20 DUP2 ADD SWAP1 PUSH2 0x6DF SWAP2 SWAP1 PUSH2 0x1069 JUMP JUMPDEST PUSH20 0xFFFFFFFFFFFFFFFFFFFFFFFFFFFFFFFFFFFFFFFF AND SUB PUSH2 0x735 JUMPI PUSH1 0x40 MLOAD PUSH32 0x8C379A000000000000000000000000000000000000000000000000000000000 DUP2 MSTORE PUSH1 0x4 ADD PUSH2 0x72C SWAP1 PUSH2 0x1678 JUMP JUMPDEST PUSH1 0x40 MLOAD DUP1 SWAP2 SUB SWAP1 REVERT JUMPDEST DUP3 PUSH20 0xFFFFFFFFFFFFFFFFFFFFFFFFFFFFFFFFFFFFFFFF AND PUSH4 0xA9059CBB DUP11 DUP11 DUP5 DUP2 DUP2 LT PUSH2 0x764 JUMPI PUSH2 0x763 PUSH2 0x13EA JUMP JUMPDEST JUMPDEST SWAP1 POP PUSH1 0x20 MUL ADD PUSH1 0x20 DUP2 ADD SWAP1 PUSH2 0x779 SWAP2 SWAP1 PUSH2 0x1069 JUMP JUMPDEST DUP10 DUP10 DUP6 DUP2 DUP2 LT PUSH2 0x78C JUMPI PUSH2 0x78B PUSH2 0x13EA JUMP JUMPDEST JUMPDEST SWAP1 POP PUSH1 0x20 MUL ADD CALLDATALOAD PUSH1 0x40 MLOAD DUP4 PUSH4 0xFFFFFFFF AND PUSH1 0xE0 SHL DUP2 MSTORE PUSH1 0x4 ADD PUSH2 0x7B0 SWAP3 SWAP2 SWAP1 PUSH2 0x11EA JUMP JUMPDEST PUSH1 0x20 PUSH1 0x40 MLOAD DUP1 DUP4 SUB DUP2 PUSH0 DUP8 GAS CALL ISZERO DUP1 ISZERO PUSH2 0x7CC JUMPI RETURNDATASIZE PUSH0 PUSH0 RETURNDATACOPY RETURNDATASIZE PUSH0 REVERT JUMPDEST POP POP POP POP PUSH1 0x40 MLOAD RETURNDATASIZE PUSH1 0x1F NOT PUSH1 0x1F DUP3 ADD AND DUP3 ADD DUP1 PUSH1 0x40 MSTORE POP DUP2 ADD SWAP1 PUSH2 0x7F0 SWAP2 SWAP1 PUSH2 0x123B JUMP JUMPDEST PUSH2 0x82F JUMPI PUSH1 0x40 MLOAD PUSH32 0x8C379A000000000000000000000000000000000000000000000000000000000 DUP2 MSTORE PUSH1 0x4 ADD PUSH2 0x826 SWAP1 PUSH2 0x12B0 JUMP JUMPDEST PUSH1 0x40 MLOAD DUP1 SWAP2 SUB SWAP1 REVERT JUMPDEST DUP1 DUP1 PUSH1 0x1 ADD SWAP2 POP POP PUSH2 0x698 JUMP JUMPDEST POP PUSH32 0xF16E4D5F82C54D462FFE3D21D1D2A968D757649029D89F7253094312837A6E8B DUP4 DUP3 TIMESTAMP PUSH1 0x40 MLOAD PUSH2 0x870 SWAP4 SWAP3 SWAP2 SWAP1 PUSH2 0x1696 JUMP JUMPDEST PUSH1 0x40 MLOAD DUP1 SWAP2 SUB SWAP1 LOG1 PUSH1 0x1 SWAP4 POP POP POP POP SWAP6 SWAP5 POP POP POP POP POP JUMP JUMPDEST PUSH0 PUSH0 PUSH0 SWAP1 SLOAD SWAP1 PUSH2 0x100 EXP SWAP1 DIV PUSH20 0xFFFFFFFFFFFFFFFFFFFFFFFFFFFFFFFFFFFFFFFF AND PUSH20 0xFFFFFFFFFFFFFFFFFFFFFFFFFFFFFFFFFFFFFFFF AND CALLER PUSH20 0xFFFFFFFFFFFFFFFFFFFFFFFFFFFFFFFFFFFFFFFF AND EQ PUSH2 0x917 JUMPI PUSH1 0x40 MLOAD PUSH32 0x8C379A000000000000000000000000000000000000000000000000000000000 DUP2 MSTORE PUSH1 0x4 ADD PUSH2 0x90E SWAP1 PUSH2 0x1114 JUMP JUMPDEST PUSH1 0x40 MLOAD DUP1 SWAP2 SUB SWAP1 REVERT JUMPDEST PUSH0 DUP6 DUP6 SWAP1 POP SWAP1 POP DUP4 DUP4 SWAP1 POP DUP2 EQ PUSH2 0x963 JUMPI PUSH1 0x40 MLOAD PUSH32 0x8C379A000000000000000000000000000000000000000000000000000000000 DUP2 MSTORE PUSH1 0x4 ADD PUSH2 0x95A SWAP1 PUSH2 0x133E JUMP JUMPDEST PUSH1 0x40 MLOAD DUP1 SWAP2 SUB SWAP1 REVERT JUMPDEST PUSH2 0x7D0 DUP2 GT ISZERO PUSH2 0x9A8 JUMPI PUSH1 0x40 MLOAD PUSH32 0x8C379A000000000000000000000000000000000000000000000000000000000 DUP2 MSTORE PUSH1 0x4 ADD PUSH2 0x99F SWAP1 PUSH2 0x13CC JUMP JUMPDEST PUSH1 0x40 MLOAD DUP1 SWAP2 SUB SWAP1 REVERT JUMPDEST PUSH0 PUSH0 SWAP1 POP PUSH0 PUSH0 SWAP1 POP JUMPDEST DUP3 DUP2 LT ISZERO PUSH2 0x9ED JUMPI DUP6 DUP6 DUP3 DUP2 DUP2 LT PUSH2 0x9CC JUMPI PUSH2 0x9CB PUSH2 0x13EA JUMP JUMPDEST JUMPDEST SWAP1 POP PUSH1 0x20 MUL ADD CALLDATALOAD DUP3 PUSH2 0x9DE SWAP2 SWAP1 PUSH2 0x1444 JUMP JUMPDEST SWAP2 POP DUP1 DUP1 PUSH1 0x1 ADD SWAP2 POP POP PUSH2 0x9B1 JUMP JUMPDEST POP DUP1 CALLVALUE EQ PUSH2 0xA30 JUMPI PUSH1 0x40 MLOAD PUSH32 0x8C379A000000000000000000000000000000000000000000000000000000000 DUP2 MSTORE PUSH1 0x4 ADD PUSH2 0xA27 SWAP1 PUSH2 0x173B JUMP JUMPDEST PUSH1 0x40 MLOAD DUP1 SWAP2 SUB SWAP1 REVERT JUMPDEST PUSH0 PUSH0 PUSH0 SWAP1 POP JUMPDEST DUP4 DUP2 LT ISZERO PUSH2 0xBC9 JUMPI PUSH0 PUSH20 0xFFFFFFFFFFFFFFFFFFFFFFFFFFFFFFFFFFFFFFFF AND DUP10 DUP10 DUP4 DUP2 DUP2 LT PUSH2 0xA68 JUMPI PUSH2 0xA67 PUSH2 0x13EA JUMP JUMPDEST JUMPDEST SWAP1 POP PUSH1 0x20 MUL ADD PUSH1 0x20 DUP2 ADD SWAP1 PUSH2 0xA7D SWAP2 SWAP1 PUSH2 0x1069 JUMP JUMPDEST PUSH20 0xFFFFFFFFFFFFFFFFFFFFFFFFFFFFFFFFFFFFFFFF AND SUB PUSH2 0xAD3 JUMPI PUSH1 0x40 MLOAD PUSH32 0x8C379A000000000000000000000000000000000000000000000000000000000 DUP2 MSTORE PUSH1 0x4 ADD PUSH2 0xACA SWAP1 PUSH2 0x1678 JUMP JUMPDEST PUSH1 0x40 MLOAD DUP1 SWAP2 SUB SWAP1 REVERT JUMPDEST DUP9 DUP9 DUP3 DUP2 DUP2 LT PUSH2 0xAE6 JUMPI PUSH2 0xAE5 PUSH2 0x13EA JUMP JUMPDEST JUMPDEST SWAP1 POP PUSH1 0x20 MUL ADD PUSH1 0x20 DUP2 ADD SWAP1 PUSH2 0xAFB SWAP2 SWAP1 PUSH2 0x1069 JUMP JUMPDEST PUSH20 0xFFFFFFFFFFFFFFFFFFFFFFFFFFFFFFFFFFFFFFFF AND DUP8 DUP8 DUP4 DUP2 DUP2 LT PUSH2 0xB24 JUMPI PUSH2 0xB23 PUSH2 0x13EA JUMP JUMPDEST JUMPDEST SWAP1 POP PUSH1 0x20 MUL ADD CALLDATALOAD PUSH1 0x40 MLOAD PUSH2 0xB37 SWAP1 PUSH2 0x115F JUMP JUMPDEST PUSH0 PUSH1 0x40 MLOAD DUP1 DUP4 SUB DUP2 DUP6 DUP8 GAS CALL SWAP3 POP POP POP RETURNDATASIZE DUP1 PUSH0 DUP2 EQ PUSH2 0xB71 JUMPI PUSH1 0x40 MLOAD SWAP2 POP PUSH1 0x1F NOT PUSH1 0x3F RETURNDATASIZE ADD AND DUP3 ADD PUSH1 0x40 MSTORE RETURNDATASIZE DUP3 MSTORE RETURNDATASIZE PUSH0 PUSH1 0x20 DUP5 ADD RETURNDATACOPY PUSH2 0xB76 JUMP JUMPDEST PUSH1 0x60 SWAP2 POP JUMPDEST POP POP DUP1 SWAP3 POP POP DUP2 PUSH2 0xBBC JUMPI PUSH1 0x40 MLOAD PUSH32 0x8C379A000000000000000000000000000000000000000000000000000000000 DUP2 MSTORE PUSH1 0x4 ADD PUSH2 0xBB3 SWAP1 PUSH2 0x17A3 JUMP JUMPDEST PUSH1 0x40 MLOAD DUP1 SWAP2 SUB SWAP1 REVERT JUMPDEST DUP1 DUP1 PUSH1 0x1 ADD SWAP2 POP POP PUSH2 0xA36 JUMP JUMPDEST POP PUSH32 0xF16E4D5F82C54D462FFE3D21D1D2A968D757649029D89F7253094312837A6E8B DUP4 DUP4 TIMESTAMP PUSH1 0x40 MLOAD PUSH2 0xBFD SWAP4 SWAP3 SWAP2 SWAP1 PUSH2 0x1696 JUMP JUMPDEST PUSH1 0x40 MLOAD DUP1 SWAP2 SUB SWAP1 LOG1 PUSH1 0x1 SWAP4 POP POP POP POP SWAP5 SWAP4 POP POP POP POP JUMP JUMPDEST PUSH0 PUSH0 SWAP1 SLOAD SWAP1 PUSH2 0x100 EXP SWAP1 DIV PUSH20 0xFFFFFFFFFFFFFFFFFFFFFFFFFFFFFFFFFFFFFFFF AND DUP2 JUMP JUMPDEST PUSH0 PUSH0 SWAP1 SLOAD SWAP1 PUSH2 0x100 EXP SWAP1 DIV PUSH20 0xFFFFFFFFFFFFFFFFFFFFFFFFFFFFFFFFFFFFFFFF AND PUSH20 0xFFFFFFFFFFFFFFFFFFFFFFFFFFFFFFFFFFFFFFFF AND CALLER PUSH20 0xFFFFFFFFFFFFFFFFFFFFFFFFFFFFFFFFFFFFFFFF AND EQ PUSH2 0xCC6 JUMPI PUSH1 0x40 MLOAD PUSH32 0x8C379A000000000000000000000000000000000000000000000000000000000 DUP2 MSTORE PUSH1 0x4 ADD PUSH2 0xCBD SWAP1 PUSH2 0x1114 JUMP JUMPDEST PUSH1 0x40 MLOAD DUP1 SWAP2 SUB SWAP1 REVERT JUMPDEST PUSH0 PUSH20 0xFFFFFFFFFFFFFFFFFFFFFFFFFFFFFFFFFFFFFFFF AND DUP2 PUSH20 0xFFFFFFFFFFFFFFFFFFFFFFFFFFFFFFFFFFFFFFFF AND SUB PUSH2 0xD34 JUMPI PUSH1 0x40 MLOAD PUSH32 0x8C379A000000000000000000000000000000000000000000000000000000000 DUP2 MSTORE PUSH1 0x4 ADD PUSH2 0xD2B SWAP1 PUSH2 0x1831 JUMP JUMPDEST PUSH1 0x40 MLOAD DUP1 SWAP2 SUB SWAP1 REVERT JUMPDEST DUP1 PUSH0 PUSH0 PUSH2 0x100 EXP DUP2 SLOAD DUP2 PUSH20 0xFFFFFFFFFFFFFFFFFFFFFFFFFFFFFFFFFFFFFFFF MUL NOT AND SWAP1 DUP4 PUSH20 0xFFFFFFFFFFFFFFFFFFFFFFFFFFFFFFFFFFFFFFFF AND MUL OR SWAP1 SSTORE POP POP JUMP JUMPDEST PUSH0 PUSH0 REVERT JUMPDEST PUSH0 PUSH0 REVERT JUMPDEST PUSH0 PUSH20 0xFFFFFFFFFFFFFFFFFFFFFFFFFFFFFFFFFFFFFFFF DUP3 AND SWAP1 POP SWAP2 SWAP1 POP JUMP JUMPDEST PUSH0 PUSH2 0xDA7 DUP3 PUSH2 0xD7E JUMP JUMPDEST SWAP1 POP SWAP2 SWAP1 POP JUMP JUMPDEST PUSH2 0xDB7 DUP2 PUSH2 0xD9D JUMP JUMPDEST DUP2 EQ PUSH2 0xDC1 JUMPI PUSH0 PUSH0 REVERT JUMPDEST POP JUMP JUMPDEST PUSH0 DUP2 CALLDATALOAD SWAP1 POP PUSH2 0xDD2 DUP2 PUSH2 0xDAE JUMP JUMPDEST SWAP3 SWAP2 POP POP JUMP JUMPDEST PUSH0 DUP2 SWAP1 POP SWAP2 SWAP1 POP JUMP JUMPDEST PUSH2 0xDEA DUP2 PUSH2 0xDD8 JUMP JUMPDEST DUP2 EQ PUSH2 0xDF4 JUMPI PUSH0 PUSH0 REVERT JUMPDEST POP JUMP JUMPDEST PUSH0 DUP2 CALLDATALOAD SWAP1 POP PUSH2 0xE05 DUP2 PUSH2 0xDE1 JUMP JUMPDEST SWAP3 SWAP2 POP POP JUMP JUMPDEST PUSH0 PUSH0 PUSH1 0x40 DUP4 DUP6 SUB SLT ISZERO PUSH2 0xE21 JUMPI PUSH2 0xE20 PUSH2 0xD76 JUMP JUMPDEST JUMPDEST PUSH0 PUSH2 0xE2E DUP6 DUP3 DUP7 ADD PUSH2 0xDC4 JUMP JUMPDEST SWAP3 POP POP PUSH1 0x20 PUSH2 0xE3F DUP6 DUP3 DUP7 ADD PUSH2 0xDF7 JUMP JUMPDEST SWAP2 POP POP SWAP3 POP SWAP3 SWAP1 POP JUMP JUMPDEST PUSH0 PUSH0 REVERT JUMPDEST PUSH0 PUSH0 REVERT JUMPDEST PUSH0 PUSH0 REVERT JUMPDEST PUSH0 PUSH0 DUP4 PUSH1 0x1F DUP5 ADD SLT PUSH2 0xE6A JUMPI PUSH2 0xE69 PUSH2 0xE49 JUMP JUMPDEST JUMPDEST DUP3 CALLDATALOAD SWAP1 POP PUSH8 0xFFFFFFFFFFFFFFFF DUP2 GT ISZERO PUSH2 0xE87 JUMPI PUSH2 0xE86 PUSH2 0xE4D JUMP JUMPDEST JUMPDEST PUSH1 0x20 DUP4 ADD SWAP2 POP DUP4 PUSH1 0x20 DUP3 MUL DUP4 ADD GT ISZERO PUSH2 0xEA3 JUMPI PUSH2 0xEA2 PUSH2 0xE51 JUMP JUMPDEST JUMPDEST SWAP3 POP SWAP3 SWAP1 POP JUMP JUMPDEST PUSH0 PUSH0 DUP4 PUSH1 0x1F DUP5 ADD SLT PUSH2 0xEBF JUMPI PUSH2 0xEBE PUSH2 0xE49 JUMP JUMPDEST JUMPDEST DUP3 CALLDATALOAD SWAP1 POP PUSH8 0xFFFFFFFFFFFFFFFF DUP2 GT ISZERO PUSH2 0xEDC JUMPI PUSH2 0xEDB PUSH2 0xE4D JUMP JUMPDEST JUMPDEST PUSH1 0x20 DUP4 ADD SWAP2 POP DUP4 PUSH1 0x20 DUP3 MUL DUP4 ADD GT ISZERO PUSH2 0xEF8 JUMPI PUSH2 0xEF7 PUSH2 0xE51 JUMP JUMPDEST JUMPDEST SWAP3 POP SWAP3 SWAP1 POP JUMP JUMPDEST PUSH0 PUSH0 PUSH0 PUSH0 PUSH0 PUSH1 0x60 DUP7 DUP9 SUB SLT ISZERO PUSH2 0xF18 JUMPI PUSH2 0xF17 PUSH2 0xD76 JUMP JUMPDEST JUMPDEST PUSH0 PUSH2 0xF25 DUP9 DUP3 DUP10 ADD PUSH2 0xDC4 JUMP JUMPDEST SWAP6 POP POP PUSH1 0x20 DUP7 ADD CALLDATALOAD PUSH8 0xFFFFFFFFFFFFFFFF DUP2 GT ISZERO PUSH2 0xF46 JUMPI PUSH2 0xF45 PUSH2 0xD7A JUMP JUMPDEST JUMPDEST PUSH2 0xF52 DUP9 DUP3 DUP10 ADD PUSH2 0xE55 JUMP JUMPDEST SWAP5 POP SWAP5 POP POP PUSH1 0x40 DUP7 ADD CALLDATALOAD PUSH8 0xFFFFFFFFFFFFFFFF DUP2 GT ISZERO PUSH2 0xF75 JUMPI PUSH2 0xF74 PUSH2 0xD7A JUMP JUMPDEST JUMPDEST PUSH2 0xF81 DUP9 DUP3 DUP10 ADD PUSH2 0xEAA JUMP JUMPDEST SWAP3 POP SWAP3 POP POP SWAP3 SWAP6 POP SWAP3 SWAP6 SWAP1 SWAP4 POP JUMP JUMPDEST PUSH0 DUP2 ISZERO ISZERO SWAP1 POP SWAP2 SWAP1 POP JUMP JUMPDEST PUSH2 0xFA4 DUP2 PUSH2 0xF90 JUMP JUMPDEST DUP3 MSTORE POP POP JUMP JUMPDEST PUSH0 PUSH1 0x20 DUP3 ADD SWAP1 POP PUSH2 0xFBD PUSH0 DUP4 ADD DUP5 PUSH2 0xF9B JUMP JUMPDEST SWAP3 SWAP2 POP POP JUMP JUMPDEST PUSH0 PUSH0 PUSH0 PUSH0 PUSH1 0x40 DUP6 DUP8 SUB SLT ISZERO PUSH2 0xFDB JUMPI PUSH2 0xFDA PUSH2 0xD76 JUMP JUMPDEST JUMPDEST PUSH0 DUP6 ADD CALLDATALOAD PUSH8 0xFFFFFFFFFFFFFFFF DUP2 GT ISZERO PUSH2 0xFF8 JUMPI PUSH2 0xFF7 PUSH2 0xD7A JUMP JUMPDEST JUMPDEST PUSH2 0x1004 DUP8 DUP3 DUP9 ADD PUSH2 0xE55 JUMP JUMPDEST SWAP5 POP SWAP5 POP POP PUSH1 0x20 DUP6 ADD CALLDATALOAD PUSH8 0xFFFFFFFFFFFFFFFF DUP2 GT ISZERO PUSH2 0x1027 JUMPI PUSH2 0x1026 PUSH2 0xD7A JUMP JUMPDEST JUMPDEST PUSH2 0x1033 DUP8 DUP3 DUP9 ADD PUSH2 0xEAA JUMP JUMPDEST SWAP3 POP SWAP3 POP POP SWAP3 SWAP6 SWAP2 SWAP5 POP SWAP3 POP JUMP JUMPDEST PUSH2 0x104A DUP2 PUSH2 0xD9D JUMP JUMPDEST DUP3 MSTORE POP POP JUMP JUMPDEST PUSH0 PUSH1 0x20 DUP3 ADD SWAP1 POP PUSH2 0x1063 PUSH0 DUP4 ADD DUP5 PUSH2 0x1041 JUMP JUMPDEST SWAP3 SWAP2 POP POP JUMP JUMPDEST PUSH0 PUSH1 0x20 DUP3 DUP5 SUB SLT ISZERO PUSH2 0x107E JUMPI PUSH2 0x107D PUSH2 0xD76 JUMP JUMPDEST JUMPDEST PUSH0 PUSH2 0x108B DUP5 DUP3 DUP6 ADD PUSH2 0xDC4 JUMP JUMPDEST SWAP2 POP POP SWAP3 SWAP2 POP POP JUMP JUMPDEST PUSH0 DUP3 DUP3 MSTORE PUSH1 0x20 DUP3 ADD SWAP1 POP SWAP3 SWAP2 POP POP JUMP JUMPDEST PUSH32 0x48616E7961206F776E65722079616E67206461706174206D656E67616B736573 PUSH0 DUP3 ADD MSTORE PUSH32 0x2066756E67736920696E69000000000000000000000000000000000000000000 PUSH1 0x20 DUP3 ADD MSTORE POP JUMP JUMPDEST PUSH0 PUSH2 0x10FE PUSH1 0x2B DUP4 PUSH2 0x1094 JUMP JUMPDEST SWAP2 POP PUSH2 0x1109 DUP3 PUSH2 0x10A4 JUMP JUMPDEST PUSH1 0x40 DUP3 ADD SWAP1 POP SWAP2 SWAP1 POP JUMP JUMPDEST PUSH0 PUSH1 0x20 DUP3 ADD SWAP1 POP DUP2 DUP2 SUB PUSH0 DUP4 ADD MSTORE PUSH2 0x112B DUP2 PUSH2 0x10F2 JUMP JUMPDEST SWAP1 POP SWAP2 SWAP1 POP JUMP JUMPDEST PUSH0 DUP2 SWAP1 POP SWAP3 SWAP2 POP POP JUMP JUMPDEST POP JUMP JUMPDEST PUSH0 PUSH2 0x114A PUSH0 DUP4 PUSH2 0x1132 JUMP JUMPDEST SWAP2 POP PUSH2 0x1155 DUP3 PUSH2 0x113C JUMP JUMPDEST PUSH0 DUP3 ADD SWAP1 POP SWAP2 SWAP1 POP JUMP JUMPDEST PUSH0 PUSH2 0x1169 DUP3 PUSH2 0x113F JUMP JUMPDEST SWAP2 POP DUP2 SWAP1 POP SWAP2 SWAP1 POP JUMP JUMPDEST PUSH32 0x5472616E73666572206E617469766520746F6B656E20676167616C0000000000 PUSH0 DUP3 ADD MSTORE POP JUMP JUMPDEST PUSH0 PUSH2 0x11A7 PUSH1 0x1B DUP4 PUSH2 0x1094 JUMP JUMPDEST SWAP2 POP PUSH2 0x11B2 DUP3 PUSH2 0x1173 JUMP JUMPDEST PUSH1 0x20 DUP3 ADD SWAP1 POP SWAP2 SWAP1 POP JUMP JUMPDEST PUSH0 PUSH1 0x20 DUP3 ADD SWAP1 POP DUP2 DUP2 SUB PUSH0 DUP4 ADD MSTORE PUSH2 0x11D4 DUP2 PUSH2 0x119B JUMP JUMPDEST SWAP1 POP SWAP2 SWAP1 POP JUMP JUMPDEST PUSH2 0x11E4 DUP2 PUSH2 0xDD8 JUMP JUMPDEST DUP3 MSTORE POP POP JUMP JUMPDEST PUSH0 PUSH1 0x40 DUP3 ADD SWAP1 POP PUSH2 0x11FD PUSH0 DUP4 ADD DUP6 PUSH2 0x1041 JUMP JUMPDEST PUSH2 0x120A PUSH1 0x20 DUP4 ADD DUP5 PUSH2 0x11DB JUMP JUMPDEST SWAP4 SWAP3 POP POP POP JUMP JUMPDEST PUSH2 0x121A DUP2 PUSH2 0xF90 JUMP JUMPDEST DUP2 EQ PUSH2 0x1224 JUMPI PUSH0 PUSH0 REVERT JUMPDEST POP JUMP JUMPDEST PUSH0 DUP2 MLOAD SWAP1 POP PUSH2 0x1235 DUP2 PUSH2 0x1211 JUMP JUMPDEST SWAP3 SWAP2 POP POP JUMP JUMPDEST PUSH0 PUSH1 0x20 DUP3 DUP5 SUB SLT ISZERO PUSH2 0x1250 JUMPI PUSH2 0x124F PUSH2 0xD76 JUMP JUMPDEST JUMPDEST PUSH0 PUSH2 0x125D DUP5 DUP3 DUP6 ADD PUSH2 0x1227 JUMP JUMPDEST SWAP2 POP POP SWAP3 SWAP2 POP POP JUMP JUMPDEST PUSH32 0x5472616E7366657220746F6B656E20676167616C000000000000000000000000 PUSH0 DUP3 ADD MSTORE POP JUMP JUMPDEST PUSH0 PUSH2 0x129A PUSH1 0x14 DUP4 PUSH2 0x1094 JUMP JUMPDEST SWAP2 POP PUSH2 0x12A5 DUP3 PUSH2 0x1266 JUMP JUMPDEST PUSH1 0x20 DUP3 ADD SWAP1 POP SWAP2 SWAP1 POP JUMP JUMPDEST PUSH0 PUSH1 0x20 DUP3 ADD SWAP1 POP DUP2 DUP2 SUB PUSH0 DUP4 ADD MSTORE PUSH2 0x12C7 DUP2 PUSH2 0x128E JUMP JUMPDEST SWAP1 POP SWAP2 SWAP1 POP JUMP JUMPDEST PUSH32 0x50616E6A616E6720617272617920726563697069656E74732064616E20616D6F PUSH0 DUP3 ADD MSTORE PUSH32 0x756E74732068617275732073616D610000000000000000000000000000000000 PUSH1 0x20 DUP3 ADD MSTORE POP JUMP JUMPDEST PUSH0 PUSH2 0x1328 PUSH1 0x2F DUP4 PUSH2 0x1094 JUMP JUMPDEST SWAP2 POP PUSH2 0x1333 DUP3 PUSH2 0x12CE JUMP JUMPDEST PUSH1 0x40 DUP3 ADD SWAP1 POP SWAP2 SWAP1 POP JUMP JUMPDEST PUSH0 PUSH1 0x20 DUP3 ADD SWAP1 POP DUP2 DUP2 SUB PUSH0 DUP4 ADD MSTORE PUSH2 0x1355 DUP2 PUSH2 0x131C JUMP JUMPDEST SWAP1 POP SWAP2 SWAP1 POP JUMP JUMPDEST PUSH32 0x4D616B73696D616C203230303020616C616D61742070656E6572696D61206461 PUSH0 DUP3 ADD MSTORE PUSH32 0x6C616D2073617475206261746368000000000000000000000000000000000000 PUSH1 0x20 DUP3 ADD MSTORE POP JUMP JUMPDEST PUSH0 PUSH2 0x13B6 PUSH1 0x2E DUP4 PUSH2 0x1094 JUMP JUMPDEST SWAP2 POP PUSH2 0x13C1 DUP3 PUSH2 0x135C JUMP JUMPDEST PUSH1 0x40 DUP3 ADD SWAP1 POP SWAP2 SWAP1 POP JUMP JUMPDEST PUSH0 PUSH1 0x20 DUP3 ADD SWAP1 POP DUP2 DUP2 SUB PUSH0 DUP4 ADD MSTORE PUSH2 0x13E3 DUP2 PUSH2 0x13AA JUMP JUMPDEST SWAP1 POP SWAP2 SWAP1 POP JUMP JUMPDEST PUSH32 0x4E487B7100000000000000000000000000000000000000000000000000000000 PUSH0 MSTORE PUSH1 0x32 PUSH1 0x4 MSTORE PUSH1 0x24 PUSH0 REVERT JUMPDEST PUSH32 0x4E487B7100000000000000000000000000000000000000000000000000000000 PUSH0 MSTORE PUSH1 0x11 PUSH1 0x4 MSTORE PUSH1 0x24 PUSH0 REVERT JUMPDEST PUSH0 PUSH2 0x144E DUP3 PUSH2 0xDD8 JUMP JUMPDEST SWAP2 POP PUSH2 0x1459 DUP4 PUSH2 0xDD8 JUMP JUMPDEST SWAP3 POP DUP3 DUP3 ADD SWAP1 POP DUP1 DUP3 GT ISZERO PUSH2 0x1471 JUMPI PUSH2 0x1470 PUSH2 0x1417 JUMP JUMPDEST JUMPDEST SWAP3 SWAP2 POP POP JUMP JUMPDEST PUSH0 PUSH1 0x40 DUP3 ADD SWAP1 POP PUSH2 0x148A PUSH0 DUP4 ADD DUP6 PUSH2 0x1041 JUMP JUMPDEST PUSH2 0x1497 PUSH1 0x20 DUP4 ADD DUP5 PUSH2 0x1041 JUMP JUMPDEST SWAP4 SWAP3 POP POP POP JUMP JUMPDEST PUSH0 DUP2 MLOAD SWAP1 POP PUSH2 0x14AC DUP2 PUSH2 0xDE1 JUMP JUMPDEST SWAP3 SWAP2 POP POP JUMP JUMPDEST PUSH0 PUSH1 0x20 DUP3 DUP5 SUB SLT ISZERO PUSH2 0x14C7 JUMPI PUSH2 0x14C6 PUSH2 0xD76 JUMP JUMPDEST JUMPDEST PUSH0 PUSH2 0x14D4 DUP5 DUP3 DUP6 ADD PUSH2 0x149E JUMP JUMPDEST SWAP2 POP POP SWAP3 SWAP2 POP POP JUMP JUMPDEST PUSH32 0x416C6C6F77616E636520746F6B656E20746964616B2063756B75700000000000 PUSH0 DUP3 ADD MSTORE POP JUMP JUMPDEST PUSH0 PUSH2 0x1511 PUSH1 0x1B DUP4 PUSH2 0x1094 JUMP JUMPDEST SWAP2 POP PUSH2 0x151C DUP3 PUSH2 0x14DD JUMP JUMPDEST PUSH1 0x20 DUP3 ADD SWAP1 POP SWAP2 SWAP1 POP JUMP JUMPDEST PUSH0 PUSH1 0x20 DUP3 ADD SWAP1 POP DUP2 DUP2 SUB PUSH0 DUP4 ADD MSTORE PUSH2 0x153E DUP2 PUSH2 0x1505 JUMP JUMPDEST SWAP1 POP SWAP2 SWAP1 POP JUMP JUMPDEST PUSH0 PUSH1 0x60 DUP3 ADD SWAP1 POP PUSH2 0x1558 PUSH0 DUP4 ADD DUP7 PUSH2 0x1041 JUMP JUMPDEST PUSH2 0x1565 PUSH1 0x20 DUP4 ADD DUP6 PUSH2 0x1041 JUMP JUMPDEST PUSH2 0x1572 PUSH1 0x40 DUP4 ADD DUP5 PUSH2 0x11DB JUMP JUMPDEST SWAP5 SWAP4 POP POP POP POP JUMP JUMPDEST PUSH32 0x5472616E7366657220646172692070656E676972696D206B65206B6F6E747261 PUSH0 DUP3 ADD MSTORE PUSH32 0x6B20676167616C00000000000000000000000000000000000000000000000000 PUSH1 0x20 DUP3 ADD MSTORE POP JUMP JUMPDEST PUSH0 PUSH2 0x15D4 PUSH1 0x27 DUP4 PUSH2 0x1094 JUMP JUMPDEST SWAP2 POP PUSH2 0x15DF DUP3 PUSH2 0x157A JUMP JUMPDEST PUSH1 0x40 DUP3 ADD SWAP1 POP SWAP2 SWAP1 POP JUMP JUMPDEST PUSH0 PUSH1 0x20 DUP3 ADD SWAP1 POP DUP2 DUP2 SUB PUSH0 DUP4 ADD MSTORE PUSH2 0x1601 DUP2 PUSH2 0x15C8 JUMP JUMPDEST SWAP1 POP SWAP2 SWAP1 POP JUMP JUMPDEST PUSH32 0x416C616D61742070656E6572696D6120746964616B20626F6C656820616C616D PUSH0 DUP3 ADD MSTORE PUSH32 0x6174206E6F6C0000000000000000000000000000000000000000000000000000 PUSH1 0x20 DUP3 ADD MSTORE POP JUMP JUMPDEST PUSH0 PUSH2 0x1662 PUSH1 0x26 DUP4 PUSH2 0x1094 JUMP JUMPDEST SWAP2 POP PUSH2 0x166D DUP3 PUSH2 0x1608 JUMP JUMPDEST PUSH1 0x40 DUP3 ADD SWAP1 POP SWAP2 SWAP1 POP JUMP JUMPDEST PUSH0 PUSH1 0x20 DUP3 ADD SWAP1 POP DUP2 DUP2 SUB PUSH0 DUP4 ADD MSTORE PUSH2 0x168F DUP2 PUSH2 0x1656 JUMP JUMPDEST SWAP1 POP SWAP2 SWAP1 POP JUMP JUMPDEST PUSH0 PUSH1 0x60 DUP3 ADD SWAP1 POP PUSH2 0x16A9 PUSH0 DUP4 ADD DUP7 PUSH2 0x11DB JUMP JUMPDEST PUSH2 0x16B6 PUSH1 0x20 DUP4 ADD DUP6 PUSH2 0x11DB JUMP JUMPDEST PUSH2 0x16C3 PUSH1 0x40 DUP4 ADD DUP5 PUSH2 0x11DB JUMP JUMPDEST SWAP5 SWAP4 POP POP POP POP JUMP JUMPDEST PUSH32 0x546F74616C20616D6F756E742068617275732073616D612064656E67616E206E PUSH0 DUP3 ADD MSTORE PUSH32 0x696C61692079616E672064696B6972696D000000000000000000000000000000 PUSH1 0x20 DUP3 ADD MSTORE POP JUMP JUMPDEST PUSH0 PUSH2 0x1725 PUSH1 0x31 DUP4 PUSH2 0x1094 JUMP JUMPDEST SWAP2 POP PUSH2 0x1730 DUP3 PUSH2 0x16CB JUMP JUMPDEST PUSH1 0x40 DUP3 ADD SWAP1 POP SWAP2 SWAP1 POP JUMP JUMPDEST PUSH0 PUSH1 0x20 DUP3 ADD SWAP1 POP DUP2 DUP2 SUB PUSH0 DUP4 ADD MSTORE PUSH2 0x1752 DUP2 PUSH2 0x1719 JUMP JUMPDEST SWAP1 POP SWAP2 SWAP1 POP JUMP JUMPDEST PUSH32 0x5472616E7366657220676167616C000000000000000000000000000000000000 PUSH0 DUP3 ADD MSTORE POP JUMP JUMPDEST PUSH0 PUSH2 0x178D PUSH1 0xE DUP4 PUSH2 0x1094 JUMP JUMPDEST SWAP2 POP PUSH2 0x1798 DUP3 PUSH2 0x1759 JUMP JUMPDEST PUSH1 0x20 DUP3 ADD SWAP1 POP SWAP2 SWAP1 POP JUMP JUMPDEST PUSH0 PUSH1 0x20 DUP3 ADD SWAP1 POP DUP2 DUP2 SUB PUSH0 DUP4 ADD MSTORE PUSH2 0x17BA DUP2 PUSH2 0x1781 JUMP JUMPDEST SWAP1 POP SWAP2 SWAP1 POP JUMP JUMPDEST PUSH32 0x416C616D6174206F776E6572206261727520746964616B20626F6C656820616C PUSH0 DUP3 ADD MSTORE PUSH32 0x616D6174206E6F6C000000000000000000000000000000000000000000000000 PUSH1 0x20 DUP3 ADD MSTORE POP JUMP JUMPDEST PUSH0 PUSH2 0x181B PUSH1 0x28 DUP4 PUSH2 0x1094 JUMP JUMPDEST SWAP2 POP PUSH2 0x1826 DUP3 PUSH2 0x17C1 JUMP JUMPDEST PUSH1 0x40 DUP3 ADD SWAP1 POP SWAP2 SWAP1 POP JUMP JUMPDEST PUSH0 PUSH1 0x20 DUP3 ADD SWAP1 POP DUP2 DUP2 SUB PUSH0 DUP4 ADD MSTORE PUSH2 0x1848 DUP2 PUSH2 0x180F JUMP JUMPDEST SWAP1 POP SWAP2 SWAP1 POP JUMP INVALID LOG2 PUSH5 0x6970667358 0x22 SLT KECCAK256 0xBB LOG3 ADDRESS LOG3 PUSH12 0x942A63E899E406CF58E1B1A4 BASEFEE TIMESTAMP SWAP10 SWAP14 CODESIZE COINBASE 0xCE 0xAB SWAP5 PUSH2 0x5058 DUP15 0xAC SWAP9 PUSH5 0x736F6C6343 STOP ADDMOD SHR STOP CALLER "
	},
	"abi": [
		{
			"inputs": [],
			"stateMutability": "nonpayable",
			"type": "constructor"
		},
		{
			"anonymous": false,
			"inputs": [
				{
					"indexed": false,
					"internalType": "uint256",
					"name": "totalAddresses",
					"type": "uint256"
				},
				{
					"indexed": false,
					"internalType": "uint256",
					"name": "totalAmount",
					"type": "uint256"
				},
				{
					"indexed": false,
					"internalType": "uint256",
					"name": "timestamp",
					"type": "uint256"
				}
			],
			"name": "BatchTransferSuccessful",
			"type": "event"
		},
		{
			"inputs": [
				{
					"internalType": "address[]",
					"name": "recipients",
					"type": "address[]"
				},
				{
					"internalType": "uint256[]",
					"name": "amounts",
					"type": "uint256[]"
				}
			],
			"name": "batchTransfer",
			"outputs": [
				{
					"internalType": "bool",
					"name": "",
					"type": "bool"
				}
			],
			"stateMutability": "payable",
			"type": "function"
		},
		{
			"inputs": [
				{
					"internalType": "address",
					"name": "tokenAddress",
					"type": "address"
				},
				{
					"internalType": "address[]",
					"name": "recipients",
					"type": "address[]"
				},
				{
					"internalType": "uint256[]",
					"name": "amounts",
					"type": "uint256[]"
				}
			],
			"name": "batchTransferToken",
			"outputs": [
				{
					"internalType": "bool",
					"name": "",
					"type": "bool"
				}
			],
			"stateMutability": "nonpayable",
			"type": "function"
		},
		{
			"inputs": [],
			"name": "owner",
			"outputs": [
				{
					"internalType": "address",
					"name": "",
					"type": "address"
				}
			],
			"stateMutability": "view",
			"type": "function"
		},
		{
			"inputs": [
				{
					"internalType": "address",
					"name": "tokenAddress",
					"type": "address"
				},
				{
					"internalType": "uint256",
					"name": "amount",
					"type": "uint256"
				}
			],
			"name": "recoverTokens",
			"outputs": [],
			"stateMutability": "nonpayable",
			"type": "function"
		},
		{
			"inputs": [
				{
					"internalType": "address",
					"name": "newOwner",
					"type": "address"
				}
			],
			"name": "transferOwnership",
			"outputs": [],
			"stateMutability": "nonpayable",
			"type": "function"
		},
		{
			"stateMutability": "payable",
			"type": "receive"
		}
	],
	"storageLayout": {
		"storage": [
			{
				"astId": 4,
				"contract": "edosetiawan.sol:BatchTransfer",
				"label": "owner",
				"offset": 0,
				"slot": "0",
				"type": "t_address"
			}
		],
		"types": {
			"t_address": {
				"encoding": "inplace",
				"label": "address",
				"numberOfBytes": "20"
			}
		}
	},
	"web3Deploy": "var batchtransferContract = new web3.eth.Contract([{\"inputs\":[],\"stateMutability\":\"nonpayable\",\"type\":\"constructor\"},{\"anonymous\":false,\"inputs\":[{\"indexed\":false,\"internalType\":\"uint256\",\"name\":\"totalAddresses\",\"type\":\"uint256\"},{\"indexed\":false,\"internalType\":\"uint256\",\"name\":\"totalAmount\",\"type\":\"uint256\"},{\"indexed\":false,\"internalType\":\"uint256\",\"name\":\"timestamp\",\"type\":\"uint256\"}],\"name\":\"BatchTransferSuccessful\",\"type\":\"event\"},{\"inputs\":[{\"internalType\":\"address[]\",\"name\":\"recipients\",\"type\":\"address[]\"},{\"internalType\":\"uint256[]\",\"name\":\"amounts\",\"type\":\"uint256[]\"}],\"name\":\"batchTransfer\",\"outputs\":[{\"internalType\":\"bool\",\"name\":\"\",\"type\":\"bool\"}],\"stateMutability\":\"payable\",\"type\":\"function\"},{\"inputs\":[{\"internalType\":\"address\",\"name\":\"tokenAddress\",\"type\":\"address\"},{\"internalType\":\"address[]\",\"name\":\"recipients\",\"type\":\"address[]\"},{\"internalType\":\"uint256[]\",\"name\":\"amounts\",\"type\":\"uint256[]\"}],\"name\":\"batchTransferToken\",\"outputs\":[{\"internalType\":\"bool\",\"name\":\"\",\"type\":\"bool\"}],\"stateMutability\":\"nonpayable\",\"type\":\"function\"},{\"inputs\":[],\"name\":\"owner\",\"outputs\":[{\"internalType\":\"address\",\"name\":\"\",\"type\":\"address\"}],\"stateMutability\":\"view\",\"type\":\"function\"},{\"inputs\":[{\"internalType\":\"address\",\"name\":\"tokenAddress\",\"type\":\"address\"},{\"internalType\":\"uint256\",\"name\":\"amount\",\"type\":\"uint256\"}],\"name\":\"recoverTokens\",\"outputs\":[],\"stateMutability\":\"nonpayable\",\"type\":\"function\"},{\"inputs\":[{\"internalType\":\"address\",\"name\":\"newOwner\",\"type\":\"address\"}],\"name\":\"transferOwnership\",\"outputs\":[],\"stateMutability\":\"nonpayable\",\"type\":\"function\"},{\"stateMutability\":\"payable\",\"type\":\"receive\"}]);\nvar batchtransfer = batchtransferContract.deploy({\n     data: '0x6080604052348015600e575f5ffd5b50335f5f6101000a81548173ffffffffffffffffffffffffffffffffffffffff021916908373ffffffffffffffffffffffffffffffffffffffff1602179055506118858061005b5f395ff3fe60806040526004361061004d575f3560e01c8063069c9fae1461005857806320651d5d1461008057806388d695b2146100bc5780638da5cb5b146100ec578063f2fde38b1461011657610054565b3661005457005b5f5ffd5b348015610063575f5ffd5b5061007e60048036038101906100799190610e0b565b61013e565b005b34801561008b575f5ffd5b506100a660048036038101906100a19190610eff565b6103b1565b6040516100b39190610faa565b60405180910390f35b6100d660048036038101906100d19190610fc3565b610888565b6040516100e39190610faa565b60405180910390f35b3480156100f7575f5ffd5b50610100610c14565b60405161010d9190611050565b60405180910390f35b348015610121575f5ffd5b5061013c60048036038101906101379190611069565b610c38565b005b5f5f9054906101000a900473ffffffffffffffffffffffffffffffffffffffff1673ffffffffffffffffffffffffffffffffffffffff163373ffffffffffffffffffffffffffffffffffffffff16146101cc576040517f08c379a00000000000000000000000000000000000000000000000000000000081526004016101c390611114565b60405180910390fd5b5f73ffffffffffffffffffffffffffffffffffffffff168273ffffffffffffffffffffffffffffffffffffffff16036102cd575f5f5f9054906101000a900473ffffffffffffffffffffffffffffffffffffffff1673ffffffffffffffffffffffffffffffffffffffff16826040516102449061115f565b5f6040518083038185875af1925050503d805f811461027e576040519150601f19603f3d011682016040523d82523d5f602084013e610283565b606091505b50509050806102c7576040517f08c379a00000000000000000000000000000000000000000000000000000000081526004016102be906111bd565b60405180910390fd5b506103ad565b5f8290508073ffffffffffffffffffffffffffffffffffffffff1663a9059cbb5f5f9054906101000a900473ffffffffffffffffffffffffffffffffffffffff16846040518363ffffffff1660e01b815260040161032c9291906111ea565b6020604051808303815f875af1158015610348573d5f5f3e3d5ffd5b505050506040513d601f19601f8201168201806040525081019061036c919061123b565b6103ab576040517f08c379a00000000000000000000000000000000000000000000000000000000081526004016103a2906112b0565b60405180910390fd5b505b5050565b5f5f5f9054906101000a900473ffffffffffffffffffffffffffffffffffffffff1673ffffffffffffffffffffffffffffffffffffffff163373ffffffffffffffffffffffffffffffffffffffff1614610440576040517f08c379a000000000000000000000000000000000000000000000000000000000815260040161043790611114565b60405180910390fd5b5f85859050905083839050811461048c576040517f08c379a00000000000000000000000000000000000000000000000000000000081526004016104839061133e565b60405180910390fd5b6107d08111156104d1576040517f08c379a00000000000000000000000000000000000000000000000000000000081526004016104c8906113cc565b60405180910390fd5b5f8790505f5f90505f5f90505b8381101561051a578686828181106104f9576104f86113ea565b5b905060200201358261050b9190611444565b915080806001019150506104de565b50808273ffffffffffffffffffffffffffffffffffffffff1663dd62ed3e33306040518363ffffffff1660e01b8152600401610557929190611477565b602060405180830381865afa158015610572573d5f5f3e3d5ffd5b505050506040513d601f19601f8201168201806040525081019061059691906114b2565b10156105d7576040517f08c379a00000000000000000000000000000000000000000000000000000000081526004016105ce90611527565b60405180910390fd5b8173ffffffffffffffffffffffffffffffffffffffff166323b872dd3330846040518463ffffffff1660e01b815260040161061493929190611545565b6020604051808303815f875af1158015610630573d5f5f3e3d5ffd5b505050506040513d601f19601f82011682018060405250810190610654919061123b565b610693576040517f08c379a000000000000000000000000000000000000000000000000000000000815260040161068a906115ea565b60405180910390fd5b5f5f90505b8381101561083c575f73ffffffffffffffffffffffffffffffffffffffff168989838181106106ca576106c96113ea565b5b90506020020160208101906106df9190611069565b73ffffffffffffffffffffffffffffffffffffffff1603610735576040517f08c379a000000000000000000000000000000000000000000000000000000000815260040161072c90611678565b60405180910390fd5b8273ffffffffffffffffffffffffffffffffffffffff1663a9059cbb8a8a84818110610764576107636113ea565b5b90506020020160208101906107799190611069565b89898581811061078c5761078b6113ea565b5b905060200201356040518363ffffffff1660e01b81526004016107b09291906111ea565b6020604051808303815f875af11580156107cc573d5f5f3e3d5ffd5b505050506040513d601f19601f820116820180604052508101906107f0919061123b565b61082f576040517f08c379a0000000000000000000000000000000000000000000000000000000008152600401610826906112b0565b60405180910390fd5b8080600101915050610698565b507ff16e4d5f82c54d462ffe3d21d1d2a968d757649029d89f7253094312837a6e8b83824260405161087093929190611696565b60405180910390a16001935050505095945050505050565b5f5f5f9054906101000a900473ffffffffffffffffffffffffffffffffffffffff1673ffffffffffffffffffffffffffffffffffffffff163373ffffffffffffffffffffffffffffffffffffffff1614610917576040517f08c379a000000000000000000000000000000000000000000000000000000000815260040161090e90611114565b60405180910390fd5b5f858590509050838390508114610963576040517f08c379a000000000000000000000000000000000000000000000000000000000815260040161095a9061133e565b60405180910390fd5b6107d08111156109a8576040517f08c379a000000000000000000000000000000000000000000000000000000000815260040161099f906113cc565b60405180910390fd5b5f5f90505f5f90505b828110156109ed578585828181106109cc576109cb6113ea565b5b90506020020135826109de9190611444565b915080806001019150506109b1565b50803414610a30576040517f08c379a0000000000000000000000000000000000000000000000000000000008152600401610a279061173b565b60405180910390fd5b5f5f5f90505b83811015610bc9575f73ffffffffffffffffffffffffffffffffffffffff16898983818110610a6857610a676113ea565b5b9050602002016020810190610a7d9190611069565b73ffffffffffffffffffffffffffffffffffffffff1603610ad3576040517f08c379a0000000000000000000000000000000000000000000000000000000008152600401610aca90611678565b60405180910390fd5b888882818110610ae657610ae56113ea565b5b9050602002016020810190610afb9190611069565b73ffffffffffffffffffffffffffffffffffffffff16878783818110610b2457610b236113ea565b5b90506020020135604051610b379061115f565b5f6040518083038185875af1925050503d805f8114610b71576040519150601f19603f3d011682016040523d82523d5f602084013e610b76565b606091505b50508092505081610bbc576040517f08c379a0000000000000000000000000000000000000000000000000000000008152600401610bb3906117a3565b60405180910390fd5b8080600101915050610a36565b507ff16e4d5f82c54d462ffe3d21d1d2a968d757649029d89f7253094312837a6e8b838342604051610bfd93929190611696565b60405180910390a160019350505050949350505050565b5f5f9054906101000a900473ffffffffffffffffffffffffffffffffffffffff1681565b5f5f9054906101000a900473ffffffffffffffffffffffffffffffffffffffff1673ffffffffffffffffffffffffffffffffffffffff163373ffffffffffffffffffffffffffffffffffffffff1614610cc6576040517f08c379a0000000000000000000000000000000000000000000000000000000008152600401610cbd90611114565b60405180910390fd5b5f73ffffffffffffffffffffffffffffffffffffffff168173ffffffffffffffffffffffffffffffffffffffff1603610d34576040517f08c379a0000000000000000000000000000000000000000000000000000000008152600401610d2b90611831565b60405180910390fd5b805f5f6101000a81548173ffffffffffffffffffffffffffffffffffffffff021916908373ffffffffffffffffffffffffffffffffffffffff16021790555050565b5f5ffd5b5f5ffd5b5f73ffffffffffffffffffffffffffffffffffffffff82169050919050565b5f610da782610d7e565b9050919050565b610db781610d9d565b8114610dc1575f5ffd5b50565b5f81359050610dd281610dae565b92915050565b5f819050919050565b610dea81610dd8565b8114610df4575f5ffd5b50565b5f81359050610e0581610de1565b92915050565b5f5f60408385031215610e2157610e20610d76565b5b5f610e2e85828601610dc4565b9250506020610e3f85828601610df7565b9150509250929050565b5f5ffd5b5f5ffd5b5f5ffd5b5f5f83601f840112610e6a57610e69610e49565b5b8235905067ffffffffffffffff811115610e8757610e86610e4d565b5b602083019150836020820283011115610ea357610ea2610e51565b5b9250929050565b5f5f83601f840112610ebf57610ebe610e49565b5b8235905067ffffffffffffffff811115610edc57610edb610e4d565b5b602083019150836020820283011115610ef857610ef7610e51565b5b9250929050565b5f5f5f5f5f60608688031215610f1857610f17610d76565b5b5f610f2588828901610dc4565b955050602086013567ffffffffffffffff811115610f4657610f45610d7a565b5b610f5288828901610e55565b9450945050604086013567ffffffffffffffff811115610f7557610f74610d7a565b5b610f8188828901610eaa565b92509250509295509295909350565b5f8115159050919050565b610fa481610f90565b82525050565b5f602082019050610fbd5f830184610f9b565b92915050565b5f5f5f5f60408587031215610fdb57610fda610d76565b5b5f85013567ffffffffffffffff811115610ff857610ff7610d7a565b5b61100487828801610e55565b9450945050602085013567ffffffffffffffff81111561102757611026610d7a565b5b61103387828801610eaa565b925092505092959194509250565b61104a81610d9d565b82525050565b5f6020820190506110635f830184611041565b92915050565b5f6020828403121561107e5761107d610d76565b5b5f61108b84828501610dc4565b91505092915050565b5f82825260208201905092915050565b7f48616e7961206f776e65722079616e67206461706174206d656e67616b7365735f8201527f2066756e67736920696e69000000000000000000000000000000000000000000602082015250565b5f6110fe602b83611094565b9150611109826110a4565b604082019050919050565b5f6020820190508181035f83015261112b816110f2565b9050919050565b5f81905092915050565b50565b5f61114a5f83611132565b91506111558261113c565b5f82019050919050565b5f6111698261113f565b9150819050919050565b7f5472616e73666572206e617469766520746f6b656e20676167616c00000000005f82015250565b5f6111a7601b83611094565b91506111b282611173565b602082019050919050565b5f6020820190508181035f8301526111d48161119b565b9050919050565b6111e481610dd8565b82525050565b5f6040820190506111fd5f830185611041565b61120a60208301846111db565b9392505050565b61121a81610f90565b8114611224575f5ffd5b50565b5f8151905061123581611211565b92915050565b5f602082840312156112505761124f610d76565b5b5f61125d84828501611227565b91505092915050565b7f5472616e7366657220746f6b656e20676167616c0000000000000000000000005f82015250565b5f61129a601483611094565b91506112a582611266565b602082019050919050565b5f6020820190508181035f8301526112c78161128e565b9050919050565b7f50616e6a616e6720617272617920726563697069656e74732064616e20616d6f5f8201527f756e74732068617275732073616d610000000000000000000000000000000000602082015250565b5f611328602f83611094565b9150611333826112ce565b604082019050919050565b5f6020820190508181035f8301526113558161131c565b9050919050565b7f4d616b73696d616c203230303020616c616d61742070656e6572696d612064615f8201527f6c616d2073617475206261746368000000000000000000000000000000000000602082015250565b5f6113b6602e83611094565b91506113c18261135c565b604082019050919050565b5f6020820190508181035f8301526113e3816113aa565b9050919050565b7f4e487b71000000000000000000000000000000000000000000000000000000005f52603260045260245ffd5b7f4e487b71000000000000000000000000000000000000000000000000000000005f52601160045260245ffd5b5f61144e82610dd8565b915061145983610dd8565b925082820190508082111561147157611470611417565b5b92915050565b5f60408201905061148a5f830185611041565b6114976020830184611041565b9392505050565b5f815190506114ac81610de1565b92915050565b5f602082840312156114c7576114c6610d76565b5b5f6114d48482850161149e565b91505092915050565b7f416c6c6f77616e636520746f6b656e20746964616b2063756b757000000000005f82015250565b5f611511601b83611094565b915061151c826114dd565b602082019050919050565b5f6020820190508181035f83015261153e81611505565b9050919050565b5f6060820190506115585f830186611041565b6115656020830185611041565b61157260408301846111db565b949350505050565b7f5472616e7366657220646172692070656e676972696d206b65206b6f6e7472615f8201527f6b20676167616c00000000000000000000000000000000000000000000000000602082015250565b5f6115d4602783611094565b91506115df8261157a565b604082019050919050565b5f6020820190508181035f830152611601816115c8565b9050919050565b7f416c616d61742070656e6572696d6120746964616b20626f6c656820616c616d5f8201527f6174206e6f6c0000000000000000000000000000000000000000000000000000602082015250565b5f611662602683611094565b915061166d82611608565b604082019050919050565b5f6020820190508181035f83015261168f81611656565b9050919050565b5f6060820190506116a95f8301866111db565b6116b660208301856111db565b6116c360408301846111db565b949350505050565b7f546f74616c20616d6f756e742068617275732073616d612064656e67616e206e5f8201527f696c61692079616e672064696b6972696d000000000000000000000000000000602082015250565b5f611725603183611094565b9150611730826116cb565b604082019050919050565b5f6020820190508181035f83015261175281611719565b9050919050565b7f5472616e7366657220676167616c0000000000000000000000000000000000005f82015250565b5f61178d600e83611094565b915061179882611759565b602082019050919050565b5f6020820190508181035f8301526117ba81611781565b9050919050565b7f416c616d6174206f776e6572206261727520746964616b20626f6c656820616c5f8201527f616d6174206e6f6c000000000000000000000000000000000000000000000000602082015250565b5f61181b602883611094565b9150611826826117c1565b604082019050919050565b5f6020820190508181035f8301526118488161180f565b905091905056fea2646970667358221220bba330a36b942a63e899e406cf58e1b1a44842999d3841ceab946150588eac9864736f6c634300081c0033', \n     arguments: [\n     ]\n}).send({\n     from: web3.eth.accounts[0], \n     gas: '4700000'\n   }, function (e, contract){\n    console.log(e, contract);\n    if (typeof contract.address !== 'undefined') {\n         console.log('Contract mined! address: ' + contract.address + ' transactionHash: ' + contract.transactionHash);\n    }\n })",
	"functionHashes": {
		"88d695b2": "batchTransfer(address[],uint256[])",
		"20651d5d": "batchTransferToken(address,address[],uint256[])",
		"8da5cb5b": "owner()",
		"069c9fae": "recoverTokens(address,uint256)",
		"f2fde38b": "transferOwnership(address)"
	},
	"gasEstimates": {
		"Creation": {
			"codeDepositCost": "1255400",
			"executionCost": "25570",
			"totalCost": "1280970"
		},
		"External": {
			"batchTransfer(address[],uint256[])": "infinite",
			"batchTransferToken(address,address[],uint256[])": "infinite",
			"owner()": "2551",
			"recoverTokens(address,uint256)": "infinite",
			"transferOwnership(address)": "26982"
		}
	},
	"devdoc": {
		"details": "Smart contract untuk melakukan transfer batch ke banyak alamat sekaligus Optimal untuk jaringan assam.tea.xyz",
		"kind": "dev",
		"methods": {
			"batchTransfer(address[],uint256[])": {
				"details": "Fungsi untuk mengirim native token ke banyak alamat sekaligus",
				"params": {
					"amounts": "Array jumlah yang dikirim ke masing-masing penerima",
					"recipients": "Array alamat penerima"
				},
				"returns": {
					"_0": "status Boolean yang menunjukkan keberhasilan transaksi"
				}
			},
			"batchTransferToken(address,address[],uint256[])": {
				"details": "Fungsi untuk mengirim token ERC20 ke banyak alamat sekaligus",
				"params": {
					"amounts": "Array jumlah token yang dikirim ke masing-masing penerima",
					"recipients": "Array alamat penerima",
					"tokenAddress": "Alamat kontrak ERC20"
				},
				"returns": {
					"_0": "status Boolean yang menunjukkan keberhasilan transaksi"
				}
			},
			"recoverTokens(address,uint256)": {
				"details": "Fungsi untuk mengembalikan token yang tidak sengaja dikirim ke kontrak",
				"params": {
					"amount": "Jumlah token yang akan dikembalikan",
					"tokenAddress": "Alamat kontrak token (gunakan address(0) untuk native token)"
				}
			},
			"transferOwnership(address)": {
				"details": "Fungsi untuk mengubah owner kontrak",
				"params": {
					"newOwner": "Alamat owner baru"
				}
			}
		},
		"title": "BatchTransfer",
		"version": 1
	},
	"userdoc": {
		"kind": "user",
		"methods": {},
		"version": 1
	},
	"Runtime Bytecode": {
		"immutableReferences": {},
		"linkReferences": {},
		"object": "60806040526004361061004d575f3560e01c8063069c9fae1461005857806320651d5d1461008057806388d695b2146100bc5780638da5cb5b146100ec578063f2fde38b1461011657610054565b3661005457005b5f5ffd5b348015610063575f5ffd5b5061007e60048036038101906100799190610e0b565b61013e565b005b34801561008b575f5ffd5b506100a660048036038101906100a19190610eff565b6103b1565b6040516100b39190610faa565b60405180910390f35b6100d660048036038101906100d19190610fc3565b610888565b6040516100e39190610faa565b60405180910390f35b3480156100f7575f5ffd5b50610100610c14565b60405161010d9190611050565b60405180910390f35b348015610121575f5ffd5b5061013c60048036038101906101379190611069565b610c38565b005b5f5f9054906101000a900473ffffffffffffffffffffffffffffffffffffffff1673ffffffffffffffffffffffffffffffffffffffff163373ffffffffffffffffffffffffffffffffffffffff16146101cc576040517f08c379a00000000000000000000000000000000000000000000000000000000081526004016101c390611114565b60405180910390fd5b5f73ffffffffffffffffffffffffffffffffffffffff168273ffffffffffffffffffffffffffffffffffffffff16036102cd575f5f5f9054906101000a900473ffffffffffffffffffffffffffffffffffffffff1673ffffffffffffffffffffffffffffffffffffffff16826040516102449061115f565b5f6040518083038185875af1925050503d805f811461027e576040519150601f19603f3d011682016040523d82523d5f602084013e610283565b606091505b50509050806102c7576040517f08c379a00000000000000000000000000000000000000000000000000000000081526004016102be906111bd565b60405180910390fd5b506103ad565b5f8290508073ffffffffffffffffffffffffffffffffffffffff1663a9059cbb5f5f9054906101000a900473ffffffffffffffffffffffffffffffffffffffff16846040518363ffffffff1660e01b815260040161032c9291906111ea565b6020604051808303815f875af1158015610348573d5f5f3e3d5ffd5b505050506040513d601f19601f8201168201806040525081019061036c919061123b565b6103ab576040517f08c379a00000000000000000000000000000000000000000000000000000000081526004016103a2906112b0565b60405180910390fd5b505b5050565b5f5f5f9054906101000a900473ffffffffffffffffffffffffffffffffffffffff1673ffffffffffffffffffffffffffffffffffffffff163373ffffffffffffffffffffffffffffffffffffffff1614610440576040517f08c379a000000000000000000000000000000000000000000000000000000000815260040161043790611114565b60405180910390fd5b5f85859050905083839050811461048c576040517f08c379a00000000000000000000000000000000000000000000000000000000081526004016104839061133e565b60405180910390fd5b6107d08111156104d1576040517f08c379a00000000000000000000000000000000000000000000000000000000081526004016104c8906113cc565b60405180910390fd5b5f8790505f5f90505f5f90505b8381101561051a578686828181106104f9576104f86113ea565b5b905060200201358261050b9190611444565b915080806001019150506104de565b50808273ffffffffffffffffffffffffffffffffffffffff1663dd62ed3e33306040518363ffffffff1660e01b8152600401610557929190611477565b602060405180830381865afa158015610572573d5f5f3e3d5ffd5b505050506040513d601f19601f8201168201806040525081019061059691906114b2565b10156105d7576040517f08c379a00000000000000000000000000000000000000000000000000000000081526004016105ce90611527565b60405180910390fd5b8173ffffffffffffffffffffffffffffffffffffffff166323b872dd3330846040518463ffffffff1660e01b815260040161061493929190611545565b6020604051808303815f875af1158015610630573d5f5f3e3d5ffd5b505050506040513d601f19601f82011682018060405250810190610654919061123b565b610693576040517f08c379a000000000000000000000000000000000000000000000000000000000815260040161068a906115ea565b60405180910390fd5b5f5f90505b8381101561083c575f73ffffffffffffffffffffffffffffffffffffffff168989838181106106ca576106c96113ea565b5b90506020020160208101906106df9190611069565b73ffffffffffffffffffffffffffffffffffffffff1603610735576040517f08c379a000000000000000000000000000000000000000000000000000000000815260040161072c90611678565b60405180910390fd5b8273ffffffffffffffffffffffffffffffffffffffff1663a9059cbb8a8a84818110610764576107636113ea565b5b90506020020160208101906107799190611069565b89898581811061078c5761078b6113ea565b5b905060200201356040518363ffffffff1660e01b81526004016107b09291906111ea565b6020604051808303815f875af11580156107cc573d5f5f3e3d5ffd5b505050506040513d601f19601f820116820180604052508101906107f0919061123b565b61082f576040517f08c379a0000000000000000000000000000000000000000000000000000000008152600401610826906112b0565b60405180910390fd5b8080600101915050610698565b507ff16e4d5f82c54d462ffe3d21d1d2a968d757649029d89f7253094312837a6e8b83824260405161087093929190611696565b60405180910390a16001935050505095945050505050565b5f5f5f9054906101000a900473ffffffffffffffffffffffffffffffffffffffff1673ffffffffffffffffffffffffffffffffffffffff163373ffffffffffffffffffffffffffffffffffffffff1614610917576040517f08c379a000000000000000000000000000000000000000000000000000000000815260040161090e90611114565b60405180910390fd5b5f858590509050838390508114610963576040517f08c379a000000000000000000000000000000000000000000000000000000000815260040161095a9061133e565b60405180910390fd5b6107d08111156109a8576040517f08c379a000000000000000000000000000000000000000000000000000000000815260040161099f906113cc565b60405180910390fd5b5f5f90505f5f90505b828110156109ed578585828181106109cc576109cb6113ea565b5b90506020020135826109de9190611444565b915080806001019150506109b1565b50803414610a30576040517f08c379a0000000000000000000000000000000000000000000000000000000008152600401610a279061173b565b60405180910390fd5b5f5f5f90505b83811015610bc9575f73ffffffffffffffffffffffffffffffffffffffff16898983818110610a6857610a676113ea565b5b9050602002016020810190610a7d9190611069565b73ffffffffffffffffffffffffffffffffffffffff1603610ad3576040517f08c379a0000000000000000000000000000000000000000000000000000000008152600401610aca90611678565b60405180910390fd5b888882818110610ae657610ae56113ea565b5b9050602002016020810190610afb9190611069565b73ffffffffffffffffffffffffffffffffffffffff16878783818110610b2457610b236113ea565b5b90506020020135604051610b379061115f565b5f6040518083038185875af1925050503d805f8114610b71576040519150601f19603f3d011682016040523d82523d5f602084013e610b76565b606091505b50508092505081610bbc576040517f08c379a0000000000000000000000000000000000000000000000000000000008152600401610bb3906117a3565b60405180910390fd5b8080600101915050610a36565b507ff16e4d5f82c54d462ffe3d21d1d2a968d757649029d89f7253094312837a6e8b838342604051610bfd93929190611696565b60405180910390a160019350505050949350505050565b5f5f9054906101000a900473ffffffffffffffffffffffffffffffffffffffff1681565b5f5f9054906101000a900473ffffffffffffffffffffffffffffffffffffffff1673ffffffffffffffffffffffffffffffffffffffff163373ffffffffffffffffffffffffffffffffffffffff1614610cc6576040517f08c379a0000000000000000000000000000000000000000000000000000000008152600401610cbd90611114565b60405180910390fd5b5f73ffffffffffffffffffffffffffffffffffffffff168173ffffffffffffffffffffffffffffffffffffffff1603610d34576040517f08c379a0000000000000000000000000000000000000000000000000000000008152600401610d2b90611831565b60405180910390fd5b805f5f6101000a81548173ffffffffffffffffffffffffffffffffffffffff021916908373ffffffffffffffffffffffffffffffffffffffff16021790555050565b5f5ffd5b5f5ffd5b5f73ffffffffffffffffffffffffffffffffffffffff82169050919050565b5f610da782610d7e565b9050919050565b610db781610d9d565b8114610dc1575f5ffd5b50565b5f81359050610dd281610dae565b92915050565b5f819050919050565b610dea81610dd8565b8114610df4575f5ffd5b50565b5f81359050610e0581610de1565b92915050565b5f5f60408385031215610e2157610e20610d76565b5b5f610e2e85828601610dc4565b9250506020610e3f85828601610df7565b9150509250929050565b5f5ffd5b5f5ffd5b5f5ffd5b5f5f83601f840112610e6a57610e69610e49565b5b8235905067ffffffffffffffff811115610e8757610e86610e4d565b5b602083019150836020820283011115610ea357610ea2610e51565b5b9250929050565b5f5f83601f840112610ebf57610ebe610e49565b5b8235905067ffffffffffffffff811115610edc57610edb610e4d565b5b602083019150836020820283011115610ef857610ef7610e51565b5b9250929050565b5f5f5f5f5f60608688031215610f1857610f17610d76565b5b5f610f2588828901610dc4565b955050602086013567ffffffffffffffff811115610f4657610f45610d7a565b5b610f5288828901610e55565b9450945050604086013567ffffffffffffffff811115610f7557610f74610d7a565b5b610f8188828901610eaa565b92509250509295509295909350565b5f8115159050919050565b610fa481610f90565b82525050565b5f602082019050610fbd5f830184610f9b565b92915050565b5f5f5f5f60408587031215610fdb57610fda610d76565b5b5f85013567ffffffffffffffff811115610ff857610ff7610d7a565b5b61100487828801610e55565b9450945050602085013567ffffffffffffffff81111561102757611026610d7a565b5b61103387828801610eaa565b925092505092959194509250565b61104a81610d9d565b82525050565b5f6020820190506110635f830184611041565b92915050565b5f6020828403121561107e5761107d610d76565b5b5f61108b84828501610dc4565b91505092915050565b5f82825260208201905092915050565b7f48616e7961206f776e65722079616e67206461706174206d656e67616b7365735f8201527f2066756e67736920696e69000000000000000000000000000000000000000000602082015250565b5f6110fe602b83611094565b9150611109826110a4565b604082019050919050565b5f6020820190508181035f83015261112b816110f2565b9050919050565b5f81905092915050565b50565b5f61114a5f83611132565b91506111558261113c565b5f82019050919050565b5f6111698261113f565b9150819050919050565b7f5472616e73666572206e617469766520746f6b656e20676167616c00000000005f82015250565b5f6111a7601b83611094565b91506111b282611173565b602082019050919050565b5f6020820190508181035f8301526111d48161119b565b9050919050565b6111e481610dd8565b82525050565b5f6040820190506111fd5f830185611041565b61120a60208301846111db565b9392505050565b61121a81610f90565b8114611224575f5ffd5b50565b5f8151905061123581611211565b92915050565b5f602082840312156112505761124f610d76565b5b5f61125d84828501611227565b91505092915050565b7f5472616e7366657220746f6b656e20676167616c0000000000000000000000005f82015250565b5f61129a601483611094565b91506112a582611266565b602082019050919050565b5f6020820190508181035f8301526112c78161128e565b9050919050565b7f50616e6a616e6720617272617920726563697069656e74732064616e20616d6f5f8201527f756e74732068617275732073616d610000000000000000000000000000000000602082015250565b5f611328602f83611094565b9150611333826112ce565b604082019050919050565b5f6020820190508181035f8301526113558161131c565b9050919050565b7f4d616b73696d616c203230303020616c616d61742070656e6572696d612064615f8201527f6c616d2073617475206261746368000000000000000000000000000000000000602082015250565b5f6113b6602e83611094565b91506113c18261135c565b604082019050919050565b5f6020820190508181035f8301526113e3816113aa565b9050919050565b7f4e487b71000000000000000000000000000000000000000000000000000000005f52603260045260245ffd5b7f4e487b71000000000000000000000000000000000000000000000000000000005f52601160045260245ffd5b5f61144e82610dd8565b915061145983610dd8565b925082820190508082111561147157611470611417565b5b92915050565b5f60408201905061148a5f830185611041565b6114976020830184611041565b9392505050565b5f815190506114ac81610de1565b92915050565b5f602082840312156114c7576114c6610d76565b5b5f6114d48482850161149e565b91505092915050565b7f416c6c6f77616e636520746f6b656e20746964616b2063756b757000000000005f82015250565b5f611511601b83611094565b915061151c826114dd565b602082019050919050565b5f6020820190508181035f83015261153e81611505565b9050919050565b5f6060820190506115585f830186611041565b6115656020830185611041565b61157260408301846111db565b949350505050565b7f5472616e7366657220646172692070656e676972696d206b65206b6f6e7472615f8201527f6b20676167616c00000000000000000000000000000000000000000000000000602082015250565b5f6115d4602783611094565b91506115df8261157a565b604082019050919050565b5f6020820190508181035f830152611601816115c8565b9050919050565b7f416c616d61742070656e6572696d6120746964616b20626f6c656820616c616d5f8201527f6174206e6f6c0000000000000000000000000000000000000000000000000000602082015250565b5f611662602683611094565b915061166d82611608565b604082019050919050565b5f6020820190508181035f83015261168f81611656565b9050919050565b5f6060820190506116a95f8301866111db565b6116b660208301856111db565b6116c360408301846111db565b949350505050565b7f546f74616c20616d6f756e742068617275732073616d612064656e67616e206e5f8201527f696c61692079616e672064696b6972696d000000000000000000000000000000602082015250565b5f611725603183611094565b9150611730826116cb565b604082019050919050565b5f6020820190508181035f83015261175281611719565b9050919050565b7f5472616e7366657220676167616c0000000000000000000000000000000000005f82015250565b5f61178d600e83611094565b915061179882611759565b602082019050919050565b5f6020820190508181035f8301526117ba81611781565b9050919050565b7f416c616d6174206f776e6572206261727520746964616b20626f6c656820616c5f8201527f616d6174206e6f6c000000000000000000000000000000000000000000000000602082015250565b5f61181b602883611094565b9150611826826117c1565b604082019050919050565b5f6020820190508181035f8301526118488161180f565b905091905056fea2646970667358221220bba330a36b942a63e899e406cf58e1b1a44842999d3841ceab946150588eac9864736f6c634300081c0033",
		"opcodes": "PUSH1 0x80 PUSH1 0x40 MSTORE PUSH1 0x4 CALLDATASIZE LT PUSH2 0x4D JUMPI PUSH0 CALLDATALOAD PUSH1 0xE0 SHR DUP1 PUSH4 0x69C9FAE EQ PUSH2 0x58 JUMPI DUP1 PUSH4 0x20651D5D EQ PUSH2 0x80 JUMPI DUP1 PUSH4 0x88D695B2 EQ PUSH2 0xBC JUMPI DUP1 PUSH4 0x8DA5CB5B EQ PUSH2 0xEC JUMPI DUP1 PUSH4 0xF2FDE38B EQ PUSH2 0x116 JUMPI PUSH2 0x54 JUMP JUMPDEST CALLDATASIZE PUSH2 0x54 JUMPI STOP JUMPDEST PUSH0 PUSH0 REVERT JUMPDEST CALLVALUE DUP1 ISZERO PUSH2 0x63 JUMPI PUSH0 PUSH0 REVERT JUMPDEST POP PUSH2 0x7E PUSH1 0x4 DUP1 CALLDATASIZE SUB DUP2 ADD SWAP1 PUSH2 0x79 SWAP2 SWAP1 PUSH2 0xE0B JUMP JUMPDEST PUSH2 0x13E JUMP JUMPDEST STOP JUMPDEST CALLVALUE DUP1 ISZERO PUSH2 0x8B JUMPI PUSH0 PUSH0 REVERT JUMPDEST POP PUSH2 0xA6 PUSH1 0x4 DUP1 CALLDATASIZE SUB DUP2 ADD SWAP1 PUSH2 0xA1 SWAP2 SWAP1 PUSH2 0xEFF JUMP JUMPDEST PUSH2 0x3B1 JUMP JUMPDEST PUSH1 0x40 MLOAD PUSH2 0xB3 SWAP2 SWAP1 PUSH2 0xFAA JUMP JUMPDEST PUSH1 0x40 MLOAD DUP1 SWAP2 SUB SWAP1 RETURN JUMPDEST PUSH2 0xD6 PUSH1 0x4 DUP1 CALLDATASIZE SUB DUP2 ADD SWAP1 PUSH2 0xD1 SWAP2 SWAP1 PUSH2 0xFC3 JUMP JUMPDEST PUSH2 0x888 JUMP JUMPDEST PUSH1 0x40 MLOAD PUSH2 0xE3 SWAP2 SWAP1 PUSH2 0xFAA JUMP JUMPDEST PUSH1 0x40 MLOAD DUP1 SWAP2 SUB SWAP1 RETURN JUMPDEST CALLVALUE DUP1 ISZERO PUSH2 0xF7 JUMPI PUSH0 PUSH0 REVERT JUMPDEST POP PUSH2 0x100 PUSH2 0xC14 JUMP JUMPDEST PUSH1 0x40 MLOAD PUSH2 0x10D SWAP2 SWAP1 PUSH2 0x1050 JUMP JUMPDEST PUSH1 0x40 MLOAD DUP1 SWAP2 SUB SWAP1 RETURN JUMPDEST CALLVALUE DUP1 ISZERO PUSH2 0x121 JUMPI PUSH0 PUSH0 REVERT JUMPDEST POP PUSH2 0x13C PUSH1 0x4 DUP1 CALLDATASIZE SUB DUP2 ADD SWAP1 PUSH2 0x137 SWAP2 SWAP1 PUSH2 0x1069 JUMP JUMPDEST PUSH2 0xC38 JUMP JUMPDEST STOP JUMPDEST PUSH0 PUSH0 SWAP1 SLOAD SWAP1 PUSH2 0x100 EXP SWAP1 DIV PUSH20 0xFFFFFFFFFFFFFFFFFFFFFFFFFFFFFFFFFFFFFFFF AND PUSH20 0xFFFFFFFFFFFFFFFFFFFFFFFFFFFFFFFFFFFFFFFF AND CALLER PUSH20 0xFFFFFFFFFFFFFFFFFFFFFFFFFFFFFFFFFFFFFFFF AND EQ PUSH2 0x1CC JUMPI PUSH1 0x40 MLOAD PUSH32 0x8C379A000000000000000000000000000000000000000000000000000000000 DUP2 MSTORE PUSH1 0x4 ADD PUSH2 0x1C3 SWAP1 PUSH2 0x1114 JUMP JUMPDEST PUSH1 0x40 MLOAD DUP1 SWAP2 SUB SWAP1 REVERT JUMPDEST PUSH0 PUSH20 0xFFFFFFFFFFFFFFFFFFFFFFFFFFFFFFFFFFFFFFFF AND DUP3 PUSH20 0xFFFFFFFFFFFFFFFFFFFFFFFFFFFFFFFFFFFFFFFF AND SUB PUSH2 0x2CD JUMPI PUSH0 PUSH0 PUSH0 SWAP1 SLOAD SWAP1 PUSH2 0x100 EXP SWAP1 DIV PUSH20 0xFFFFFFFFFFFFFFFFFFFFFFFFFFFFFFFFFFFFFFFF AND PUSH20 0xFFFFFFFFFFFFFFFFFFFFFFFFFFFFFFFFFFFFFFFF AND DUP3 PUSH1 0x40 MLOAD PUSH2 0x244 SWAP1 PUSH2 0x115F JUMP JUMPDEST PUSH0 PUSH1 0x40 MLOAD DUP1 DUP4 SUB DUP2 DUP6 DUP8 GAS CALL SWAP3 POP POP POP RETURNDATASIZE DUP1 PUSH0 DUP2 EQ PUSH2 0x27E JUMPI PUSH1 0x40 MLOAD SWAP2 POP PUSH1 0x1F NOT PUSH1 0x3F RETURNDATASIZE ADD AND DUP3 ADD PUSH1 0x40 MSTORE RETURNDATASIZE DUP3 MSTORE RETURNDATASIZE PUSH0 PUSH1 0x20 DUP5 ADD RETURNDATACOPY PUSH2 0x283 JUMP JUMPDEST PUSH1 0x60 SWAP2 POP JUMPDEST POP POP SWAP1 POP DUP1 PUSH2 0x2C7 JUMPI PUSH1 0x40 MLOAD PUSH32 0x8C379A000000000000000000000000000000000000000000000000000000000 DUP2 MSTORE PUSH1 0x4 ADD PUSH2 0x2BE SWAP1 PUSH2 0x11BD JUMP JUMPDEST PUSH1 0x40 MLOAD DUP1 SWAP2 SUB SWAP1 REVERT JUMPDEST POP PUSH2 0x3AD JUMP JUMPDEST PUSH0 DUP3 SWAP1 POP DUP1 PUSH20 0xFFFFFFFFFFFFFFFFFFFFFFFFFFFFFFFFFFFFFFFF AND PUSH4 0xA9059CBB PUSH0 PUSH0 SWAP1 SLOAD SWAP1 PUSH2 0x100 EXP SWAP1 DIV PUSH20 0xFFFFFFFFFFFFFFFFFFFFFFFFFFFFFFFFFFFFFFFF AND DUP5 PUSH1 0x40 MLOAD DUP4 PUSH4 0xFFFFFFFF AND PUSH1 0xE0 SHL DUP2 MSTORE PUSH1 0x4 ADD PUSH2 0x32C SWAP3 SWAP2 SWAP1 PUSH2 0x11EA JUMP JUMPDEST PUSH1 0x20 PUSH1 0x40 MLOAD DUP1 DUP4 SUB DUP2 PUSH0 DUP8 GAS CALL ISZERO DUP1 ISZERO PUSH2 0x348 JUMPI RETURNDATASIZE PUSH0 PUSH0 RETURNDATACOPY RETURNDATASIZE PUSH0 REVERT JUMPDEST POP POP POP POP PUSH1 0x40 MLOAD RETURNDATASIZE PUSH1 0x1F NOT PUSH1 0x1F DUP3 ADD AND DUP3 ADD DUP1 PUSH1 0x40 MSTORE POP DUP2 ADD SWAP1 PUSH2 0x36C SWAP2 SWAP1 PUSH2 0x123B JUMP JUMPDEST PUSH2 0x3AB JUMPI PUSH1 0x40 MLOAD PUSH32 0x8C379A000000000000000000000000000000000000000000000000000000000 DUP2 MSTORE PUSH1 0x4 ADD PUSH2 0x3A2 SWAP1 PUSH2 0x12B0 JUMP JUMPDEST PUSH1 0x40 MLOAD DUP1 SWAP2 SUB SWAP1 REVERT JUMPDEST POP JUMPDEST POP POP JUMP JUMPDEST PUSH0 PUSH0 PUSH0 SWAP1 SLOAD SWAP1 PUSH2 0x100 EXP SWAP1 DIV PUSH20 0xFFFFFFFFFFFFFFFFFFFFFFFFFFFFFFFFFFFFFFFF AND PUSH20 0xFFFFFFFFFFFFFFFFFFFFFFFFFFFFFFFFFFFFFFFF AND CALLER PUSH20 0xFFFFFFFFFFFFFFFFFFFFFFFFFFFFFFFFFFFFFFFF AND EQ PUSH2 0x440 JUMPI PUSH1 0x40 MLOAD PUSH32 0x8C379A000000000000000000000000000000000000000000000000000000000 DUP2 MSTORE PUSH1 0x4 ADD PUSH2 0x437 SWAP1 PUSH2 0x1114 JUMP JUMPDEST PUSH1 0x40 MLOAD DUP1 SWAP2 SUB SWAP1 REVERT JUMPDEST PUSH0 DUP6 DUP6 SWAP1 POP SWAP1 POP DUP4 DUP4 SWAP1 POP DUP2 EQ PUSH2 0x48C JUMPI PUSH1 0x40 MLOAD PUSH32 0x8C379A000000000000000000000000000000000000000000000000000000000 DUP2 MSTORE PUSH1 0x4 ADD PUSH2 0x483 SWAP1 PUSH2 0x133E JUMP JUMPDEST PUSH1 0x40 MLOAD DUP1 SWAP2 SUB SWAP1 REVERT JUMPDEST PUSH2 0x7D0 DUP2 GT ISZERO PUSH2 0x4D1 JUMPI PUSH1 0x40 MLOAD PUSH32 0x8C379A000000000000000000000000000000000000000000000000000000000 DUP2 MSTORE PUSH1 0x4 ADD PUSH2 0x4C8 SWAP1 PUSH2 0x13CC JUMP JUMPDEST PUSH1 0x40 MLOAD DUP1 SWAP2 SUB SWAP1 REVERT JUMPDEST PUSH0 DUP8 SWAP1 POP PUSH0 PUSH0 SWAP1 POP PUSH0 PUSH0 SWAP1 POP JUMPDEST DUP4 DUP2 LT ISZERO PUSH2 0x51A JUMPI DUP7 DUP7 DUP3 DUP2 DUP2 LT PUSH2 0x4F9 JUMPI PUSH2 0x4F8 PUSH2 0x13EA JUMP JUMPDEST JUMPDEST SWAP1 POP PUSH1 0x20 MUL ADD CALLDATALOAD DUP3 PUSH2 0x50B SWAP2 SWAP1 PUSH2 0x1444 JUMP JUMPDEST SWAP2 POP DUP1 DUP1 PUSH1 0x1 ADD SWAP2 POP POP PUSH2 0x4DE JUMP JUMPDEST POP DUP1 DUP3 PUSH20 0xFFFFFFFFFFFFFFFFFFFFFFFFFFFFFFFFFFFFFFFF AND PUSH4 0xDD62ED3E CALLER ADDRESS PUSH1 0x40 MLOAD DUP4 PUSH4 0xFFFFFFFF AND PUSH1 0xE0 SHL DUP2 MSTORE PUSH1 0x4 ADD PUSH2 0x557 SWAP3 SWAP2 SWAP1 PUSH2 0x1477 JUMP JUMPDEST PUSH1 0x20 PUSH1 0x40 MLOAD DUP1 DUP4 SUB DUP2 DUP7 GAS STATICCALL ISZERO DUP1 ISZERO PUSH2 0x572 JUMPI RETURNDATASIZE PUSH0 PUSH0 RETURNDATACOPY RETURNDATASIZE PUSH0 REVERT JUMPDEST POP POP POP POP PUSH1 0x40 MLOAD RETURNDATASIZE PUSH1 0x1F NOT PUSH1 0x1F DUP3 ADD AND DUP3 ADD DUP1 PUSH1 0x40 MSTORE POP DUP2 ADD SWAP1 PUSH2 0x596 SWAP2 SWAP1 PUSH2 0x14B2 JUMP JUMPDEST LT ISZERO PUSH2 0x5D7 JUMPI PUSH1 0x40 MLOAD PUSH32 0x8C379A000000000000000000000000000000000000000000000000000000000 DUP2 MSTORE PUSH1 0x4 ADD PUSH2 0x5CE SWAP1 PUSH2 0x1527 JUMP JUMPDEST PUSH1 0x40 MLOAD DUP1 SWAP2 SUB SWAP1 REVERT JUMPDEST DUP2 PUSH20 0xFFFFFFFFFFFFFFFFFFFFFFFFFFFFFFFFFFFFFFFF AND PUSH4 0x23B872DD CALLER ADDRESS DUP5 PUSH1 0x40 MLOAD DUP5 PUSH4 0xFFFFFFFF AND PUSH1 0xE0 SHL DUP2 MSTORE PUSH1 0x4 ADD PUSH2 0x614 SWAP4 SWAP3 SWAP2 SWAP1 PUSH2 0x1545 JUMP JUMPDEST PUSH1 0x20 PUSH1 0x40 MLOAD DUP1 DUP4 SUB DUP2 PUSH0 DUP8 GAS CALL ISZERO DUP1 ISZERO PUSH2 0x630 JUMPI RETURNDATASIZE PUSH0 PUSH0 RETURNDATACOPY RETURNDATASIZE PUSH0 REVERT JUMPDEST POP POP POP POP PUSH1 0x40 MLOAD RETURNDATASIZE PUSH1 0x1F NOT PUSH1 0x1F DUP3 ADD AND DUP3 ADD DUP1 PUSH1 0x40 MSTORE POP DUP2 ADD SWAP1 PUSH2 0x654 SWAP2 SWAP1 PUSH2 0x123B JUMP JUMPDEST PUSH2 0x693 JUMPI PUSH1 0x40 MLOAD PUSH32 0x8C379A000000000000000000000000000000000000000000000000000000000 DUP2 MSTORE PUSH1 0x4 ADD PUSH2 0x68A SWAP1 PUSH2 0x15EA JUMP JUMPDEST PUSH1 0x40 MLOAD DUP1 SWAP2 SUB SWAP1 REVERT JUMPDEST PUSH0 PUSH0 SWAP1 POP JUMPDEST DUP4 DUP2 LT ISZERO PUSH2 0x83C JUMPI PUSH0 PUSH20 0xFFFFFFFFFFFFFFFFFFFFFFFFFFFFFFFFFFFFFFFF AND DUP10 DUP10 DUP4 DUP2 DUP2 LT PUSH2 0x6CA JUMPI PUSH2 0x6C9 PUSH2 0x13EA JUMP JUMPDEST JUMPDEST SWAP1 POP PUSH1 0x20 MUL ADD PUSH1 0x20 DUP2 ADD SWAP1 PUSH2 0x6DF SWAP2 SWAP1 PUSH2 0x1069 JUMP JUMPDEST PUSH20 0xFFFFFFFFFFFFFFFFFFFFFFFFFFFFFFFFFFFFFFFF AND SUB PUSH2 0x735 JUMPI PUSH1 0x40 MLOAD PUSH32 0x8C379A000000000000000000000000000000000000000000000000000000000 DUP2 MSTORE PUSH1 0x4 ADD PUSH2 0x72C SWAP1 PUSH2 0x1678 JUMP JUMPDEST PUSH1 0x40 MLOAD DUP1 SWAP2 SUB SWAP1 REVERT JUMPDEST DUP3 PUSH20 0xFFFFFFFFFFFFFFFFFFFFFFFFFFFFFFFFFFFFFFFF AND PUSH4 0xA9059CBB DUP11 DUP11 DUP5 DUP2 DUP2 LT PUSH2 0x764 JUMPI PUSH2 0x763 PUSH2 0x13EA JUMP JUMPDEST JUMPDEST SWAP1 POP PUSH1 0x20 MUL ADD PUSH1 0x20 DUP2 ADD SWAP1 PUSH2 0x779 SWAP2 SWAP1 PUSH2 0x1069 JUMP JUMPDEST DUP10 DUP10 DUP6 DUP2 DUP2 LT PUSH2 0x78C JUMPI PUSH2 0x78B PUSH2 0x13EA JUMP JUMPDEST JUMPDEST SWAP1 POP PUSH1 0x20 MUL ADD CALLDATALOAD PUSH1 0x40 MLOAD DUP4 PUSH4 0xFFFFFFFF AND PUSH1 0xE0 SHL DUP2 MSTORE PUSH1 0x4 ADD PUSH2 0x7B0 SWAP3 SWAP2 SWAP1 PUSH2 0x11EA JUMP JUMPDEST PUSH1 0x20 PUSH1 0x40 MLOAD DUP1 DUP4 SUB DUP2 PUSH0 DUP8 GAS CALL ISZERO DUP1 ISZERO PUSH2 0x7CC JUMPI RETURNDATASIZE PUSH0 PUSH0 RETURNDATACOPY RETURNDATASIZE PUSH0 REVERT JUMPDEST POP POP POP POP PUSH1 0x40 MLOAD RETURNDATASIZE PUSH1 0x1F NOT PUSH1 0x1F DUP3 ADD AND DUP3 ADD DUP1 PUSH1 0x40 MSTORE POP DUP2 ADD SWAP1 PUSH2 0x7F0 SWAP2 SWAP1 PUSH2 0x123B JUMP JUMPDEST PUSH2 0x82F JUMPI PUSH1 0x40 MLOAD PUSH32 0x8C379A000000000000000000000000000000000000000000000000000000000 DUP2 MSTORE PUSH1 0x4 ADD PUSH2 0x826 SWAP1 PUSH2 0x12B0 JUMP JUMPDEST PUSH1 0x40 MLOAD DUP1 SWAP2 SUB SWAP1 REVERT JUMPDEST DUP1 DUP1 PUSH1 0x1 ADD SWAP2 POP POP PUSH2 0x698 JUMP JUMPDEST POP PUSH32 0xF16E4D5F82C54D462FFE3D21D1D2A968D757649029D89F7253094312837A6E8B DUP4 DUP3 TIMESTAMP PUSH1 0x40 MLOAD PUSH2 0x870 SWAP4 SWAP3 SWAP2 SWAP1 PUSH2 0x1696 JUMP JUMPDEST PUSH1 0x40 MLOAD DUP1 SWAP2 SUB SWAP1 LOG1 PUSH1 0x1 SWAP4 POP POP POP POP SWAP6 SWAP5 POP POP POP POP POP JUMP JUMPDEST PUSH0 PUSH0 PUSH0 SWAP1 SLOAD SWAP1 PUSH2 0x100 EXP SWAP1 DIV PUSH20 0xFFFFFFFFFFFFFFFFFFFFFFFFFFFFFFFFFFFFFFFF AND PUSH20 0xFFFFFFFFFFFFFFFFFFFFFFFFFFFFFFFFFFFFFFFF AND CALLER PUSH20 0xFFFFFFFFFFFFFFFFFFFFFFFFFFFFFFFFFFFFFFFF AND EQ PUSH2 0x917 JUMPI PUSH1 0x40 MLOAD PUSH32 0x8C379A000000000000000000000000000000000000000000000000000000000 DUP2 MSTORE PUSH1 0x4 ADD PUSH2 0x90E SWAP1 PUSH2 0x1114 JUMP JUMPDEST PUSH1 0x40 MLOAD DUP1 SWAP2 SUB SWAP1 REVERT JUMPDEST PUSH0 DUP6 DUP6 SWAP1 POP SWAP1 POP DUP4 DUP4 SWAP1 POP DUP2 EQ PUSH2 0x963 JUMPI PUSH1 0x40 MLOAD PUSH32 0x8C379A000000000000000000000000000000000000000000000000000000000 DUP2 MSTORE PUSH1 0x4 ADD PUSH2 0x95A SWAP1 PUSH2 0x133E JUMP JUMPDEST PUSH1 0x40 MLOAD DUP1 SWAP2 SUB SWAP1 REVERT JUMPDEST PUSH2 0x7D0 DUP2 GT ISZERO PUSH2 0x9A8 JUMPI PUSH1 0x40 MLOAD PUSH32 0x8C379A000000000000000000000000000000000000000000000000000000000 DUP2 MSTORE PUSH1 0x4 ADD PUSH2 0x99F SWAP1 PUSH2 0x13CC JUMP JUMPDEST PUSH1 0x40 MLOAD DUP1 SWAP2 SUB SWAP1 REVERT JUMPDEST PUSH0 PUSH0 SWAP1 POP PUSH0 PUSH0 SWAP1 POP JUMPDEST DUP3 DUP2 LT ISZERO PUSH2 0x9ED JUMPI DUP6 DUP6 DUP3 DUP2 DUP2 LT PUSH2 0x9CC JUMPI PUSH2 0x9CB PUSH2 0x13EA JUMP JUMPDEST JUMPDEST SWAP1 POP PUSH1 0x20 MUL ADD CALLDATALOAD DUP3 PUSH2 0x9DE SWAP2 SWAP1 PUSH2 0x1444 JUMP JUMPDEST SWAP2 POP DUP1 DUP1 PUSH1 0x1 ADD SWAP2 POP POP PUSH2 0x9B1 JUMP JUMPDEST POP DUP1 CALLVALUE EQ PUSH2 0xA30 JUMPI PUSH1 0x40 MLOAD PUSH32 0x8C379A000000000000000000000000000000000000000000000000000000000 DUP2 MSTORE PUSH1 0x4 ADD PUSH2 0xA27 SWAP1 PUSH2 0x173B JUMP JUMPDEST PUSH1 0x40 MLOAD DUP1 SWAP2 SUB SWAP1 REVERT JUMPDEST PUSH0 PUSH0 PUSH0 SWAP1 POP JUMPDEST DUP4 DUP2 LT ISZERO PUSH2 0xBC9 JUMPI PUSH0 PUSH20 0xFFFFFFFFFFFFFFFFFFFFFFFFFFFFFFFFFFFFFFFF AND DUP10 DUP10 DUP4 DUP2 DUP2 LT PUSH2 0xA68 JUMPI PUSH2 0xA67 PUSH2 0x13EA JUMP JUMPDEST JUMPDEST SWAP1 POP PUSH1 0x20 MUL ADD PUSH1 0x20 DUP2 ADD SWAP1 PUSH2 0xA7D SWAP2 SWAP1 PUSH2 0x1069 JUMP JUMPDEST PUSH20 0xFFFFFFFFFFFFFFFFFFFFFFFFFFFFFFFFFFFFFFFF AND SUB PUSH2 0xAD3 JUMPI PUSH1 0x40 MLOAD PUSH32 0x8C379A000000000000000000000000000000000000000000000000000000000 DUP2 MSTORE PUSH1 0x4 ADD PUSH2 0xACA SWAP1 PUSH2 0x1678 JUMP JUMPDEST PUSH1 0x40 MLOAD DUP1 SWAP2 SUB SWAP1 REVERT JUMPDEST DUP9 DUP9 DUP3 DUP2 DUP2 LT PUSH2 0xAE6 JUMPI PUSH2 0xAE5 PUSH2 0x13EA JUMP JUMPDEST JUMPDEST SWAP1 POP PUSH1 0x20 MUL ADD PUSH1 0x20 DUP2 ADD SWAP1 PUSH2 0xAFB SWAP2 SWAP1 PUSH2 0x1069 JUMP JUMPDEST PUSH20 0xFFFFFFFFFFFFFFFFFFFFFFFFFFFFFFFFFFFFFFFF AND DUP8 DUP8 DUP4 DUP2 DUP2 LT PUSH2 0xB24 JUMPI PUSH2 0xB23 PUSH2 0x13EA JUMP JUMPDEST JUMPDEST SWAP1 POP PUSH1 0x20 MUL ADD CALLDATALOAD PUSH1 0x40 MLOAD PUSH2 0xB37 SWAP1 PUSH2 0x115F JUMP JUMPDEST PUSH0 PUSH1 0x40 MLOAD DUP1 DUP4 SUB DUP2 DUP6 DUP8 GAS CALL SWAP3 POP POP POP RETURNDATASIZE DUP1 PUSH0 DUP2 EQ PUSH2 0xB71 JUMPI PUSH1 0x40 MLOAD SWAP2 POP PUSH1 0x1F NOT PUSH1 0x3F RETURNDATASIZE ADD AND DUP3 ADD PUSH1 0x40 MSTORE RETURNDATASIZE DUP3 MSTORE RETURNDATASIZE PUSH0 PUSH1 0x20 DUP5 ADD RETURNDATACOPY PUSH2 0xB76 JUMP JUMPDEST PUSH1 0x60 SWAP2 POP JUMPDEST POP POP DUP1 SWAP3 POP POP DUP2 PUSH2 0xBBC JUMPI PUSH1 0x40 MLOAD PUSH32 0x8C379A000000000000000000000000000000000000000000000000000000000 DUP2 MSTORE PUSH1 0x4 ADD PUSH2 0xBB3 SWAP1 PUSH2 0x17A3 JUMP JUMPDEST PUSH1 0x40 MLOAD DUP1 SWAP2 SUB SWAP1 REVERT JUMPDEST DUP1 DUP1 PUSH1 0x1 ADD SWAP2 POP POP PUSH2 0xA36 JUMP JUMPDEST POP PUSH32 0xF16E4D5F82C54D462FFE3D21D1D2A968D757649029D89F7253094312837A6E8B DUP4 DUP4 TIMESTAMP PUSH1 0x40 MLOAD PUSH2 0xBFD SWAP4 SWAP3 SWAP2 SWAP1 PUSH2 0x1696 JUMP JUMPDEST PUSH1 0x40 MLOAD DUP1 SWAP2 SUB SWAP1 LOG1 PUSH1 0x1 SWAP4 POP POP POP POP SWAP5 SWAP4 POP POP POP POP JUMP JUMPDEST PUSH0 PUSH0 SWAP1 SLOAD SWAP1 PUSH2 0x100 EXP SWAP1 DIV PUSH20 0xFFFFFFFFFFFFFFFFFFFFFFFFFFFFFFFFFFFFFFFF AND DUP2 JUMP JUMPDEST PUSH0 PUSH0 SWAP1 SLOAD SWAP1 PUSH2 0x100 EXP SWAP1 DIV PUSH20 0xFFFFFFFFFFFFFFFFFFFFFFFFFFFFFFFFFFFFFFFF AND PUSH20 0xFFFFFFFFFFFFFFFFFFFFFFFFFFFFFFFFFFFFFFFF AND CALLER PUSH20 0xFFFFFFFFFFFFFFFFFFFFFFFFFFFFFFFFFFFFFFFF AND EQ PUSH2 0xCC6 JUMPI PUSH1 0x40 MLOAD PUSH32 0x8C379A000000000000000000000000000000000000000000000000000000000 DUP2 MSTORE PUSH1 0x4 ADD PUSH2 0xCBD SWAP1 PUSH2 0x1114 JUMP JUMPDEST PUSH1 0x40 MLOAD DUP1 SWAP2 SUB SWAP1 REVERT JUMPDEST PUSH0 PUSH20 0xFFFFFFFFFFFFFFFFFFFFFFFFFFFFFFFFFFFFFFFF AND DUP2 PUSH20 0xFFFFFFFFFFFFFFFFFFFFFFFFFFFFFFFFFFFFFFFF AND SUB PUSH2 0xD34 JUMPI PUSH1 0x40 MLOAD PUSH32 0x8C379A000000000000000000000000000000000000000000000000000000000 DUP2 MSTORE PUSH1 0x4 ADD PUSH2 0xD2B SWAP1 PUSH2 0x1831 JUMP JUMPDEST PUSH1 0x40 MLOAD DUP1 SWAP2 SUB SWAP1 REVERT JUMPDEST DUP1 PUSH0 PUSH0 PUSH2 0x100 EXP DUP2 SLOAD DUP2 PUSH20 0xFFFFFFFFFFFFFFFFFFFFFFFFFFFFFFFFFFFFFFFF MUL NOT AND SWAP1 DUP4 PUSH20 0xFFFFFFFFFFFFFFFFFFFFFFFFFFFFFFFFFFFFFFFF AND MUL OR SWAP1 SSTORE POP POP JUMP JUMPDEST PUSH0 PUSH0 REVERT JUMPDEST PUSH0 PUSH0 REVERT JUMPDEST PUSH0 PUSH20 0xFFFFFFFFFFFFFFFFFFFFFFFFFFFFFFFFFFFFFFFF DUP3 AND SWAP1 POP SWAP2 SWAP1 POP JUMP JUMPDEST PUSH0 PUSH2 0xDA7 DUP3 PUSH2 0xD7E JUMP JUMPDEST SWAP1 POP SWAP2 SWAP1 POP JUMP JUMPDEST PUSH2 0xDB7 DUP2 PUSH2 0xD9D JUMP JUMPDEST DUP2 EQ PUSH2 0xDC1 JUMPI PUSH0 PUSH0 REVERT JUMPDEST POP JUMP JUMPDEST PUSH0 DUP2 CALLDATALOAD SWAP1 POP PUSH2 0xDD2 DUP2 PUSH2 0xDAE JUMP JUMPDEST SWAP3 SWAP2 POP POP JUMP JUMPDEST PUSH0 DUP2 SWAP1 POP SWAP2 SWAP1 POP JUMP JUMPDEST PUSH2 0xDEA DUP2 PUSH2 0xDD8 JUMP JUMPDEST DUP2 EQ PUSH2 0xDF4 JUMPI PUSH0 PUSH0 REVERT JUMPDEST POP JUMP JUMPDEST PUSH0 DUP2 CALLDATALOAD SWAP1 POP PUSH2 0xE05 DUP2 PUSH2 0xDE1 JUMP JUMPDEST SWAP3 SWAP2 POP POP JUMP JUMPDEST PUSH0 PUSH0 PUSH1 0x40 DUP4 DUP6 SUB SLT ISZERO PUSH2 0xE21 JUMPI PUSH2 0xE20 PUSH2 0xD76 JUMP JUMPDEST JUMPDEST PUSH0 PUSH2 0xE2E DUP6 DUP3 DUP7 ADD PUSH2 0xDC4 JUMP JUMPDEST SWAP3 POP POP PUSH1 0x20 PUSH2 0xE3F DUP6 DUP3 DUP7 ADD PUSH2 0xDF7 JUMP JUMPDEST SWAP2 POP POP SWAP3 POP SWAP3 SWAP1 POP JUMP JUMPDEST PUSH0 PUSH0 REVERT JUMPDEST PUSH0 PUSH0 REVERT JUMPDEST PUSH0 PUSH0 REVERT JUMPDEST PUSH0 PUSH0 DUP4 PUSH1 0x1F DUP5 ADD SLT PUSH2 0xE6A JUMPI PUSH2 0xE69 PUSH2 0xE49 JUMP JUMPDEST JUMPDEST DUP3 CALLDATALOAD SWAP1 POP PUSH8 0xFFFFFFFFFFFFFFFF DUP2 GT ISZERO PUSH2 0xE87 JUMPI PUSH2 0xE86 PUSH2 0xE4D JUMP JUMPDEST JUMPDEST PUSH1 0x20 DUP4 ADD SWAP2 POP DUP4 PUSH1 0x20 DUP3 MUL DUP4 ADD GT ISZERO PUSH2 0xEA3 JUMPI PUSH2 0xEA2 PUSH2 0xE51 JUMP JUMPDEST JUMPDEST SWAP3 POP SWAP3 SWAP1 POP JUMP JUMPDEST PUSH0 PUSH0 DUP4 PUSH1 0x1F DUP5 ADD SLT PUSH2 0xEBF JUMPI PUSH2 0xEBE PUSH2 0xE49 JUMP JUMPDEST JUMPDEST DUP3 CALLDATALOAD SWAP1 POP PUSH8 0xFFFFFFFFFFFFFFFF DUP2 GT ISZERO PUSH2 0xEDC JUMPI PUSH2 0xEDB PUSH2 0xE4D JUMP JUMPDEST JUMPDEST PUSH1 0x20 DUP4 ADD SWAP2 POP DUP4 PUSH1 0x20 DUP3 MUL DUP4 ADD GT ISZERO PUSH2 0xEF8 JUMPI PUSH2 0xEF7 PUSH2 0xE51 JUMP JUMPDEST JUMPDEST SWAP3 POP SWAP3 SWAP1 POP JUMP JUMPDEST PUSH0 PUSH0 PUSH0 PUSH0 PUSH0 PUSH1 0x60 DUP7 DUP9 SUB SLT ISZERO PUSH2 0xF18 JUMPI PUSH2 0xF17 PUSH2 0xD76 JUMP JUMPDEST JUMPDEST PUSH0 PUSH2 0xF25 DUP9 DUP3 DUP10 ADD PUSH2 0xDC4 JUMP JUMPDEST SWAP6 POP POP PUSH1 0x20 DUP7 ADD CALLDATALOAD PUSH8 0xFFFFFFFFFFFFFFFF DUP2 GT ISZERO PUSH2 0xF46 JUMPI PUSH2 0xF45 PUSH2 0xD7A JUMP JUMPDEST JUMPDEST PUSH2 0xF52 DUP9 DUP3 DUP10 ADD PUSH2 0xE55 JUMP JUMPDEST SWAP5 POP SWAP5 POP POP PUSH1 0x40 DUP7 ADD CALLDATALOAD PUSH8 0xFFFFFFFFFFFFFFFF DUP2 GT ISZERO PUSH2 0xF75 JUMPI PUSH2 0xF74 PUSH2 0xD7A JUMP JUMPDEST JUMPDEST PUSH2 0xF81 DUP9 DUP3 DUP10 ADD PUSH2 0xEAA JUMP JUMPDEST SWAP3 POP SWAP3 POP POP SWAP3 SWAP6 POP SWAP3 SWAP6 SWAP1 SWAP4 POP JUMP JUMPDEST PUSH0 DUP2 ISZERO ISZERO SWAP1 POP SWAP2 SWAP1 POP JUMP JUMPDEST PUSH2 0xFA4 DUP2 PUSH2 0xF90 JUMP JUMPDEST DUP3 MSTORE POP POP JUMP JUMPDEST PUSH0 PUSH1 0x20 DUP3 ADD SWAP1 POP PUSH2 0xFBD PUSH0 DUP4 ADD DUP5 PUSH2 0xF9B JUMP JUMPDEST SWAP3 SWAP2 POP POP JUMP JUMPDEST PUSH0 PUSH0 PUSH0 PUSH0 PUSH1 0x40 DUP6 DUP8 SUB SLT ISZERO PUSH2 0xFDB JUMPI PUSH2 0xFDA PUSH2 0xD76 JUMP JUMPDEST JUMPDEST PUSH0 DUP6 ADD CALLDATALOAD PUSH8 0xFFFFFFFFFFFFFFFF DUP2 GT ISZERO PUSH2 0xFF8 JUMPI PUSH2 0xFF7 PUSH2 0xD7A JUMP JUMPDEST JUMPDEST PUSH2 0x1004 DUP8 DUP3 DUP9 ADD PUSH2 0xE55 JUMP JUMPDEST SWAP5 POP SWAP5 POP POP PUSH1 0x20 DUP6 ADD CALLDATALOAD PUSH8 0xFFFFFFFFFFFFFFFF DUP2 GT ISZERO PUSH2 0x1027 JUMPI PUSH2 0x1026 PUSH2 0xD7A JUMP JUMPDEST JUMPDEST PUSH2 0x1033 DUP8 DUP3 DUP9 ADD PUSH2 0xEAA JUMP JUMPDEST SWAP3 POP SWAP3 POP POP SWAP3 SWAP6 SWAP2 SWAP5 POP SWAP3 POP JUMP JUMPDEST PUSH2 0x104A DUP2 PUSH2 0xD9D JUMP JUMPDEST DUP3 MSTORE POP POP JUMP JUMPDEST PUSH0 PUSH1 0x20 DUP3 ADD SWAP1 POP PUSH2 0x1063 PUSH0 DUP4 ADD DUP5 PUSH2 0x1041 JUMP JUMPDEST SWAP3 SWAP2 POP POP JUMP JUMPDEST PUSH0 PUSH1 0x20 DUP3 DUP5 SUB SLT ISZERO PUSH2 0x107E JUMPI PUSH2 0x107D PUSH2 0xD76 JUMP JUMPDEST JUMPDEST PUSH0 PUSH2 0x108B DUP5 DUP3 DUP6 ADD PUSH2 0xDC4 JUMP JUMPDEST SWAP2 POP POP SWAP3 SWAP2 POP POP JUMP JUMPDEST PUSH0 DUP3 DUP3 MSTORE PUSH1 0x20 DUP3 ADD SWAP1 POP SWAP3 SWAP2 POP POP JUMP JUMPDEST PUSH32 0x48616E7961206F776E65722079616E67206461706174206D656E67616B736573 PUSH0 DUP3 ADD MSTORE PUSH32 0x2066756E67736920696E69000000000000000000000000000000000000000000 PUSH1 0x20 DUP3 ADD MSTORE POP JUMP JUMPDEST PUSH0 PUSH2 0x10FE PUSH1 0x2B DUP4 PUSH2 0x1094 JUMP JUMPDEST SWAP2 POP PUSH2 0x1109 DUP3 PUSH2 0x10A4 JUMP JUMPDEST PUSH1 0x40 DUP3 ADD SWAP1 POP SWAP2 SWAP1 POP JUMP JUMPDEST PUSH0 PUSH1 0x20 DUP3 ADD SWAP1 POP DUP2 DUP2 SUB PUSH0 DUP4 ADD MSTORE PUSH2 0x112B DUP2 PUSH2 0x10F2 JUMP JUMPDEST SWAP1 POP SWAP2 SWAP1 POP JUMP JUMPDEST PUSH0 DUP2 SWAP1 POP SWAP3 SWAP2 POP POP JUMP JUMPDEST POP JUMP JUMPDEST PUSH0 PUSH2 0x114A PUSH0 DUP4 PUSH2 0x1132 JUMP JUMPDEST SWAP2 POP PUSH2 0x1155 DUP3 PUSH2 0x113C JUMP JUMPDEST PUSH0 DUP3 ADD SWAP1 POP SWAP2 SWAP1 POP JUMP JUMPDEST PUSH0 PUSH2 0x1169 DUP3 PUSH2 0x113F JUMP JUMPDEST SWAP2 POP DUP2 SWAP1 POP SWAP2 SWAP1 POP JUMP JUMPDEST PUSH32 0x5472616E73666572206E617469766520746F6B656E20676167616C0000000000 PUSH0 DUP3 ADD MSTORE POP JUMP JUMPDEST PUSH0 PUSH2 0x11A7 PUSH1 0x1B DUP4 PUSH2 0x1094 JUMP JUMPDEST SWAP2 POP PUSH2 0x11B2 DUP3 PUSH2 0x1173 JUMP JUMPDEST PUSH1 0x20 DUP3 ADD SWAP1 POP SWAP2 SWAP1 POP JUMP JUMPDEST PUSH0 PUSH1 0x20 DUP3 ADD SWAP1 POP DUP2 DUP2 SUB PUSH0 DUP4 ADD MSTORE PUSH2 0x11D4 DUP2 PUSH2 0x119B JUMP JUMPDEST SWAP1 POP SWAP2 SWAP1 POP JUMP JUMPDEST PUSH2 0x11E4 DUP2 PUSH2 0xDD8 JUMP JUMPDEST DUP3 MSTORE POP POP JUMP JUMPDEST PUSH0 PUSH1 0x40 DUP3 ADD SWAP1 POP PUSH2 0x11FD PUSH0 DUP4 ADD DUP6 PUSH2 0x1041 JUMP JUMPDEST PUSH2 0x120A PUSH1 0x20 DUP4 ADD DUP5 PUSH2 0x11DB JUMP JUMPDEST SWAP4 SWAP3 POP POP POP JUMP JUMPDEST PUSH2 0x121A DUP2 PUSH2 0xF90 JUMP JUMPDEST DUP2 EQ PUSH2 0x1224 JUMPI PUSH0 PUSH0 REVERT JUMPDEST POP JUMP JUMPDEST PUSH0 DUP2 MLOAD SWAP1 POP PUSH2 0x1235 DUP2 PUSH2 0x1211 JUMP JUMPDEST SWAP3 SWAP2 POP POP JUMP JUMPDEST PUSH0 PUSH1 0x20 DUP3 DUP5 SUB SLT ISZERO PUSH2 0x1250 JUMPI PUSH2 0x124F PUSH2 0xD76 JUMP JUMPDEST JUMPDEST PUSH0 PUSH2 0x125D DUP5 DUP3 DUP6 ADD PUSH2 0x1227 JUMP JUMPDEST SWAP2 POP POP SWAP3 SWAP2 POP POP JUMP JUMPDEST PUSH32 0x5472616E7366657220746F6B656E20676167616C000000000000000000000000 PUSH0 DUP3 ADD MSTORE POP JUMP JUMPDEST PUSH0 PUSH2 0x129A PUSH1 0x14 DUP4 PUSH2 0x1094 JUMP JUMPDEST SWAP2 POP PUSH2 0x12A5 DUP3 PUSH2 0x1266 JUMP JUMPDEST PUSH1 0x20 DUP3 ADD SWAP1 POP SWAP2 SWAP1 POP JUMP JUMPDEST PUSH0 PUSH1 0x20 DUP3 ADD SWAP1 POP DUP2 DUP2 SUB PUSH0 DUP4 ADD MSTORE PUSH2 0x12C7 DUP2 PUSH2 0x128E JUMP JUMPDEST SWAP1 POP SWAP2 SWAP1 POP JUMP JUMPDEST PUSH32 0x50616E6A616E6720617272617920726563697069656E74732064616E20616D6F PUSH0 DUP3 ADD MSTORE PUSH32 0x756E74732068617275732073616D610000000000000000000000000000000000 PUSH1 0x20 DUP3 ADD MSTORE POP JUMP JUMPDEST PUSH0 PUSH2 0x1328 PUSH1 0x2F DUP4 PUSH2 0x1094 JUMP JUMPDEST SWAP2 POP PUSH2 0x1333 DUP3 PUSH2 0x12CE JUMP JUMPDEST PUSH1 0x40 DUP3 ADD SWAP1 POP SWAP2 SWAP1 POP JUMP JUMPDEST PUSH0 PUSH1 0x20 DUP3 ADD SWAP1 POP DUP2 DUP2 SUB PUSH0 DUP4 ADD MSTORE PUSH2 0x1355 DUP2 PUSH2 0x131C JUMP JUMPDEST SWAP1 POP SWAP2 SWAP1 POP JUMP JUMPDEST PUSH32 0x4D616B73696D616C203230303020616C616D61742070656E6572696D61206461 PUSH0 DUP3 ADD MSTORE PUSH32 0x6C616D2073617475206261746368000000000000000000000000000000000000 PUSH1 0x20 DUP3 ADD MSTORE POP JUMP JUMPDEST PUSH0 PUSH2 0x13B6 PUSH1 0x2E DUP4 PUSH2 0x1094 JUMP JUMPDEST SWAP2 POP PUSH2 0x13C1 DUP3 PUSH2 0x135C JUMP JUMPDEST PUSH1 0x40 DUP3 ADD SWAP1 POP SWAP2 SWAP1 POP JUMP JUMPDEST PUSH0 PUSH1 0x20 DUP3 ADD SWAP1 POP DUP2 DUP2 SUB PUSH0 DUP4 ADD MSTORE PUSH2 0x13E3 DUP2 PUSH2 0x13AA JUMP JUMPDEST SWAP1 POP SWAP2 SWAP1 POP JUMP JUMPDEST PUSH32 0x4E487B7100000000000000000000000000000000000000000000000000000000 PUSH0 MSTORE PUSH1 0x32 PUSH1 0x4 MSTORE PUSH1 0x24 PUSH0 REVERT JUMPDEST PUSH32 0x4E487B7100000000000000000000000000000000000000000000000000000000 PUSH0 MSTORE PUSH1 0x11 PUSH1 0x4 MSTORE PUSH1 0x24 PUSH0 REVERT JUMPDEST PUSH0 PUSH2 0x144E DUP3 PUSH2 0xDD8 JUMP JUMPDEST SWAP2 POP PUSH2 0x1459 DUP4 PUSH2 0xDD8 JUMP JUMPDEST SWAP3 POP DUP3 DUP3 ADD SWAP1 POP DUP1 DUP3 GT ISZERO PUSH2 0x1471 JUMPI PUSH2 0x1470 PUSH2 0x1417 JUMP JUMPDEST JUMPDEST SWAP3 SWAP2 POP POP JUMP JUMPDEST PUSH0 PUSH1 0x40 DUP3 ADD SWAP1 POP PUSH2 0x148A PUSH0 DUP4 ADD DUP6 PUSH2 0x1041 JUMP JUMPDEST PUSH2 0x1497 PUSH1 0x20 DUP4 ADD DUP5 PUSH2 0x1041 JUMP JUMPDEST SWAP4 SWAP3 POP POP POP JUMP JUMPDEST PUSH0 DUP2 MLOAD SWAP1 POP PUSH2 0x14AC DUP2 PUSH2 0xDE1 JUMP JUMPDEST SWAP3 SWAP2 POP POP JUMP JUMPDEST PUSH0 PUSH1 0x20 DUP3 DUP5 SUB SLT ISZERO PUSH2 0x14C7 JUMPI PUSH2 0x14C6 PUSH2 0xD76 JUMP JUMPDEST JUMPDEST PUSH0 PUSH2 0x14D4 DUP5 DUP3 DUP6 ADD PUSH2 0x149E JUMP JUMPDEST SWAP2 POP POP SWAP3 SWAP2 POP POP JUMP JUMPDEST PUSH32 0x416C6C6F77616E636520746F6B656E20746964616B2063756B75700000000000 PUSH0 DUP3 ADD MSTORE POP JUMP JUMPDEST PUSH0 PUSH2 0x1511 PUSH1 0x1B DUP4 PUSH2 0x1094 JUMP JUMPDEST SWAP2 POP PUSH2 0x151C DUP3 PUSH2 0x14DD JUMP JUMPDEST PUSH1 0x20 DUP3 ADD SWAP1 POP SWAP2 SWAP1 POP JUMP JUMPDEST PUSH0 PUSH1 0x20 DUP3 ADD SWAP1 POP DUP2 DUP2 SUB PUSH0 DUP4 ADD MSTORE PUSH2 0x153E DUP2 PUSH2 0x1505 JUMP JUMPDEST SWAP1 POP SWAP2 SWAP1 POP JUMP JUMPDEST PUSH0 PUSH1 0x60 DUP3 ADD SWAP1 POP PUSH2 0x1558 PUSH0 DUP4 ADD DUP7 PUSH2 0x1041 JUMP JUMPDEST PUSH2 0x1565 PUSH1 0x20 DUP4 ADD DUP6 PUSH2 0x1041 JUMP JUMPDEST PUSH2 0x1572 PUSH1 0x40 DUP4 ADD DUP5 PUSH2 0x11DB JUMP JUMPDEST SWAP5 SWAP4 POP POP POP POP JUMP JUMPDEST PUSH32 0x5472616E7366657220646172692070656E676972696D206B65206B6F6E747261 PUSH0 DUP3 ADD MSTORE PUSH32 0x6B20676167616C00000000000000000000000000000000000000000000000000 PUSH1 0x20 DUP3 ADD MSTORE POP JUMP JUMPDEST PUSH0 PUSH2 0x15D4 PUSH1 0x27 DUP4 PUSH2 0x1094 JUMP JUMPDEST SWAP2 POP PUSH2 0x15DF DUP3 PUSH2 0x157A JUMP JUMPDEST PUSH1 0x40 DUP3 ADD SWAP1 POP SWAP2 SWAP1 POP JUMP JUMPDEST PUSH0 PUSH1 0x20 DUP3 ADD SWAP1 POP DUP2 DUP2 SUB PUSH0 DUP4 ADD MSTORE PUSH2 0x1601 DUP2 PUSH2 0x15C8 JUMP JUMPDEST SWAP1 POP SWAP2 SWAP1 POP JUMP JUMPDEST PUSH32 0x416C616D61742070656E6572696D6120746964616B20626F6C656820616C616D PUSH0 DUP3 ADD MSTORE PUSH32 0x6174206E6F6C0000000000000000000000000000000000000000000000000000 PUSH1 0x20 DUP3 ADD MSTORE POP JUMP JUMPDEST PUSH0 PUSH2 0x1662 PUSH1 0x26 DUP4 PUSH2 0x1094 JUMP JUMPDEST SWAP2 POP PUSH2 0x166D DUP3 PUSH2 0x1608 JUMP JUMPDEST PUSH1 0x40 DUP3 ADD SWAP1 POP SWAP2 SWAP1 POP JUMP JUMPDEST PUSH0 PUSH1 0x20 DUP3 ADD SWAP1 POP DUP2 DUP2 SUB PUSH0 DUP4 ADD MSTORE PUSH2 0x168F DUP2 PUSH2 0x1656 JUMP JUMPDEST SWAP1 POP SWAP2 SWAP1 POP JUMP JUMPDEST PUSH0 PUSH1 0x60 DUP3 ADD SWAP1 POP PUSH2 0x16A9 PUSH0 DUP4 ADD DUP7 PUSH2 0x11DB JUMP JUMPDEST PUSH2 0x16B6 PUSH1 0x20 DUP4 ADD DUP6 PUSH2 0x11DB JUMP JUMPDEST PUSH2 0x16C3 PUSH1 0x40 DUP4 ADD DUP5 PUSH2 0x11DB JUMP JUMPDEST SWAP5 SWAP4 POP POP POP POP JUMP JUMPDEST PUSH32 0x546F74616C20616D6F756E742068617275732073616D612064656E67616E206E PUSH0 DUP3 ADD MSTORE PUSH32 0x696C61692079616E672064696B6972696D000000000000000000000000000000 PUSH1 0x20 DUP3 ADD MSTORE POP JUMP JUMPDEST PUSH0 PUSH2 0x1725 PUSH1 0x31 DUP4 PUSH2 0x1094 JUMP JUMPDEST SWAP2 POP PUSH2 0x1730 DUP3 PUSH2 0x16CB JUMP JUMPDEST PUSH1 0x40 DUP3 ADD SWAP1 POP SWAP2 SWAP1 POP JUMP JUMPDEST PUSH0 PUSH1 0x20 DUP3 ADD SWAP1 POP DUP2 DUP2 SUB PUSH0 DUP4 ADD MSTORE PUSH2 0x1752 DUP2 PUSH2 0x1719 JUMP JUMPDEST SWAP1 POP SWAP2 SWAP1 POP JUMP JUMPDEST PUSH32 0x5472616E7366657220676167616C000000000000000000000000000000000000 PUSH0 DUP3 ADD MSTORE POP JUMP JUMPDEST PUSH0 PUSH2 0x178D PUSH1 0xE DUP4 PUSH2 0x1094 JUMP JUMPDEST SWAP2 POP PUSH2 0x1798 DUP3 PUSH2 0x1759 JUMP JUMPDEST PUSH1 0x20 DUP3 ADD SWAP1 POP SWAP2 SWAP1 POP JUMP JUMPDEST PUSH0 PUSH1 0x20 DUP3 ADD SWAP1 POP DUP2 DUP2 SUB PUSH0 DUP4 ADD MSTORE PUSH2 0x17BA DUP2 PUSH2 0x1781 JUMP JUMPDEST SWAP1 POP SWAP2 SWAP1 POP JUMP JUMPDEST PUSH32 0x416C616D6174206F776E6572206261727520746964616B20626F6C656820616C PUSH0 DUP3 ADD MSTORE PUSH32 0x616D6174206E6F6C000000000000000000000000000000000000000000000000 PUSH1 0x20 DUP3 ADD MSTORE POP JUMP JUMPDEST PUSH0 PUSH2 0x181B PUSH1 0x28 DUP4 PUSH2 0x1094 JUMP JUMPDEST SWAP2 POP PUSH2 0x1826 DUP3 PUSH2 0x17C1 JUMP JUMPDEST PUSH1 0x40 DUP3 ADD SWAP1 POP SWAP2 SWAP1 POP JUMP JUMPDEST PUSH0 PUSH1 0x20 DUP3 ADD SWAP1 POP DUP2 DUP2 SUB PUSH0 DUP4 ADD MSTORE PUSH2 0x1848 DUP2 PUSH2 0x180F JUMP JUMPDEST SWAP1 POP SWAP2 SWAP1 POP JUMP INVALID LOG2 PUSH5 0x6970667358 0x22 SLT KECCAK256 0xBB LOG3 ADDRESS LOG3 PUSH12 0x942A63E899E406CF58E1B1A4 BASEFEE TIMESTAMP SWAP10 SWAP14 CODESIZE COINBASE 0xCE 0xAB SWAP5 PUSH2 0x5058 DUP15 0xAC SWAP9 PUSH5 0x736F6C6343 STOP ADDMOD SHR STOP CALLER "
	},
	"Assembly": ".code\n  PUSH 80\t\t\tcontract BatchTransfer {\\r\\n  ...\n  PUSH 40\t\t\tcontract BatchTransfer {\\r\\n  ...\n  MSTORE \t\t\tcontract BatchTransfer {\\r\\n  ...\n  CALLVALUE \t\t\tconstructor() {\\r\\n        own...\n  DUP1 \t\t\tconstructor() {\\r\\n        own...\n  ISZERO \t\t\tconstructor() {\\r\\n        own...\n  PUSH [tag] 1\t\t\tconstructor() {\\r\\n        own...\n  JUMPI \t\t\tconstructor() {\\r\\n        own...\n  PUSH 0\t\t\tconstructor() {\\r\\n        own...\n  PUSH 0\t\t\tconstructor() {\\r\\n        own...\n  REVERT \t\t\tconstructor() {\\r\\n        own...\ntag 1\t\t\tconstructor() {\\r\\n        own...\n  JUMPDEST \t\t\tconstructor() {\\r\\n        own...\n  POP \t\t\tconstructor() {\\r\\n        own...\n  CALLER \t\t\tmsg.sender\n  PUSH 0\t\t\towner\n  PUSH 0\t\t\towner\n  PUSH 100\t\t\towner = msg.sender\n  EXP \t\t\towner = msg.sender\n  DUP2 \t\t\towner = msg.sender\n  SLOAD \t\t\towner = msg.sender\n  DUP2 \t\t\towner = msg.sender\n  PUSH FFFFFFFFFFFFFFFFFFFFFFFFFFFFFFFFFFFFFFFF\t\t\towner = msg.sender\n  MUL \t\t\towner = msg.sender\n  NOT \t\t\towner = msg.sender\n  AND \t\t\towner = msg.sender\n  SWAP1 \t\t\towner = msg.sender\n  DUP4 \t\t\towner = msg.sender\n  PUSH FFFFFFFFFFFFFFFFFFFFFFFFFFFFFFFFFFFFFFFF\t\t\towner = msg.sender\n  AND \t\t\towner = msg.sender\n  MUL \t\t\towner = msg.sender\n  OR \t\t\towner = msg.sender\n  SWAP1 \t\t\towner = msg.sender\n  SSTORE \t\t\towner = msg.sender\n  POP \t\t\towner = msg.sender\n  PUSH #[$] 0000000000000000000000000000000000000000000000000000000000000000\t\t\tcontract BatchTransfer {\\r\\n  ...\n  DUP1 \t\t\tcontract BatchTransfer {\\r\\n  ...\n  PUSH [$] 0000000000000000000000000000000000000000000000000000000000000000\t\t\tcontract BatchTransfer {\\r\\n  ...\n  PUSH 0\t\t\tcontract BatchTransfer {\\r\\n  ...\n  CODECOPY \t\t\tcontract BatchTransfer {\\r\\n  ...\n  PUSH 0\t\t\tcontract BatchTransfer {\\r\\n  ...\n  RETURN \t\t\tcontract BatchTransfer {\\r\\n  ...\n.data\n  0:\n    .code\n      PUSH 80\t\t\tcontract BatchTransfer {\\r\\n  ...\n      PUSH 40\t\t\tcontract BatchTransfer {\\r\\n  ...\n      MSTORE \t\t\tcontract BatchTransfer {\\r\\n  ...\n      PUSH 4\t\t\tcontract BatchTransfer {\\r\\n  ...\n      CALLDATASIZE \t\t\tcontract BatchTransfer {\\r\\n  ...\n      LT \t\t\tcontract BatchTransfer {\\r\\n  ...\n      PUSH [tag] 1\t\t\tcontract BatchTransfer {\\r\\n  ...\n      JUMPI \t\t\tcontract BatchTransfer {\\r\\n  ...\n      PUSH 0\t\t\tcontract BatchTransfer {\\r\\n  ...\n      CALLDATALOAD \t\t\tcontract BatchTransfer {\\r\\n  ...\n      PUSH E0\t\t\tcontract BatchTransfer {\\r\\n  ...\n      SHR \t\t\tcontract BatchTransfer {\\r\\n  ...\n      DUP1 \t\t\tcontract BatchTransfer {\\r\\n  ...\n      PUSH 69C9FAE\t\t\tcontract BatchTransfer {\\r\\n  ...\n      EQ \t\t\tcontract BatchTransfer {\\r\\n  ...\n      PUSH [tag] 3\t\t\tcontract BatchTransfer {\\r\\n  ...\n      JUMPI \t\t\tcontract BatchTransfer {\\r\\n  ...\n      DUP1 \t\t\tcontract BatchTransfer {\\r\\n  ...\n      PUSH 20651D5D\t\t\tcontract BatchTransfer {\\r\\n  ...\n      EQ \t\t\tcontract BatchTransfer {\\r\\n  ...\n      PUSH [tag] 4\t\t\tcontract BatchTransfer {\\r\\n  ...\n      JUMPI \t\t\tcontract BatchTransfer {\\r\\n  ...\n      DUP1 \t\t\tcontract BatchTransfer {\\r\\n  ...\n      PUSH 88D695B2\t\t\tcontract BatchTransfer {\\r\\n  ...\n      EQ \t\t\tcontract BatchTransfer {\\r\\n  ...\n      PUSH [tag] 5\t\t\tcontract BatchTransfer {\\r\\n  ...\n      JUMPI \t\t\tcontract BatchTransfer {\\r\\n  ...\n      DUP1 \t\t\tcontract BatchTransfer {\\r\\n  ...\n      PUSH 8DA5CB5B\t\t\tcontract BatchTransfer {\\r\\n  ...\n      EQ \t\t\tcontract BatchTransfer {\\r\\n  ...\n      PUSH [tag] 6\t\t\tcontract BatchTransfer {\\r\\n  ...\n      JUMPI \t\t\tcontract BatchTransfer {\\r\\n  ...\n      DUP1 \t\t\tcontract BatchTransfer {\\r\\n  ...\n      PUSH F2FDE38B\t\t\tcontract BatchTransfer {\\r\\n  ...\n      EQ \t\t\tcontract BatchTransfer {\\r\\n  ...\n      PUSH [tag] 7\t\t\tcontract BatchTransfer {\\r\\n  ...\n      JUMPI \t\t\tcontract BatchTransfer {\\r\\n  ...\n      PUSH [tag] 2\t\t\tcontract BatchTransfer {\\r\\n  ...\n      JUMP \t\t\tcontract BatchTransfer {\\r\\n  ...\n    tag 1\t\t\tcontract BatchTransfer {\\r\\n  ...\n      JUMPDEST \t\t\tcontract BatchTransfer {\\r\\n  ...\n      CALLDATASIZE \t\t\tcontract BatchTransfer {\\r\\n  ...\n      PUSH [tag] 2\t\t\tcontract BatchTransfer {\\r\\n  ...\n      JUMPI \t\t\tcontract BatchTransfer {\\r\\n  ...\n      STOP \t\t\tcontract BatchTransfer {\\r\\n  ...\n    tag 2\t\t\tcontract BatchTransfer {\\r\\n  ...\n      JUMPDEST \t\t\tcontract BatchTransfer {\\r\\n  ...\n      PUSH 0\t\t\tcontract BatchTransfer {\\r\\n  ...\n      PUSH 0\t\t\tcontract BatchTransfer {\\r\\n  ...\n      REVERT \t\t\tcontract BatchTransfer {\\r\\n  ...\n    tag 3\t\t\tfunction recoverTokens(address...\n      JUMPDEST \t\t\tfunction recoverTokens(address...\n      CALLVALUE \t\t\tfunction recoverTokens(address...\n      DUP1 \t\t\tfunction recoverTokens(address...\n      ISZERO \t\t\tfunction recoverTokens(address...\n      PUSH [tag] 10\t\t\tfunction recoverTokens(address...\n      JUMPI \t\t\tfunction recoverTokens(address...\n      PUSH 0\t\t\tfunction recoverTokens(address...\n      PUSH 0\t\t\tfunction recoverTokens(address...\n      REVERT \t\t\tfunction recoverTokens(address...\n    tag 10\t\t\tfunction recoverTokens(address...\n      JUMPDEST \t\t\tfunction recoverTokens(address...\n      POP \t\t\tfunction recoverTokens(address...\n      PUSH [tag] 11\t\t\tfunction recoverTokens(address...\n      PUSH 4\t\t\tfunction recoverTokens(address...\n      DUP1 \t\t\tfunction recoverTokens(address...\n      CALLDATASIZE \t\t\tfunction recoverTokens(address...\n      SUB \t\t\tfunction recoverTokens(address...\n      DUP2 \t\t\tfunction recoverTokens(address...\n      ADD \t\t\tfunction recoverTokens(address...\n      SWAP1 \t\t\tfunction recoverTokens(address...\n      PUSH [tag] 12\t\t\tfunction recoverTokens(address...\n      SWAP2 \t\t\tfunction recoverTokens(address...\n      SWAP1 \t\t\tfunction recoverTokens(address...\n      PUSH [tag] 13\t\t\tfunction recoverTokens(address...\n      JUMP \t\t\tfunction recoverTokens(address...\n    tag 12\t\t\tfunction recoverTokens(address...\n      JUMPDEST \t\t\tfunction recoverTokens(address...\n      PUSH [tag] 14\t\t\tfunction recoverTokens(address...\n      JUMP \t\t\tfunction recoverTokens(address...\n    tag 11\t\t\tfunction recoverTokens(address...\n      JUMPDEST \t\t\tfunction recoverTokens(address...\n      STOP \t\t\tfunction recoverTokens(address...\n    tag 4\t\t\tfunction batchTransferToken(ad...\n      JUMPDEST \t\t\tfunction batchTransferToken(ad...\n      CALLVALUE \t\t\tfunction batchTransferToken(ad...\n      DUP1 \t\t\tfunction batchTransferToken(ad...\n      ISZERO \t\t\tfunction batchTransferToken(ad...\n      PUSH [tag] 15\t\t\tfunction batchTransferToken(ad...\n      JUMPI \t\t\tfunction batchTransferToken(ad...\n      PUSH 0\t\t\tfunction batchTransferToken(ad...\n      PUSH 0\t\t\tfunction batchTransferToken(ad...\n      REVERT \t\t\tfunction batchTransferToken(ad...\n    tag 15\t\t\tfunction batchTransferToken(ad...\n      JUMPDEST \t\t\tfunction batchTransferToken(ad...\n      POP \t\t\tfunction batchTransferToken(ad...\n      PUSH [tag] 16\t\t\tfunction batchTransferToken(ad...\n      PUSH 4\t\t\tfunction batchTransferToken(ad...\n      DUP1 \t\t\tfunction batchTransferToken(ad...\n      CALLDATASIZE \t\t\tfunction batchTransferToken(ad...\n      SUB \t\t\tfunction batchTransferToken(ad...\n      DUP2 \t\t\tfunction batchTransferToken(ad...\n      ADD \t\t\tfunction batchTransferToken(ad...\n      SWAP1 \t\t\tfunction batchTransferToken(ad...\n      PUSH [tag] 17\t\t\tfunction batchTransferToken(ad...\n      SWAP2 \t\t\tfunction batchTransferToken(ad...\n      SWAP1 \t\t\tfunction batchTransferToken(ad...\n      PUSH [tag] 18\t\t\tfunction batchTransferToken(ad...\n      JUMP \t\t\tfunction batchTransferToken(ad...\n    tag 17\t\t\tfunction batchTransferToken(ad...\n      JUMPDEST \t\t\tfunction batchTransferToken(ad...\n      PUSH [tag] 19\t\t\tfunction batchTransferToken(ad...\n      JUMP \t\t\tfunction batchTransferToken(ad...\n    tag 16\t\t\tfunction batchTransferToken(ad...\n      JUMPDEST \t\t\tfunction batchTransferToken(ad...\n      PUSH 40\t\t\tfunction batchTransferToken(ad...\n      MLOAD \t\t\tfunction batchTransferToken(ad...\n      PUSH [tag] 20\t\t\tfunction batchTransferToken(ad...\n      SWAP2 \t\t\tfunction batchTransferToken(ad...\n      SWAP1 \t\t\tfunction batchTransferToken(ad...\n      PUSH [tag] 21\t\t\tfunction batchTransferToken(ad...\n      JUMP \t\t\tfunction batchTransferToken(ad...\n    tag 20\t\t\tfunction batchTransferToken(ad...\n      JUMPDEST \t\t\tfunction batchTransferToken(ad...\n      PUSH 40\t\t\tfunction batchTransferToken(ad...\n      MLOAD \t\t\tfunction batchTransferToken(ad...\n      DUP1 \t\t\tfunction batchTransferToken(ad...\n      SWAP2 \t\t\tfunction batchTransferToken(ad...\n      SUB \t\t\tfunction batchTransferToken(ad...\n      SWAP1 \t\t\tfunction batchTransferToken(ad...\n      RETURN \t\t\tfunction batchTransferToken(ad...\n    tag 5\t\t\tfunction batchTransfer(address...\n      JUMPDEST \t\t\tfunction batchTransfer(address...\n      PUSH [tag] 22\t\t\tfunction batchTransfer(address...\n      PUSH 4\t\t\tfunction batchTransfer(address...\n      DUP1 \t\t\tfunction batchTransfer(address...\n      CALLDATASIZE \t\t\tfunction batchTransfer(address...\n      SUB \t\t\tfunction batchTransfer(address...\n      DUP2 \t\t\tfunction batchTransfer(address...\n      ADD \t\t\tfunction batchTransfer(address...\n      SWAP1 \t\t\tfunction batchTransfer(address...\n      PUSH [tag] 23\t\t\tfunction batchTransfer(address...\n      SWAP2 \t\t\tfunction batchTransfer(address...\n      SWAP1 \t\t\tfunction batchTransfer(address...\n      PUSH [tag] 24\t\t\tfunction batchTransfer(address...\n      JUMP \t\t\tfunction batchTransfer(address...\n    tag 23\t\t\tfunction batchTransfer(address...\n      JUMPDEST \t\t\tfunction batchTransfer(address...\n      PUSH [tag] 25\t\t\tfunction batchTransfer(address...\n      JUMP \t\t\tfunction batchTransfer(address...\n    tag 22\t\t\tfunction batchTransfer(address...\n      JUMPDEST \t\t\tfunction batchTransfer(address...\n      PUSH 40\t\t\tfunction batchTransfer(address...\n      MLOAD \t\t\tfunction batchTransfer(address...\n      PUSH [tag] 26\t\t\tfunction batchTransfer(address...\n      SWAP2 \t\t\tfunction batchTransfer(address...\n      SWAP1 \t\t\tfunction batchTransfer(address...\n      PUSH [tag] 21\t\t\tfunction batchTransfer(address...\n      JUMP \t\t\tfunction batchTransfer(address...\n    tag 26\t\t\tfunction batchTransfer(address...\n      JUMPDEST \t\t\tfunction batchTransfer(address...\n      PUSH 40\t\t\tfunction batchTransfer(address...\n      MLOAD \t\t\tfunction batchTransfer(address...\n      DUP1 \t\t\tfunction batchTransfer(address...\n      SWAP2 \t\t\tfunction batchTransfer(address...\n      SUB \t\t\tfunction batchTransfer(address...\n      SWAP1 \t\t\tfunction batchTransfer(address...\n      RETURN \t\t\tfunction batchTransfer(address...\n    tag 6\t\t\taddress public owner\n      JUMPDEST \t\t\taddress public owner\n      CALLVALUE \t\t\taddress public owner\n      DUP1 \t\t\taddress public owner\n      ISZERO \t\t\taddress public owner\n      PUSH [tag] 27\t\t\taddress public owner\n      JUMPI \t\t\taddress public owner\n      PUSH 0\t\t\taddress public owner\n      PUSH 0\t\t\taddress public owner\n      REVERT \t\t\taddress public owner\n    tag 27\t\t\taddress public owner\n      JUMPDEST \t\t\taddress public owner\n      POP \t\t\taddress public owner\n      PUSH [tag] 28\t\t\taddress public owner\n      PUSH [tag] 29\t\t\taddress public owner\n      JUMP \t\t\taddress public owner\n    tag 28\t\t\taddress public owner\n      JUMPDEST \t\t\taddress public owner\n      PUSH 40\t\t\taddress public owner\n      MLOAD \t\t\taddress public owner\n      PUSH [tag] 30\t\t\taddress public owner\n      SWAP2 \t\t\taddress public owner\n      SWAP1 \t\t\taddress public owner\n      PUSH [tag] 31\t\t\taddress public owner\n      JUMP \t\t\taddress public owner\n    tag 30\t\t\taddress public owner\n      JUMPDEST \t\t\taddress public owner\n      PUSH 40\t\t\taddress public owner\n      MLOAD \t\t\taddress public owner\n      DUP1 \t\t\taddress public owner\n      SWAP2 \t\t\taddress public owner\n      SUB \t\t\taddress public owner\n      SWAP1 \t\t\taddress public owner\n      RETURN \t\t\taddress public owner\n    tag 7\t\t\tfunction transferOwnership(add...\n      JUMPDEST \t\t\tfunction transferOwnership(add...\n      CALLVALUE \t\t\tfunction transferOwnership(add...\n      DUP1 \t\t\tfunction transferOwnership(add...\n      ISZERO \t\t\tfunction transferOwnership(add...\n      PUSH [tag] 32\t\t\tfunction transferOwnership(add...\n      JUMPI \t\t\tfunction transferOwnership(add...\n      PUSH 0\t\t\tfunction transferOwnership(add...\n      PUSH 0\t\t\tfunction transferOwnership(add...\n      REVERT \t\t\tfunction transferOwnership(add...\n    tag 32\t\t\tfunction transferOwnership(add...\n      JUMPDEST \t\t\tfunction transferOwnership(add...\n      POP \t\t\tfunction transferOwnership(add...\n      PUSH [tag] 33\t\t\tfunction transferOwnership(add...\n      PUSH 4\t\t\tfunction transferOwnership(add...\n      DUP1 \t\t\tfunction transferOwnership(add...\n      CALLDATASIZE \t\t\tfunction transferOwnership(add...\n      SUB \t\t\tfunction transferOwnership(add...\n      DUP2 \t\t\tfunction transferOwnership(add...\n      ADD \t\t\tfunction transferOwnership(add...\n      SWAP1 \t\t\tfunction transferOwnership(add...\n      PUSH [tag] 34\t\t\tfunction transferOwnership(add...\n      SWAP2 \t\t\tfunction transferOwnership(add...\n      SWAP1 \t\t\tfunction transferOwnership(add...\n      PUSH [tag] 35\t\t\tfunction transferOwnership(add...\n      JUMP \t\t\tfunction transferOwnership(add...\n    tag 34\t\t\tfunction transferOwnership(add...\n      JUMPDEST \t\t\tfunction transferOwnership(add...\n      PUSH [tag] 36\t\t\tfunction transferOwnership(add...\n      JUMP \t\t\tfunction transferOwnership(add...\n    tag 33\t\t\tfunction transferOwnership(add...\n      JUMPDEST \t\t\tfunction transferOwnership(add...\n      STOP \t\t\tfunction transferOwnership(add...\n    tag 14\t\t\tfunction recoverTokens(address...\n      JUMPDEST \t\t\tfunction recoverTokens(address...\n      PUSH 0\t\t\towner\n      PUSH 0\t\t\towner\n      SWAP1 \t\t\towner\n      SLOAD \t\t\towner\n      SWAP1 \t\t\towner\n      PUSH 100\t\t\towner\n      EXP \t\t\towner\n      SWAP1 \t\t\towner\n      DIV \t\t\towner\n      PUSH FFFFFFFFFFFFFFFFFFFFFFFFFFFFFFFFFFFFFFFF\t\t\towner\n      AND \t\t\towner\n      PUSH FFFFFFFFFFFFFFFFFFFFFFFFFFFFFFFFFFFFFFFF\t\t\tmsg.sender == owner\n      AND \t\t\tmsg.sender == owner\n      CALLER \t\t\tmsg.sender\n      PUSH FFFFFFFFFFFFFFFFFFFFFFFFFFFFFFFFFFFFFFFF\t\t\tmsg.sender == owner\n      AND \t\t\tmsg.sender == owner\n      EQ \t\t\tmsg.sender == owner\n      PUSH [tag] 38\t\t\trequire(msg.sender == owner, \"...\n      JUMPI \t\t\trequire(msg.sender == owner, \"...\n      PUSH 40\t\t\trequire(msg.sender == owner, \"...\n      MLOAD \t\t\trequire(msg.sender == owner, \"...\n      PUSH 8C379A000000000000000000000000000000000000000000000000000000000\t\t\trequire(msg.sender == owner, \"...\n      DUP2 \t\t\trequire(msg.sender == owner, \"...\n      MSTORE \t\t\trequire(msg.sender == owner, \"...\n      PUSH 4\t\t\trequire(msg.sender == owner, \"...\n      ADD \t\t\trequire(msg.sender == owner, \"...\n      PUSH [tag] 39\t\t\trequire(msg.sender == owner, \"...\n      SWAP1 \t\t\trequire(msg.sender == owner, \"...\n      PUSH [tag] 40\t\t\trequire(msg.sender == owner, \"...\n      JUMP \t\t\trequire(msg.sender == owner, \"...\n    tag 39\t\t\trequire(msg.sender == owner, \"...\n      JUMPDEST \t\t\trequire(msg.sender == owner, \"...\n      PUSH 40\t\t\trequire(msg.sender == owner, \"...\n      MLOAD \t\t\trequire(msg.sender == owner, \"...\n      DUP1 \t\t\trequire(msg.sender == owner, \"...\n      SWAP2 \t\t\trequire(msg.sender == owner, \"...\n      SUB \t\t\trequire(msg.sender == owner, \"...\n      SWAP1 \t\t\trequire(msg.sender == owner, \"...\n      REVERT \t\t\trequire(msg.sender == owner, \"...\n    tag 38\t\t\trequire(msg.sender == owner, \"...\n      JUMPDEST \t\t\trequire(msg.sender == owner, \"...\n      PUSH 0\t\t\t0\n      PUSH FFFFFFFFFFFFFFFFFFFFFFFFFFFFFFFFFFFFFFFF\t\t\ttokenAddress == address(0)\n      AND \t\t\ttokenAddress == address(0)\n      DUP3 \t\t\ttokenAddress\n      PUSH FFFFFFFFFFFFFFFFFFFFFFFFFFFFFFFFFFFFFFFF\t\t\ttokenAddress == address(0)\n      AND \t\t\ttokenAddress == address(0)\n      SUB \t\t\ttokenAddress == address(0)\n      PUSH [tag] 42\t\t\tif (tokenAddress == address(0)...\n      JUMPI \t\t\tif (tokenAddress == address(0)...\n      PUSH 0\t\t\tbool success\n      PUSH 0\t\t\towner\n      PUSH 0\t\t\towner\n      SWAP1 \t\t\towner\n      SLOAD \t\t\towner\n      SWAP1 \t\t\towner\n      PUSH 100\t\t\towner\n      EXP \t\t\towner\n      SWAP1 \t\t\towner\n      DIV \t\t\towner\n      PUSH FFFFFFFFFFFFFFFFFFFFFFFFFFFFFFFFFFFFFFFF\t\t\towner\n      AND \t\t\towner\n      PUSH FFFFFFFFFFFFFFFFFFFFFFFFFFFFFFFFFFFFFFFF\t\t\towner.call\n      AND \t\t\towner.call\n      DUP3 \t\t\tamount\n      PUSH 40\t\t\towner.call{value: amount}(\"\")\n      MLOAD \t\t\towner.call{value: amount}(\"\")\n      PUSH [tag] 43\t\t\towner.call{value: amount}(\"\")\n      SWAP1 \t\t\towner.call{value: amount}(\"\")\n      PUSH [tag] 44\t\t\towner.call{value: amount}(\"\")\n      JUMP \t\t\towner.call{value: amount}(\"\")\n    tag 43\t\t\towner.call{value: amount}(\"\")\n      JUMPDEST \t\t\towner.call{value: amount}(\"\")\n      PUSH 0\t\t\towner.call{value: amount}(\"\")\n      PUSH 40\t\t\towner.call{value: amount}(\"\")\n      MLOAD \t\t\towner.call{value: amount}(\"\")\n      DUP1 \t\t\towner.call{value: amount}(\"\")\n      DUP4 \t\t\towner.call{value: amount}(\"\")\n      SUB \t\t\towner.call{value: amount}(\"\")\n      DUP2 \t\t\towner.call{value: amount}(\"\")\n      DUP6 \t\t\towner.call{value: amount}(\"\")\n      DUP8 \t\t\towner.call{value: amount}(\"\")\n      GAS \t\t\towner.call{value: amount}(\"\")\n      CALL \t\t\towner.call{value: amount}(\"\")\n      SWAP3 \t\t\towner.call{value: amount}(\"\")\n      POP \t\t\towner.call{value: amount}(\"\")\n      POP \t\t\towner.call{value: amount}(\"\")\n      POP \t\t\towner.call{value: amount}(\"\")\n      RETURNDATASIZE \t\t\towner.call{value: amount}(\"\")\n      DUP1 \t\t\towner.call{value: amount}(\"\")\n      PUSH 0\t\t\towner.call{value: amount}(\"\")\n      DUP2 \t\t\towner.call{value: amount}(\"\")\n      EQ \t\t\towner.call{value: amount}(\"\")\n      PUSH [tag] 47\t\t\towner.call{value: amount}(\"\")\n      JUMPI \t\t\towner.call{value: amount}(\"\")\n      PUSH 40\t\t\towner.call{value: amount}(\"\")\n      MLOAD \t\t\towner.call{value: amount}(\"\")\n      SWAP2 \t\t\towner.call{value: amount}(\"\")\n      POP \t\t\towner.call{value: amount}(\"\")\n      PUSH 1F\t\t\towner.call{value: amount}(\"\")\n      NOT \t\t\towner.call{value: amount}(\"\")\n      PUSH 3F\t\t\towner.call{value: amount}(\"\")\n      RETURNDATASIZE \t\t\towner.call{value: amount}(\"\")\n      ADD \t\t\towner.call{value: amount}(\"\")\n      AND \t\t\towner.call{value: amount}(\"\")\n      DUP3 \t\t\towner.call{value: amount}(\"\")\n      ADD \t\t\towner.call{value: amount}(\"\")\n      PUSH 40\t\t\towner.call{value: amount}(\"\")\n      MSTORE \t\t\towner.call{value: amount}(\"\")\n      RETURNDATASIZE \t\t\towner.call{value: amount}(\"\")\n      DUP3 \t\t\towner.call{value: amount}(\"\")\n      MSTORE \t\t\towner.call{value: amount}(\"\")\n      RETURNDATASIZE \t\t\towner.call{value: amount}(\"\")\n      PUSH 0\t\t\towner.call{value: amount}(\"\")\n      PUSH 20\t\t\towner.call{value: amount}(\"\")\n      DUP5 \t\t\towner.call{value: amount}(\"\")\n      ADD \t\t\towner.call{value: amount}(\"\")\n      RETURNDATACOPY \t\t\towner.call{value: amount}(\"\")\n      PUSH [tag] 46\t\t\towner.call{value: amount}(\"\")\n      JUMP \t\t\towner.call{value: amount}(\"\")\n    tag 47\t\t\towner.call{value: amount}(\"\")\n      JUMPDEST \t\t\towner.call{value: amount}(\"\")\n      PUSH 60\t\t\towner.call{value: amount}(\"\")\n      SWAP2 \t\t\towner.call{value: amount}(\"\")\n      POP \t\t\towner.call{value: amount}(\"\")\n    tag 46\t\t\towner.call{value: amount}(\"\")\n      JUMPDEST \t\t\towner.call{value: amount}(\"\")\n      POP \t\t\towner.call{value: amount}(\"\")\n      POP \t\t\t(bool success, ) = owner.call{...\n      SWAP1 \t\t\t(bool success, ) = owner.call{...\n      POP \t\t\t(bool success, ) = owner.call{...\n      DUP1 \t\t\tsuccess\n      PUSH [tag] 48\t\t\trequire(success, \"Transfer nat...\n      JUMPI \t\t\trequire(success, \"Transfer nat...\n      PUSH 40\t\t\trequire(success, \"Transfer nat...\n      MLOAD \t\t\trequire(success, \"Transfer nat...\n      PUSH 8C379A000000000000000000000000000000000000000000000000000000000\t\t\trequire(success, \"Transfer nat...\n      DUP2 \t\t\trequire(success, \"Transfer nat...\n      MSTORE \t\t\trequire(success, \"Transfer nat...\n      PUSH 4\t\t\trequire(success, \"Transfer nat...\n      ADD \t\t\trequire(success, \"Transfer nat...\n      PUSH [tag] 49\t\t\trequire(success, \"Transfer nat...\n      SWAP1 \t\t\trequire(success, \"Transfer nat...\n      PUSH [tag] 50\t\t\trequire(success, \"Transfer nat...\n      JUMP \t\t\trequire(success, \"Transfer nat...\n    tag 49\t\t\trequire(success, \"Transfer nat...\n      JUMPDEST \t\t\trequire(success, \"Transfer nat...\n      PUSH 40\t\t\trequire(success, \"Transfer nat...\n      MLOAD \t\t\trequire(success, \"Transfer nat...\n      DUP1 \t\t\trequire(success, \"Transfer nat...\n      SWAP2 \t\t\trequire(success, \"Transfer nat...\n      SUB \t\t\trequire(success, \"Transfer nat...\n      SWAP1 \t\t\trequire(success, \"Transfer nat...\n      REVERT \t\t\trequire(success, \"Transfer nat...\n    tag 48\t\t\trequire(success, \"Transfer nat...\n      JUMPDEST \t\t\trequire(success, \"Transfer nat...\n      POP \t\t\t{\\r\\n            // Recover na...\n      PUSH [tag] 51\t\t\tif (tokenAddress == address(0)...\n      JUMP \t\t\tif (tokenAddress == address(0)...\n    tag 42\t\t\tif (tokenAddress == address(0)...\n      JUMPDEST \t\t\tif (tokenAddress == address(0)...\n      PUSH 0\t\t\tIERC20 token\n      DUP3 \t\t\ttokenAddress\n      SWAP1 \t\t\tIERC20 token = IERC20(tokenAdd...\n      POP \t\t\tIERC20 token = IERC20(tokenAdd...\n      DUP1 \t\t\ttoken\n      PUSH FFFFFFFFFFFFFFFFFFFFFFFFFFFFFFFFFFFFFFFF\t\t\ttoken.transfer\n      AND \t\t\ttoken.transfer\n      PUSH A9059CBB\t\t\ttoken.transfer\n      PUSH 0\t\t\towner\n      PUSH 0\t\t\towner\n      SWAP1 \t\t\towner\n      SLOAD \t\t\towner\n      SWAP1 \t\t\towner\n      PUSH 100\t\t\towner\n      EXP \t\t\towner\n      SWAP1 \t\t\towner\n      DIV \t\t\towner\n      PUSH FFFFFFFFFFFFFFFFFFFFFFFFFFFFFFFFFFFFFFFF\t\t\towner\n      AND \t\t\towner\n      DUP5 \t\t\tamount\n      PUSH 40\t\t\ttoken.transfer(owner, amount)\n      MLOAD \t\t\ttoken.transfer(owner, amount)\n      DUP4 \t\t\ttoken.transfer(owner, amount)\n      PUSH FFFFFFFF\t\t\ttoken.transfer(owner, amount)\n      AND \t\t\ttoken.transfer(owner, amount)\n      PUSH E0\t\t\ttoken.transfer(owner, amount)\n      SHL \t\t\ttoken.transfer(owner, amount)\n      DUP2 \t\t\ttoken.transfer(owner, amount)\n      MSTORE \t\t\ttoken.transfer(owner, amount)\n      PUSH 4\t\t\ttoken.transfer(owner, amount)\n      ADD \t\t\ttoken.transfer(owner, amount)\n      PUSH [tag] 52\t\t\ttoken.transfer(owner, amount)\n      SWAP3 \t\t\ttoken.transfer(owner, amount)\n      SWAP2 \t\t\ttoken.transfer(owner, amount)\n      SWAP1 \t\t\ttoken.transfer(owner, amount)\n      PUSH [tag] 53\t\t\ttoken.transfer(owner, amount)\n      JUMP \t\t\ttoken.transfer(owner, amount)\n    tag 52\t\t\ttoken.transfer(owner, amount)\n      JUMPDEST \t\t\ttoken.transfer(owner, amount)\n      PUSH 20\t\t\ttoken.transfer(owner, amount)\n      PUSH 40\t\t\ttoken.transfer(owner, amount)\n      MLOAD \t\t\ttoken.transfer(owner, amount)\n      DUP1 \t\t\ttoken.transfer(owner, amount)\n      DUP4 \t\t\ttoken.transfer(owner, amount)\n      SUB \t\t\ttoken.transfer(owner, amount)\n      DUP2 \t\t\ttoken.transfer(owner, amount)\n      PUSH 0\t\t\ttoken.transfer(owner, amount)\n      DUP8 \t\t\ttoken.transfer(owner, amount)\n      GAS \t\t\ttoken.transfer(owner, amount)\n      CALL \t\t\ttoken.transfer(owner, amount)\n      ISZERO \t\t\ttoken.transfer(owner, amount)\n      DUP1 \t\t\ttoken.transfer(owner, amount)\n      ISZERO \t\t\ttoken.transfer(owner, amount)\n      PUSH [tag] 55\t\t\ttoken.transfer(owner, amount)\n      JUMPI \t\t\ttoken.transfer(owner, amount)\n      RETURNDATASIZE \t\t\ttoken.transfer(owner, amount)\n      PUSH 0\t\t\ttoken.transfer(owner, amount)\n      PUSH 0\t\t\ttoken.transfer(owner, amount)\n      RETURNDATACOPY \t\t\ttoken.transfer(owner, amount)\n      RETURNDATASIZE \t\t\ttoken.transfer(owner, amount)\n      PUSH 0\t\t\ttoken.transfer(owner, amount)\n      REVERT \t\t\ttoken.transfer(owner, amount)\n    tag 55\t\t\ttoken.transfer(owner, amount)\n      JUMPDEST \t\t\ttoken.transfer(owner, amount)\n      POP \t\t\ttoken.transfer(owner, amount)\n      POP \t\t\ttoken.transfer(owner, amount)\n      POP \t\t\ttoken.transfer(owner, amount)\n      POP \t\t\ttoken.transfer(owner, amount)\n      PUSH 40\t\t\ttoken.transfer(owner, amount)\n      MLOAD \t\t\ttoken.transfer(owner, amount)\n      RETURNDATASIZE \t\t\ttoken.transfer(owner, amount)\n      PUSH 1F\t\t\ttoken.transfer(owner, amount)\n      NOT \t\t\ttoken.transfer(owner, amount)\n      PUSH 1F\t\t\ttoken.transfer(owner, amount)\n      DUP3 \t\t\ttoken.transfer(owner, amount)\n      ADD \t\t\ttoken.transfer(owner, amount)\n      AND \t\t\ttoken.transfer(owner, amount)\n      DUP3 \t\t\ttoken.transfer(owner, amount)\n      ADD \t\t\ttoken.transfer(owner, amount)\n      DUP1 \t\t\ttoken.transfer(owner, amount)\n      PUSH 40\t\t\ttoken.transfer(owner, amount)\n      MSTORE \t\t\ttoken.transfer(owner, amount)\n      POP \t\t\ttoken.transfer(owner, amount)\n      DUP2 \t\t\ttoken.transfer(owner, amount)\n      ADD \t\t\ttoken.transfer(owner, amount)\n      SWAP1 \t\t\ttoken.transfer(owner, amount)\n      PUSH [tag] 56\t\t\ttoken.transfer(owner, amount)\n      SWAP2 \t\t\ttoken.transfer(owner, amount)\n      SWAP1 \t\t\ttoken.transfer(owner, amount)\n      PUSH [tag] 57\t\t\ttoken.transfer(owner, amount)\n      JUMP \t\t\ttoken.transfer(owner, amount)\n    tag 56\t\t\ttoken.transfer(owner, amount)\n      JUMPDEST \t\t\ttoken.transfer(owner, amount)\n      PUSH [tag] 58\t\t\trequire(token.transfer(owner, ...\n      JUMPI \t\t\trequire(token.transfer(owner, ...\n      PUSH 40\t\t\trequire(token.transfer(owner, ...\n      MLOAD \t\t\trequire(token.transfer(owner, ...\n      PUSH 8C379A000000000000000000000000000000000000000000000000000000000\t\t\trequire(token.transfer(owner, ...\n      DUP2 \t\t\trequire(token.transfer(owner, ...\n      MSTORE \t\t\trequire(token.transfer(owner, ...\n      PUSH 4\t\t\trequire(token.transfer(owner, ...\n      ADD \t\t\trequire(token.transfer(owner, ...\n      PUSH [tag] 59\t\t\trequire(token.transfer(owner, ...\n      SWAP1 \t\t\trequire(token.transfer(owner, ...\n      PUSH [tag] 60\t\t\trequire(token.transfer(owner, ...\n      JUMP \t\t\trequire(token.transfer(owner, ...\n    tag 59\t\t\trequire(token.transfer(owner, ...\n      JUMPDEST \t\t\trequire(token.transfer(owner, ...\n      PUSH 40\t\t\trequire(token.transfer(owner, ...\n      MLOAD \t\t\trequire(token.transfer(owner, ...\n      DUP1 \t\t\trequire(token.transfer(owner, ...\n      SWAP2 \t\t\trequire(token.transfer(owner, ...\n      SUB \t\t\trequire(token.transfer(owner, ...\n      SWAP1 \t\t\trequire(token.transfer(owner, ...\n      REVERT \t\t\trequire(token.transfer(owner, ...\n    tag 58\t\t\trequire(token.transfer(owner, ...\n      JUMPDEST \t\t\trequire(token.transfer(owner, ...\n      POP \t\t\t{\\r\\n            // Recover ER...\n    tag 51\t\t\tif (tokenAddress == address(0)...\n      JUMPDEST \t\t\tif (tokenAddress == address(0)...\n      POP \t\t\tfunction recoverTokens(address...\n      POP \t\t\tfunction recoverTokens(address...\n      JUMP \t\t\tfunction recoverTokens(address...\n    tag 19\t\t\tfunction batchTransferToken(ad...\n      JUMPDEST \t\t\tfunction batchTransferToken(ad...\n      PUSH 0\t\t\tbool\n      PUSH 0\t\t\towner\n      PUSH 0\t\t\towner\n      SWAP1 \t\t\towner\n      SLOAD \t\t\towner\n      SWAP1 \t\t\towner\n      PUSH 100\t\t\towner\n      EXP \t\t\towner\n      SWAP1 \t\t\towner\n      DIV \t\t\towner\n      PUSH FFFFFFFFFFFFFFFFFFFFFFFFFFFFFFFFFFFFFFFF\t\t\towner\n      AND \t\t\towner\n      PUSH FFFFFFFFFFFFFFFFFFFFFFFFFFFFFFFFFFFFFFFF\t\t\tmsg.sender == owner\n      AND \t\t\tmsg.sender == owner\n      CALLER \t\t\tmsg.sender\n      PUSH FFFFFFFFFFFFFFFFFFFFFFFFFFFFFFFFFFFFFFFF\t\t\tmsg.sender == owner\n      AND \t\t\tmsg.sender == owner\n      EQ \t\t\tmsg.sender == owner\n      PUSH [tag] 62\t\t\trequire(msg.sender == owner, \"...\n      JUMPI \t\t\trequire(msg.sender == owner, \"...\n      PUSH 40\t\t\trequire(msg.sender == owner, \"...\n      MLOAD \t\t\trequire(msg.sender == owner, \"...\n      PUSH 8C379A000000000000000000000000000000000000000000000000000000000\t\t\trequire(msg.sender == owner, \"...\n      DUP2 \t\t\trequire(msg.sender == owner, \"...\n      MSTORE \t\t\trequire(msg.sender == owner, \"...\n      PUSH 4\t\t\trequire(msg.sender == owner, \"...\n      ADD \t\t\trequire(msg.sender == owner, \"...\n      PUSH [tag] 63\t\t\trequire(msg.sender == owner, \"...\n      SWAP1 \t\t\trequire(msg.sender == owner, \"...\n      PUSH [tag] 40\t\t\trequire(msg.sender == owner, \"...\n      JUMP \t\t\trequire(msg.sender == owner, \"...\n    tag 63\t\t\trequire(msg.sender == owner, \"...\n      JUMPDEST \t\t\trequire(msg.sender == owner, \"...\n      PUSH 40\t\t\trequire(msg.sender == owner, \"...\n      MLOAD \t\t\trequire(msg.sender == owner, \"...\n      DUP1 \t\t\trequire(msg.sender == owner, \"...\n      SWAP2 \t\t\trequire(msg.sender == owner, \"...\n      SUB \t\t\trequire(msg.sender == owner, \"...\n      SWAP1 \t\t\trequire(msg.sender == owner, \"...\n      REVERT \t\t\trequire(msg.sender == owner, \"...\n    tag 62\t\t\trequire(msg.sender == owner, \"...\n      JUMPDEST \t\t\trequire(msg.sender == owner, \"...\n      PUSH 0\t\t\tuint256 totalRecipients\n      DUP6 \t\t\trecipients\n      DUP6 \t\t\trecipients\n      SWAP1 \t\t\trecipients.length\n      POP \t\t\trecipients.length\n      SWAP1 \t\t\tuint256 totalRecipients = reci...\n      POP \t\t\tuint256 totalRecipients = reci...\n      DUP4 \t\t\tamounts\n      DUP4 \t\t\tamounts\n      SWAP1 \t\t\tamounts.length\n      POP \t\t\tamounts.length\n      DUP2 \t\t\ttotalRecipients\n      EQ \t\t\ttotalRecipients == amounts.len...\n      PUSH [tag] 65\t\t\trequire(totalRecipients == amo...\n      JUMPI \t\t\trequire(totalRecipients == amo...\n      PUSH 40\t\t\trequire(totalRecipients == amo...\n      MLOAD \t\t\trequire(totalRecipients == amo...\n      PUSH 8C379A000000000000000000000000000000000000000000000000000000000\t\t\trequire(totalRecipients == amo...\n      DUP2 \t\t\trequire(totalRecipients == amo...\n      MSTORE \t\t\trequire(totalRecipients == amo...\n      PUSH 4\t\t\trequire(totalRecipients == amo...\n      ADD \t\t\trequire(totalRecipients == amo...\n      PUSH [tag] 66\t\t\trequire(totalRecipients == amo...\n      SWAP1 \t\t\trequire(totalRecipients == amo...\n      PUSH [tag] 67\t\t\trequire(totalRecipients == amo...\n      JUMP \t\t\trequire(totalRecipients == amo...\n    tag 66\t\t\trequire(totalRecipients == amo...\n      JUMPDEST \t\t\trequire(totalRecipients == amo...\n      PUSH 40\t\t\trequire(totalRecipients == amo...\n      MLOAD \t\t\trequire(totalRecipients == amo...\n      DUP1 \t\t\trequire(totalRecipients == amo...\n      SWAP2 \t\t\trequire(totalRecipients == amo...\n      SUB \t\t\trequire(totalRecipients == amo...\n      SWAP1 \t\t\trequire(totalRecipients == amo...\n      REVERT \t\t\trequire(totalRecipients == amo...\n    tag 65\t\t\trequire(totalRecipients == amo...\n      JUMPDEST \t\t\trequire(totalRecipients == amo...\n      PUSH 7D0\t\t\t2000\n      DUP2 \t\t\ttotalRecipients\n      GT \t\t\ttotalRecipients <= 2000\n      ISZERO \t\t\ttotalRecipients <= 2000\n      PUSH [tag] 68\t\t\trequire(totalRecipients <= 200...\n      JUMPI \t\t\trequire(totalRecipients <= 200...\n      PUSH 40\t\t\trequire(totalRecipients <= 200...\n      MLOAD \t\t\trequire(totalRecipients <= 200...\n      PUSH 8C379A000000000000000000000000000000000000000000000000000000000\t\t\trequire(totalRecipients <= 200...\n      DUP2 \t\t\trequire(totalRecipients <= 200...\n      MSTORE \t\t\trequire(totalRecipients <= 200...\n      PUSH 4\t\t\trequire(totalRecipients <= 200...\n      ADD \t\t\trequire(totalRecipients <= 200...\n      PUSH [tag] 69\t\t\trequire(totalRecipients <= 200...\n      SWAP1 \t\t\trequire(totalRecipients <= 200...\n      PUSH [tag] 70\t\t\trequire(totalRecipients <= 200...\n      JUMP \t\t\trequire(totalRecipients <= 200...\n    tag 69\t\t\trequire(totalRecipients <= 200...\n      JUMPDEST \t\t\trequire(totalRecipients <= 200...\n      PUSH 40\t\t\trequire(totalRecipients <= 200...\n      MLOAD \t\t\trequire(totalRecipients <= 200...\n      DUP1 \t\t\trequire(totalRecipients <= 200...\n      SWAP2 \t\t\trequire(totalRecipients <= 200...\n      SUB \t\t\trequire(totalRecipients <= 200...\n      SWAP1 \t\t\trequire(totalRecipients <= 200...\n      REVERT \t\t\trequire(totalRecipients <= 200...\n    tag 68\t\t\trequire(totalRecipients <= 200...\n      JUMPDEST \t\t\trequire(totalRecipients <= 200...\n      PUSH 0\t\t\tIERC20 token\n      DUP8 \t\t\ttokenAddress\n      SWAP1 \t\t\tIERC20 token = IERC20(tokenAdd...\n      POP \t\t\tIERC20 token = IERC20(tokenAdd...\n      PUSH 0\t\t\tuint256 totalAmount\n      PUSH 0\t\t\t0\n      SWAP1 \t\t\tuint256 totalAmount = 0\n      POP \t\t\tuint256 totalAmount = 0\n      PUSH 0\t\t\tuint256 i\n      PUSH 0\t\t\t0\n      SWAP1 \t\t\tuint256 i = 0\n      POP \t\t\tuint256 i = 0\n    tag 71\t\t\tfor (uint256 i = 0; i < totalR...\n      JUMPDEST \t\t\tfor (uint256 i = 0; i < totalR...\n      DUP4 \t\t\ttotalRecipients\n      DUP2 \t\t\ti\n      LT \t\t\ti < totalRecipients\n      ISZERO \t\t\tfor (uint256 i = 0; i < totalR...\n      PUSH [tag] 72\t\t\tfor (uint256 i = 0; i < totalR...\n      JUMPI \t\t\tfor (uint256 i = 0; i < totalR...\n      DUP7 \t\t\tamounts\n      DUP7 \t\t\tamounts\n      DUP3 \t\t\ti\n      DUP2 \t\t\tamounts[i]\n      DUP2 \t\t\tamounts[i]\n      LT \t\t\tamounts[i]\n      PUSH [tag] 74\t\t\tamounts[i]\n      JUMPI \t\t\tamounts[i]\n      PUSH [tag] 75\t\t\tamounts[i]\n      PUSH [tag] 76\t\t\tamounts[i]\n      JUMP \t\t\tamounts[i]\n    tag 75\t\t\tamounts[i]\n      JUMPDEST \t\t\tamounts[i]\n    tag 74\t\t\tamounts[i]\n      JUMPDEST \t\t\tamounts[i]\n      SWAP1 \t\t\tamounts[i]\n      POP \t\t\tamounts[i]\n      PUSH 20\t\t\tamounts[i]\n      MUL \t\t\tamounts[i]\n      ADD \t\t\tamounts[i]\n      CALLDATALOAD \t\t\tamounts[i]\n      DUP3 \t\t\ttotalAmount += amounts[i]\n      PUSH [tag] 77\t\t\ttotalAmount += amounts[i]\n      SWAP2 \t\t\ttotalAmount += amounts[i]\n      SWAP1 \t\t\ttotalAmount += amounts[i]\n      PUSH [tag] 78\t\t\ttotalAmount += amounts[i]\n      JUMP \t\t\ttotalAmount += amounts[i]\n    tag 77\t\t\ttotalAmount += amounts[i]\n      JUMPDEST \t\t\ttotalAmount += amounts[i]\n      SWAP2 \t\t\ttotalAmount += amounts[i]\n      POP \t\t\ttotalAmount += amounts[i]\n      DUP1 \t\t\ti++\n      DUP1 \t\t\ti++\n      PUSH 1\t\t\ti++\n      ADD \t\t\ti++\n      SWAP2 \t\t\ti++\n      POP \t\t\ti++\n      POP \t\t\ti++\n      PUSH [tag] 71\t\t\tfor (uint256 i = 0; i < totalR...\n      JUMP \t\t\tfor (uint256 i = 0; i < totalR...\n    tag 72\t\t\tfor (uint256 i = 0; i < totalR...\n      JUMPDEST \t\t\tfor (uint256 i = 0; i < totalR...\n      POP \t\t\tfor (uint256 i = 0; i < totalR...\n      DUP1 \t\t\ttotalAmount\n      DUP3 \t\t\ttoken\n      PUSH FFFFFFFFFFFFFFFFFFFFFFFFFFFFFFFFFFFFFFFF\t\t\ttoken.allowance\n      AND \t\t\ttoken.allowance\n      PUSH DD62ED3E\t\t\ttoken.allowance\n      CALLER \t\t\tmsg.sender\n      ADDRESS \t\t\tthis\n      PUSH 40\t\t\ttoken.allowance(msg.sender, ad...\n      MLOAD \t\t\ttoken.allowance(msg.sender, ad...\n      DUP4 \t\t\ttoken.allowance(msg.sender, ad...\n      PUSH FFFFFFFF\t\t\ttoken.allowance(msg.sender, ad...\n      AND \t\t\ttoken.allowance(msg.sender, ad...\n      PUSH E0\t\t\ttoken.allowance(msg.sender, ad...\n      SHL \t\t\ttoken.allowance(msg.sender, ad...\n      DUP2 \t\t\ttoken.allowance(msg.sender, ad...\n      MSTORE \t\t\ttoken.allowance(msg.sender, ad...\n      PUSH 4\t\t\ttoken.allowance(msg.sender, ad...\n      ADD \t\t\ttoken.allowance(msg.sender, ad...\n      PUSH [tag] 79\t\t\ttoken.allowance(msg.sender, ad...\n      SWAP3 \t\t\ttoken.allowance(msg.sender, ad...\n      SWAP2 \t\t\ttoken.allowance(msg.sender, ad...\n      SWAP1 \t\t\ttoken.allowance(msg.sender, ad...\n      PUSH [tag] 80\t\t\ttoken.allowance(msg.sender, ad...\n      JUMP \t\t\ttoken.allowance(msg.sender, ad...\n    tag 79\t\t\ttoken.allowance(msg.sender, ad...\n      JUMPDEST \t\t\ttoken.allowance(msg.sender, ad...\n      PUSH 20\t\t\ttoken.allowance(msg.sender, ad...\n      PUSH 40\t\t\ttoken.allowance(msg.sender, ad...\n      MLOAD \t\t\ttoken.allowance(msg.sender, ad...\n      DUP1 \t\t\ttoken.allowance(msg.sender, ad...\n      DUP4 \t\t\ttoken.allowance(msg.sender, ad...\n      SUB \t\t\ttoken.allowance(msg.sender, ad...\n      DUP2 \t\t\ttoken.allowance(msg.sender, ad...\n      DUP7 \t\t\ttoken.allowance(msg.sender, ad...\n      GAS \t\t\ttoken.allowance(msg.sender, ad...\n      STATICCALL \t\t\ttoken.allowance(msg.sender, ad...\n      ISZERO \t\t\ttoken.allowance(msg.sender, ad...\n      DUP1 \t\t\ttoken.allowance(msg.sender, ad...\n      ISZERO \t\t\ttoken.allowance(msg.sender, ad...\n      PUSH [tag] 82\t\t\ttoken.allowance(msg.sender, ad...\n      JUMPI \t\t\ttoken.allowance(msg.sender, ad...\n      RETURNDATASIZE \t\t\ttoken.allowance(msg.sender, ad...\n      PUSH 0\t\t\ttoken.allowance(msg.sender, ad...\n      PUSH 0\t\t\ttoken.allowance(msg.sender, ad...\n      RETURNDATACOPY \t\t\ttoken.allowance(msg.sender, ad...\n      RETURNDATASIZE \t\t\ttoken.allowance(msg.sender, ad...\n      PUSH 0\t\t\ttoken.allowance(msg.sender, ad...\n      REVERT \t\t\ttoken.allowance(msg.sender, ad...\n    tag 82\t\t\ttoken.allowance(msg.sender, ad...\n      JUMPDEST \t\t\ttoken.allowance(msg.sender, ad...\n      POP \t\t\ttoken.allowance(msg.sender, ad...\n      POP \t\t\ttoken.allowance(msg.sender, ad...\n      POP \t\t\ttoken.allowance(msg.sender, ad...\n      POP \t\t\ttoken.allowance(msg.sender, ad...\n      PUSH 40\t\t\ttoken.allowance(msg.sender, ad...\n      MLOAD \t\t\ttoken.allowance(msg.sender, ad...\n      RETURNDATASIZE \t\t\ttoken.allowance(msg.sender, ad...\n      PUSH 1F\t\t\ttoken.allowance(msg.sender, ad...\n      NOT \t\t\ttoken.allowance(msg.sender, ad...\n      PUSH 1F\t\t\ttoken.allowance(msg.sender, ad...\n      DUP3 \t\t\ttoken.allowance(msg.sender, ad...\n      ADD \t\t\ttoken.allowance(msg.sender, ad...\n      AND \t\t\ttoken.allowance(msg.sender, ad...\n      DUP3 \t\t\ttoken.allowance(msg.sender, ad...\n      ADD \t\t\ttoken.allowance(msg.sender, ad...\n      DUP1 \t\t\ttoken.allowance(msg.sender, ad...\n      PUSH 40\t\t\ttoken.allowance(msg.sender, ad...\n      MSTORE \t\t\ttoken.allowance(msg.sender, ad...\n      POP \t\t\ttoken.allowance(msg.sender, ad...\n      DUP2 \t\t\ttoken.allowance(msg.sender, ad...\n      ADD \t\t\ttoken.allowance(msg.sender, ad...\n      SWAP1 \t\t\ttoken.allowance(msg.sender, ad...\n      PUSH [tag] 83\t\t\ttoken.allowance(msg.sender, ad...\n      SWAP2 \t\t\ttoken.allowance(msg.sender, ad...\n      SWAP1 \t\t\ttoken.allowance(msg.sender, ad...\n      PUSH [tag] 84\t\t\ttoken.allowance(msg.sender, ad...\n      JUMP \t\t\ttoken.allowance(msg.sender, ad...\n    tag 83\t\t\ttoken.allowance(msg.sender, ad...\n      JUMPDEST \t\t\ttoken.allowance(msg.sender, ad...\n      LT \t\t\ttoken.allowance(msg.sender, ad...\n      ISZERO \t\t\ttoken.allowance(msg.sender, ad...\n      PUSH [tag] 85\t\t\trequire(token.allowance(msg.se...\n      JUMPI \t\t\trequire(token.allowance(msg.se...\n      PUSH 40\t\t\trequire(token.allowance(msg.se...\n      MLOAD \t\t\trequire(token.allowance(msg.se...\n      PUSH 8C379A000000000000000000000000000000000000000000000000000000000\t\t\trequire(token.allowance(msg.se...\n      DUP2 \t\t\trequire(token.allowance(msg.se...\n      MSTORE \t\t\trequire(token.allowance(msg.se...\n      PUSH 4\t\t\trequire(token.allowance(msg.se...\n      ADD \t\t\trequire(token.allowance(msg.se...\n      PUSH [tag] 86\t\t\trequire(token.allowance(msg.se...\n      SWAP1 \t\t\trequire(token.allowance(msg.se...\n      PUSH [tag] 87\t\t\trequire(token.allowance(msg.se...\n      JUMP \t\t\trequire(token.allowance(msg.se...\n    tag 86\t\t\trequire(token.allowance(msg.se...\n      JUMPDEST \t\t\trequire(token.allowance(msg.se...\n      PUSH 40\t\t\trequire(token.allowance(msg.se...\n      MLOAD \t\t\trequire(token.allowance(msg.se...\n      DUP1 \t\t\trequire(token.allowance(msg.se...\n      SWAP2 \t\t\trequire(token.allowance(msg.se...\n      SUB \t\t\trequire(token.allowance(msg.se...\n      SWAP1 \t\t\trequire(token.allowance(msg.se...\n      REVERT \t\t\trequire(token.allowance(msg.se...\n    tag 85\t\t\trequire(token.allowance(msg.se...\n      JUMPDEST \t\t\trequire(token.allowance(msg.se...\n      DUP2 \t\t\ttoken\n      PUSH FFFFFFFFFFFFFFFFFFFFFFFFFFFFFFFFFFFFFFFF\t\t\ttoken.transferFrom\n      AND \t\t\ttoken.transferFrom\n      PUSH 23B872DD\t\t\ttoken.transferFrom\n      CALLER \t\t\tmsg.sender\n      ADDRESS \t\t\tthis\n      DUP5 \t\t\ttotalAmount\n      PUSH 40\t\t\ttoken.transferFrom(msg.sender,...\n      MLOAD \t\t\ttoken.transferFrom(msg.sender,...\n      DUP5 \t\t\ttoken.transferFrom(msg.sender,...\n      PUSH FFFFFFFF\t\t\ttoken.transferFrom(msg.sender,...\n      AND \t\t\ttoken.transferFrom(msg.sender,...\n      PUSH E0\t\t\ttoken.transferFrom(msg.sender,...\n      SHL \t\t\ttoken.transferFrom(msg.sender,...\n      DUP2 \t\t\ttoken.transferFrom(msg.sender,...\n      MSTORE \t\t\ttoken.transferFrom(msg.sender,...\n      PUSH 4\t\t\ttoken.transferFrom(msg.sender,...\n      ADD \t\t\ttoken.transferFrom(msg.sender,...\n      PUSH [tag] 88\t\t\ttoken.transferFrom(msg.sender,...\n      SWAP4 \t\t\ttoken.transferFrom(msg.sender,...\n      SWAP3 \t\t\ttoken.transferFrom(msg.sender,...\n      SWAP2 \t\t\ttoken.transferFrom(msg.sender,...\n      SWAP1 \t\t\ttoken.transferFrom(msg.sender,...\n      PUSH [tag] 89\t\t\ttoken.transferFrom(msg.sender,...\n      JUMP \t\t\ttoken.transferFrom(msg.sender,...\n    tag 88\t\t\ttoken.transferFrom(msg.sender,...\n      JUMPDEST \t\t\ttoken.transferFrom(msg.sender,...\n      PUSH 20\t\t\ttoken.transferFrom(msg.sender,...\n      PUSH 40\t\t\ttoken.transferFrom(msg.sender,...\n      MLOAD \t\t\ttoken.transferFrom(msg.sender,...\n      DUP1 \t\t\ttoken.transferFrom(msg.sender,...\n      DUP4 \t\t\ttoken.transferFrom(msg.sender,...\n      SUB \t\t\ttoken.transferFrom(msg.sender,...\n      DUP2 \t\t\ttoken.transferFrom(msg.sender,...\n      PUSH 0\t\t\ttoken.transferFrom(msg.sender,...\n      DUP8 \t\t\ttoken.transferFrom(msg.sender,...\n      GAS \t\t\ttoken.transferFrom(msg.sender,...\n      CALL \t\t\ttoken.transferFrom(msg.sender,...\n      ISZERO \t\t\ttoken.transferFrom(msg.sender,...\n      DUP1 \t\t\ttoken.transferFrom(msg.sender,...\n      ISZERO \t\t\ttoken.transferFrom(msg.sender,...\n      PUSH [tag] 91\t\t\ttoken.transferFrom(msg.sender,...\n      JUMPI \t\t\ttoken.transferFrom(msg.sender,...\n      RETURNDATASIZE \t\t\ttoken.transferFrom(msg.sender,...\n      PUSH 0\t\t\ttoken.transferFrom(msg.sender,...\n      PUSH 0\t\t\ttoken.transferFrom(msg.sender,...\n      RETURNDATACOPY \t\t\ttoken.transferFrom(msg.sender,...\n      RETURNDATASIZE \t\t\ttoken.transferFrom(msg.sender,...\n      PUSH 0\t\t\ttoken.transferFrom(msg.sender,...\n      REVERT \t\t\ttoken.transferFrom(msg.sender,...\n    tag 91\t\t\ttoken.transferFrom(msg.sender,...\n      JUMPDEST \t\t\ttoken.transferFrom(msg.sender,...\n      POP \t\t\ttoken.transferFrom(msg.sender,...\n      POP \t\t\ttoken.transferFrom(msg.sender,...\n      POP \t\t\ttoken.transferFrom(msg.sender,...\n      POP \t\t\ttoken.transferFrom(msg.sender,...\n      PUSH 40\t\t\ttoken.transferFrom(msg.sender,...\n      MLOAD \t\t\ttoken.transferFrom(msg.sender,...\n      RETURNDATASIZE \t\t\ttoken.transferFrom(msg.sender,...\n      PUSH 1F\t\t\ttoken.transferFrom(msg.sender,...\n      NOT \t\t\ttoken.transferFrom(msg.sender,...\n      PUSH 1F\t\t\ttoken.transferFrom(msg.sender,...\n      DUP3 \t\t\ttoken.transferFrom(msg.sender,...\n      ADD \t\t\ttoken.transferFrom(msg.sender,...\n      AND \t\t\ttoken.transferFrom(msg.sender,...\n      DUP3 \t\t\ttoken.transferFrom(msg.sender,...\n      ADD \t\t\ttoken.transferFrom(msg.sender,...\n      DUP1 \t\t\ttoken.transferFrom(msg.sender,...\n      PUSH 40\t\t\ttoken.transferFrom(msg.sender,...\n      MSTORE \t\t\ttoken.transferFrom(msg.sender,...\n      POP \t\t\ttoken.transferFrom(msg.sender,...\n      DUP2 \t\t\ttoken.transferFrom(msg.sender,...\n      ADD \t\t\ttoken.transferFrom(msg.sender,...\n      SWAP1 \t\t\ttoken.transferFrom(msg.sender,...\n      PUSH [tag] 92\t\t\ttoken.transferFrom(msg.sender,...\n      SWAP2 \t\t\ttoken.transferFrom(msg.sender,...\n      SWAP1 \t\t\ttoken.transferFrom(msg.sender,...\n      PUSH [tag] 57\t\t\ttoken.transferFrom(msg.sender,...\n      JUMP \t\t\ttoken.transferFrom(msg.sender,...\n    tag 92\t\t\ttoken.transferFrom(msg.sender,...\n      JUMPDEST \t\t\ttoken.transferFrom(msg.sender,...\n      PUSH [tag] 93\t\t\trequire(token.transferFrom(msg...\n      JUMPI \t\t\trequire(token.transferFrom(msg...\n      PUSH 40\t\t\trequire(token.transferFrom(msg...\n      MLOAD \t\t\trequire(token.transferFrom(msg...\n      PUSH 8C379A000000000000000000000000000000000000000000000000000000000\t\t\trequire(token.transferFrom(msg...\n      DUP2 \t\t\trequire(token.transferFrom(msg...\n      MSTORE \t\t\trequire(token.transferFrom(msg...\n      PUSH 4\t\t\trequire(token.transferFrom(msg...\n      ADD \t\t\trequire(token.transferFrom(msg...\n      PUSH [tag] 94\t\t\trequire(token.transferFrom(msg...\n      SWAP1 \t\t\trequire(token.transferFrom(msg...\n      PUSH [tag] 95\t\t\trequire(token.transferFrom(msg...\n      JUMP \t\t\trequire(token.transferFrom(msg...\n    tag 94\t\t\trequire(token.transferFrom(msg...\n      JUMPDEST \t\t\trequire(token.transferFrom(msg...\n      PUSH 40\t\t\trequire(token.transferFrom(msg...\n      MLOAD \t\t\trequire(token.transferFrom(msg...\n      DUP1 \t\t\trequire(token.transferFrom(msg...\n      SWAP2 \t\t\trequire(token.transferFrom(msg...\n      SUB \t\t\trequire(token.transferFrom(msg...\n      SWAP1 \t\t\trequire(token.transferFrom(msg...\n      REVERT \t\t\trequire(token.transferFrom(msg...\n    tag 93\t\t\trequire(token.transferFrom(msg...\n      JUMPDEST \t\t\trequire(token.transferFrom(msg...\n      PUSH 0\t\t\tuint256 i\n      PUSH 0\t\t\t0\n      SWAP1 \t\t\tuint256 i = 0\n      POP \t\t\tuint256 i = 0\n    tag 96\t\t\tfor (uint256 i = 0; i < totalR...\n      JUMPDEST \t\t\tfor (uint256 i = 0; i < totalR...\n      DUP4 \t\t\ttotalRecipients\n      DUP2 \t\t\ti\n      LT \t\t\ti < totalRecipients\n      ISZERO \t\t\tfor (uint256 i = 0; i < totalR...\n      PUSH [tag] 97\t\t\tfor (uint256 i = 0; i < totalR...\n      JUMPI \t\t\tfor (uint256 i = 0; i < totalR...\n      PUSH 0\t\t\t0\n      PUSH FFFFFFFFFFFFFFFFFFFFFFFFFFFFFFFFFFFFFFFF\t\t\trecipients[i] != address(0)\n      AND \t\t\trecipients[i] != address(0)\n      DUP10 \t\t\trecipients\n      DUP10 \t\t\trecipients\n      DUP4 \t\t\ti\n      DUP2 \t\t\trecipients[i]\n      DUP2 \t\t\trecipients[i]\n      LT \t\t\trecipients[i]\n      PUSH [tag] 99\t\t\trecipients[i]\n      JUMPI \t\t\trecipients[i]\n      PUSH [tag] 100\t\t\trecipients[i]\n      PUSH [tag] 76\t\t\trecipients[i]\n      JUMP \t\t\trecipients[i]\n    tag 100\t\t\trecipients[i]\n      JUMPDEST \t\t\trecipients[i]\n    tag 99\t\t\trecipients[i]\n      JUMPDEST \t\t\trecipients[i]\n      SWAP1 \t\t\trecipients[i]\n      POP \t\t\trecipients[i]\n      PUSH 20\t\t\trecipients[i]\n      MUL \t\t\trecipients[i]\n      ADD \t\t\trecipients[i]\n      PUSH 20\t\t\trecipients[i]\n      DUP2 \t\t\trecipients[i]\n      ADD \t\t\trecipients[i]\n      SWAP1 \t\t\trecipients[i]\n      PUSH [tag] 101\t\t\trecipients[i]\n      SWAP2 \t\t\trecipients[i]\n      SWAP1 \t\t\trecipients[i]\n      PUSH [tag] 35\t\t\trecipients[i]\n      JUMP \t\t\trecipients[i]\n    tag 101\t\t\trecipients[i]\n      JUMPDEST \t\t\trecipients[i]\n      PUSH FFFFFFFFFFFFFFFFFFFFFFFFFFFFFFFFFFFFFFFF\t\t\trecipients[i] != address(0)\n      AND \t\t\trecipients[i] != address(0)\n      SUB \t\t\trecipients[i] != address(0)\n      PUSH [tag] 102\t\t\trequire(recipients[i] != addre...\n      JUMPI \t\t\trequire(recipients[i] != addre...\n      PUSH 40\t\t\trequire(recipients[i] != addre...\n      MLOAD \t\t\trequire(recipients[i] != addre...\n      PUSH 8C379A000000000000000000000000000000000000000000000000000000000\t\t\trequire(recipients[i] != addre...\n      DUP2 \t\t\trequire(recipients[i] != addre...\n      MSTORE \t\t\trequire(recipients[i] != addre...\n      PUSH 4\t\t\trequire(recipients[i] != addre...\n      ADD \t\t\trequire(recipients[i] != addre...\n      PUSH [tag] 103\t\t\trequire(recipients[i] != addre...\n      SWAP1 \t\t\trequire(recipients[i] != addre...\n      PUSH [tag] 104\t\t\trequire(recipients[i] != addre...\n      JUMP \t\t\trequire(recipients[i] != addre...\n    tag 103\t\t\trequire(recipients[i] != addre...\n      JUMPDEST \t\t\trequire(recipients[i] != addre...\n      PUSH 40\t\t\trequire(recipients[i] != addre...\n      MLOAD \t\t\trequire(recipients[i] != addre...\n      DUP1 \t\t\trequire(recipients[i] != addre...\n      SWAP2 \t\t\trequire(recipients[i] != addre...\n      SUB \t\t\trequire(recipients[i] != addre...\n      SWAP1 \t\t\trequire(recipients[i] != addre...\n      REVERT \t\t\trequire(recipients[i] != addre...\n    tag 102\t\t\trequire(recipients[i] != addre...\n      JUMPDEST \t\t\trequire(recipients[i] != addre...\n      DUP3 \t\t\ttoken\n      PUSH FFFFFFFFFFFFFFFFFFFFFFFFFFFFFFFFFFFFFFFF\t\t\ttoken.transfer\n      AND \t\t\ttoken.transfer\n      PUSH A9059CBB\t\t\ttoken.transfer\n      DUP11 \t\t\trecipients\n      DUP11 \t\t\trecipients\n      DUP5 \t\t\ti\n      DUP2 \t\t\trecipients[i]\n      DUP2 \t\t\trecipients[i]\n      LT \t\t\trecipients[i]\n      PUSH [tag] 105\t\t\trecipients[i]\n      JUMPI \t\t\trecipients[i]\n      PUSH [tag] 106\t\t\trecipients[i]\n      PUSH [tag] 76\t\t\trecipients[i]\n      JUMP \t\t\trecipients[i]\n    tag 106\t\t\trecipients[i]\n      JUMPDEST \t\t\trecipients[i]\n    tag 105\t\t\trecipients[i]\n      JUMPDEST \t\t\trecipients[i]\n      SWAP1 \t\t\trecipients[i]\n      POP \t\t\trecipients[i]\n      PUSH 20\t\t\trecipients[i]\n      MUL \t\t\trecipients[i]\n      ADD \t\t\trecipients[i]\n      PUSH 20\t\t\trecipients[i]\n      DUP2 \t\t\trecipients[i]\n      ADD \t\t\trecipients[i]\n      SWAP1 \t\t\trecipients[i]\n      PUSH [tag] 107\t\t\trecipients[i]\n      SWAP2 \t\t\trecipients[i]\n      SWAP1 \t\t\trecipients[i]\n      PUSH [tag] 35\t\t\trecipients[i]\n      JUMP \t\t\trecipients[i]\n    tag 107\t\t\trecipients[i]\n      JUMPDEST \t\t\trecipients[i]\n      DUP10 \t\t\tamounts\n      DUP10 \t\t\tamounts\n      DUP6 \t\t\ti\n      DUP2 \t\t\tamounts[i]\n      DUP2 \t\t\tamounts[i]\n      LT \t\t\tamounts[i]\n      PUSH [tag] 108\t\t\tamounts[i]\n      JUMPI \t\t\tamounts[i]\n      PUSH [tag] 109\t\t\tamounts[i]\n      PUSH [tag] 76\t\t\tamounts[i]\n      JUMP \t\t\tamounts[i]\n    tag 109\t\t\tamounts[i]\n      JUMPDEST \t\t\tamounts[i]\n    tag 108\t\t\tamounts[i]\n      JUMPDEST \t\t\tamounts[i]\n      SWAP1 \t\t\tamounts[i]\n      POP \t\t\tamounts[i]\n      PUSH 20\t\t\tamounts[i]\n      MUL \t\t\tamounts[i]\n      ADD \t\t\tamounts[i]\n      CALLDATALOAD \t\t\tamounts[i]\n      PUSH 40\t\t\ttoken.transfer(recipients[i], ...\n      MLOAD \t\t\ttoken.transfer(recipients[i], ...\n      DUP4 \t\t\ttoken.transfer(recipients[i], ...\n      PUSH FFFFFFFF\t\t\ttoken.transfer(recipients[i], ...\n      AND \t\t\ttoken.transfer(recipients[i], ...\n      PUSH E0\t\t\ttoken.transfer(recipients[i], ...\n      SHL \t\t\ttoken.transfer(recipients[i], ...\n      DUP2 \t\t\ttoken.transfer(recipients[i], ...\n      MSTORE \t\t\ttoken.transfer(recipients[i], ...\n      PUSH 4\t\t\ttoken.transfer(recipients[i], ...\n      ADD \t\t\ttoken.transfer(recipients[i], ...\n      PUSH [tag] 110\t\t\ttoken.transfer(recipients[i], ...\n      SWAP3 \t\t\ttoken.transfer(recipients[i], ...\n      SWAP2 \t\t\ttoken.transfer(recipients[i], ...\n      SWAP1 \t\t\ttoken.transfer(recipients[i], ...\n      PUSH [tag] 53\t\t\ttoken.transfer(recipients[i], ...\n      JUMP \t\t\ttoken.transfer(recipients[i], ...\n    tag 110\t\t\ttoken.transfer(recipients[i], ...\n      JUMPDEST \t\t\ttoken.transfer(recipients[i], ...\n      PUSH 20\t\t\ttoken.transfer(recipients[i], ...\n      PUSH 40\t\t\ttoken.transfer(recipients[i], ...\n      MLOAD \t\t\ttoken.transfer(recipients[i], ...\n      DUP1 \t\t\ttoken.transfer(recipients[i], ...\n      DUP4 \t\t\ttoken.transfer(recipients[i], ...\n      SUB \t\t\ttoken.transfer(recipients[i], ...\n      DUP2 \t\t\ttoken.transfer(recipients[i], ...\n      PUSH 0\t\t\ttoken.transfer(recipients[i], ...\n      DUP8 \t\t\ttoken.transfer(recipients[i], ...\n      GAS \t\t\ttoken.transfer(recipients[i], ...\n      CALL \t\t\ttoken.transfer(recipients[i], ...\n      ISZERO \t\t\ttoken.transfer(recipients[i], ...\n      DUP1 \t\t\ttoken.transfer(recipients[i], ...\n      ISZERO \t\t\ttoken.transfer(recipients[i], ...\n      PUSH [tag] 112\t\t\ttoken.transfer(recipients[i], ...\n      JUMPI \t\t\ttoken.transfer(recipients[i], ...\n      RETURNDATASIZE \t\t\ttoken.transfer(recipients[i], ...\n      PUSH 0\t\t\ttoken.transfer(recipients[i], ...\n      PUSH 0\t\t\ttoken.transfer(recipients[i], ...\n      RETURNDATACOPY \t\t\ttoken.transfer(recipients[i], ...\n      RETURNDATASIZE \t\t\ttoken.transfer(recipients[i], ...\n      PUSH 0\t\t\ttoken.transfer(recipients[i], ...\n      REVERT \t\t\ttoken.transfer(recipients[i], ...\n    tag 112\t\t\ttoken.transfer(recipients[i], ...\n      JUMPDEST \t\t\ttoken.transfer(recipients[i], ...\n      POP \t\t\ttoken.transfer(recipients[i], ...\n      POP \t\t\ttoken.transfer(recipients[i], ...\n      POP \t\t\ttoken.transfer(recipients[i], ...\n      POP \t\t\ttoken.transfer(recipients[i], ...\n      PUSH 40\t\t\ttoken.transfer(recipients[i], ...\n      MLOAD \t\t\ttoken.transfer(recipients[i], ...\n      RETURNDATASIZE \t\t\ttoken.transfer(recipients[i], ...\n      PUSH 1F\t\t\ttoken.transfer(recipients[i], ...\n      NOT \t\t\ttoken.transfer(recipients[i], ...\n      PUSH 1F\t\t\ttoken.transfer(recipients[i], ...\n      DUP3 \t\t\ttoken.transfer(recipients[i], ...\n      ADD \t\t\ttoken.transfer(recipients[i], ...\n      AND \t\t\ttoken.transfer(recipients[i], ...\n      DUP3 \t\t\ttoken.transfer(recipients[i], ...\n      ADD \t\t\ttoken.transfer(recipients[i], ...\n      DUP1 \t\t\ttoken.transfer(recipients[i], ...\n      PUSH 40\t\t\ttoken.transfer(recipients[i], ...\n      MSTORE \t\t\ttoken.transfer(recipients[i], ...\n      POP \t\t\ttoken.transfer(recipients[i], ...\n      DUP2 \t\t\ttoken.transfer(recipients[i], ...\n      ADD \t\t\ttoken.transfer(recipients[i], ...\n      SWAP1 \t\t\ttoken.transfer(recipients[i], ...\n      PUSH [tag] 113\t\t\ttoken.transfer(recipients[i], ...\n      SWAP2 \t\t\ttoken.transfer(recipients[i], ...\n      SWAP1 \t\t\ttoken.transfer(recipients[i], ...\n      PUSH [tag] 57\t\t\ttoken.transfer(recipients[i], ...\n      JUMP \t\t\ttoken.transfer(recipients[i], ...\n    tag 113\t\t\ttoken.transfer(recipients[i], ...\n      JUMPDEST \t\t\ttoken.transfer(recipients[i], ...\n      PUSH [tag] 114\t\t\trequire(token.transfer(recipie...\n      JUMPI \t\t\trequire(token.transfer(recipie...\n      PUSH 40\t\t\trequire(token.transfer(recipie...\n      MLOAD \t\t\trequire(token.transfer(recipie...\n      PUSH 8C379A000000000000000000000000000000000000000000000000000000000\t\t\trequire(token.transfer(recipie...\n      DUP2 \t\t\trequire(token.transfer(recipie...\n      MSTORE \t\t\trequire(token.transfer(recipie...\n      PUSH 4\t\t\trequire(token.transfer(recipie...\n      ADD \t\t\trequire(token.transfer(recipie...\n      PUSH [tag] 115\t\t\trequire(token.transfer(recipie...\n      SWAP1 \t\t\trequire(token.transfer(recipie...\n      PUSH [tag] 60\t\t\trequire(token.transfer(recipie...\n      JUMP \t\t\trequire(token.transfer(recipie...\n    tag 115\t\t\trequire(token.transfer(recipie...\n      JUMPDEST \t\t\trequire(token.transfer(recipie...\n      PUSH 40\t\t\trequire(token.transfer(recipie...\n      MLOAD \t\t\trequire(token.transfer(recipie...\n      DUP1 \t\t\trequire(token.transfer(recipie...\n      SWAP2 \t\t\trequire(token.transfer(recipie...\n      SUB \t\t\trequire(token.transfer(recipie...\n      SWAP1 \t\t\trequire(token.transfer(recipie...\n      REVERT \t\t\trequire(token.transfer(recipie...\n    tag 114\t\t\trequire(token.transfer(recipie...\n      JUMPDEST \t\t\trequire(token.transfer(recipie...\n      DUP1 \t\t\ti++\n      DUP1 \t\t\ti++\n      PUSH 1\t\t\ti++\n      ADD \t\t\ti++\n      SWAP2 \t\t\ti++\n      POP \t\t\ti++\n      POP \t\t\ti++\n      PUSH [tag] 96\t\t\tfor (uint256 i = 0; i < totalR...\n      JUMP \t\t\tfor (uint256 i = 0; i < totalR...\n    tag 97\t\t\tfor (uint256 i = 0; i < totalR...\n      JUMPDEST \t\t\tfor (uint256 i = 0; i < totalR...\n      POP \t\t\tfor (uint256 i = 0; i < totalR...\n      PUSH F16E4D5F82C54D462FFE3D21D1D2A968D757649029D89F7253094312837A6E8B\t\t\tBatchTransferSuccessful(totalR...\n      DUP4 \t\t\ttotalRecipients\n      DUP3 \t\t\ttotalAmount\n      TIMESTAMP \t\t\tblock.timestamp\n      PUSH 40\t\t\tBatchTransferSuccessful(totalR...\n      MLOAD \t\t\tBatchTransferSuccessful(totalR...\n      PUSH [tag] 116\t\t\tBatchTransferSuccessful(totalR...\n      SWAP4 \t\t\tBatchTransferSuccessful(totalR...\n      SWAP3 \t\t\tBatchTransferSuccessful(totalR...\n      SWAP2 \t\t\tBatchTransferSuccessful(totalR...\n      SWAP1 \t\t\tBatchTransferSuccessful(totalR...\n      PUSH [tag] 117\t\t\tBatchTransferSuccessful(totalR...\n      JUMP \t\t\tBatchTransferSuccessful(totalR...\n    tag 116\t\t\tBatchTransferSuccessful(totalR...\n      JUMPDEST \t\t\tBatchTransferSuccessful(totalR...\n      PUSH 40\t\t\tBatchTransferSuccessful(totalR...\n      MLOAD \t\t\tBatchTransferSuccessful(totalR...\n      DUP1 \t\t\tBatchTransferSuccessful(totalR...\n      SWAP2 \t\t\tBatchTransferSuccessful(totalR...\n      SUB \t\t\tBatchTransferSuccessful(totalR...\n      SWAP1 \t\t\tBatchTransferSuccessful(totalR...\n      LOG1 \t\t\tBatchTransferSuccessful(totalR...\n      PUSH 1\t\t\ttrue\n      SWAP4 \t\t\treturn true\n      POP \t\t\treturn true\n      POP \t\t\treturn true\n      POP \t\t\treturn true\n      POP \t\t\treturn true\n      SWAP6 \t\t\tfunction batchTransferToken(ad...\n      SWAP5 \t\t\tfunction batchTransferToken(ad...\n      POP \t\t\tfunction batchTransferToken(ad...\n      POP \t\t\tfunction batchTransferToken(ad...\n      POP \t\t\tfunction batchTransferToken(ad...\n      POP \t\t\tfunction batchTransferToken(ad...\n      POP \t\t\tfunction batchTransferToken(ad...\n      JUMP \t\t\tfunction batchTransferToken(ad...\n    tag 25\t\t\tfunction batchTransfer(address...\n      JUMPDEST \t\t\tfunction batchTransfer(address...\n      PUSH 0\t\t\tbool\n      PUSH 0\t\t\towner\n      PUSH 0\t\t\towner\n      SWAP1 \t\t\towner\n      SLOAD \t\t\towner\n      SWAP1 \t\t\towner\n      PUSH 100\t\t\towner\n      EXP \t\t\towner\n      SWAP1 \t\t\towner\n      DIV \t\t\towner\n      PUSH FFFFFFFFFFFFFFFFFFFFFFFFFFFFFFFFFFFFFFFF\t\t\towner\n      AND \t\t\towner\n      PUSH FFFFFFFFFFFFFFFFFFFFFFFFFFFFFFFFFFFFFFFF\t\t\tmsg.sender == owner\n      AND \t\t\tmsg.sender == owner\n      CALLER \t\t\tmsg.sender\n      PUSH FFFFFFFFFFFFFFFFFFFFFFFFFFFFFFFFFFFFFFFF\t\t\tmsg.sender == owner\n      AND \t\t\tmsg.sender == owner\n      EQ \t\t\tmsg.sender == owner\n      PUSH [tag] 119\t\t\trequire(msg.sender == owner, \"...\n      JUMPI \t\t\trequire(msg.sender == owner, \"...\n      PUSH 40\t\t\trequire(msg.sender == owner, \"...\n      MLOAD \t\t\trequire(msg.sender == owner, \"...\n      PUSH 8C379A000000000000000000000000000000000000000000000000000000000\t\t\trequire(msg.sender == owner, \"...\n      DUP2 \t\t\trequire(msg.sender == owner, \"...\n      MSTORE \t\t\trequire(msg.sender == owner, \"...\n      PUSH 4\t\t\trequire(msg.sender == owner, \"...\n      ADD \t\t\trequire(msg.sender == owner, \"...\n      PUSH [tag] 120\t\t\trequire(msg.sender == owner, \"...\n      SWAP1 \t\t\trequire(msg.sender == owner, \"...\n      PUSH [tag] 40\t\t\trequire(msg.sender == owner, \"...\n      JUMP \t\t\trequire(msg.sender == owner, \"...\n    tag 120\t\t\trequire(msg.sender == owner, \"...\n      JUMPDEST \t\t\trequire(msg.sender == owner, \"...\n      PUSH 40\t\t\trequire(msg.sender == owner, \"...\n      MLOAD \t\t\trequire(msg.sender == owner, \"...\n      DUP1 \t\t\trequire(msg.sender == owner, \"...\n      SWAP2 \t\t\trequire(msg.sender == owner, \"...\n      SUB \t\t\trequire(msg.sender == owner, \"...\n      SWAP1 \t\t\trequire(msg.sender == owner, \"...\n      REVERT \t\t\trequire(msg.sender == owner, \"...\n    tag 119\t\t\trequire(msg.sender == owner, \"...\n      JUMPDEST \t\t\trequire(msg.sender == owner, \"...\n      PUSH 0\t\t\tuint256 totalRecipients\n      DUP6 \t\t\trecipients\n      DUP6 \t\t\trecipients\n      SWAP1 \t\t\trecipients.length\n      POP \t\t\trecipients.length\n      SWAP1 \t\t\tuint256 totalRecipients = reci...\n      POP \t\t\tuint256 totalRecipients = reci...\n      DUP4 \t\t\tamounts\n      DUP4 \t\t\tamounts\n      SWAP1 \t\t\tamounts.length\n      POP \t\t\tamounts.length\n      DUP2 \t\t\ttotalRecipients\n      EQ \t\t\ttotalRecipients == amounts.len...\n      PUSH [tag] 122\t\t\trequire(totalRecipients == amo...\n      JUMPI \t\t\trequire(totalRecipients == amo...\n      PUSH 40\t\t\trequire(totalRecipients == amo...\n      MLOAD \t\t\trequire(totalRecipients == amo...\n      PUSH 8C379A000000000000000000000000000000000000000000000000000000000\t\t\trequire(totalRecipients == amo...\n      DUP2 \t\t\trequire(totalRecipients == amo...\n      MSTORE \t\t\trequire(totalRecipients == amo...\n      PUSH 4\t\t\trequire(totalRecipients == amo...\n      ADD \t\t\trequire(totalRecipients == amo...\n      PUSH [tag] 123\t\t\trequire(totalRecipients == amo...\n      SWAP1 \t\t\trequire(totalRecipients == amo...\n      PUSH [tag] 67\t\t\trequire(totalRecipients == amo...\n      JUMP \t\t\trequire(totalRecipients == amo...\n    tag 123\t\t\trequire(totalRecipients == amo...\n      JUMPDEST \t\t\trequire(totalRecipients == amo...\n      PUSH 40\t\t\trequire(totalRecipients == amo...\n      MLOAD \t\t\trequire(totalRecipients == amo...\n      DUP1 \t\t\trequire(totalRecipients == amo...\n      SWAP2 \t\t\trequire(totalRecipients == amo...\n      SUB \t\t\trequire(totalRecipients == amo...\n      SWAP1 \t\t\trequire(totalRecipients == amo...\n      REVERT \t\t\trequire(totalRecipients == amo...\n    tag 122\t\t\trequire(totalRecipients == amo...\n      JUMPDEST \t\t\trequire(totalRecipients == amo...\n      PUSH 7D0\t\t\t2000\n      DUP2 \t\t\ttotalRecipients\n      GT \t\t\ttotalRecipients <= 2000\n      ISZERO \t\t\ttotalRecipients <= 2000\n      PUSH [tag] 124\t\t\trequire(totalRecipients <= 200...\n      JUMPI \t\t\trequire(totalRecipients <= 200...\n      PUSH 40\t\t\trequire(totalRecipients <= 200...\n      MLOAD \t\t\trequire(totalRecipients <= 200...\n      PUSH 8C379A000000000000000000000000000000000000000000000000000000000\t\t\trequire(totalRecipients <= 200...\n      DUP2 \t\t\trequire(totalRecipients <= 200...\n      MSTORE \t\t\trequire(totalRecipients <= 200...\n      PUSH 4\t\t\trequire(totalRecipients <= 200...\n      ADD \t\t\trequire(totalRecipients <= 200...\n      PUSH [tag] 125\t\t\trequire(totalRecipients <= 200...\n      SWAP1 \t\t\trequire(totalRecipients <= 200...\n      PUSH [tag] 70\t\t\trequire(totalRecipients <= 200...\n      JUMP \t\t\trequire(totalRecipients <= 200...\n    tag 125\t\t\trequire(totalRecipients <= 200...\n      JUMPDEST \t\t\trequire(totalRecipients <= 200...\n      PUSH 40\t\t\trequire(totalRecipients <= 200...\n      MLOAD \t\t\trequire(totalRecipients <= 200...\n      DUP1 \t\t\trequire(totalRecipients <= 200...\n      SWAP2 \t\t\trequire(totalRecipients <= 200...\n      SUB \t\t\trequire(totalRecipients <= 200...\n      SWAP1 \t\t\trequire(totalRecipients <= 200...\n      REVERT \t\t\trequire(totalRecipients <= 200...\n    tag 124\t\t\trequire(totalRecipients <= 200...\n      JUMPDEST \t\t\trequire(totalRecipients <= 200...\n      PUSH 0\t\t\tuint256 totalAmount\n      PUSH 0\t\t\t0\n      SWAP1 \t\t\tuint256 totalAmount = 0\n      POP \t\t\tuint256 totalAmount = 0\n      PUSH 0\t\t\tuint256 i\n      PUSH 0\t\t\t0\n      SWAP1 \t\t\tuint256 i = 0\n      POP \t\t\tuint256 i = 0\n    tag 126\t\t\tfor (uint256 i = 0; i < totalR...\n      JUMPDEST \t\t\tfor (uint256 i = 0; i < totalR...\n      DUP3 \t\t\ttotalRecipients\n      DUP2 \t\t\ti\n      LT \t\t\ti < totalRecipients\n      ISZERO \t\t\tfor (uint256 i = 0; i < totalR...\n      PUSH [tag] 127\t\t\tfor (uint256 i = 0; i < totalR...\n      JUMPI \t\t\tfor (uint256 i = 0; i < totalR...\n      DUP6 \t\t\tamounts\n      DUP6 \t\t\tamounts\n      DUP3 \t\t\ti\n      DUP2 \t\t\tamounts[i]\n      DUP2 \t\t\tamounts[i]\n      LT \t\t\tamounts[i]\n      PUSH [tag] 129\t\t\tamounts[i]\n      JUMPI \t\t\tamounts[i]\n      PUSH [tag] 130\t\t\tamounts[i]\n      PUSH [tag] 76\t\t\tamounts[i]\n      JUMP \t\t\tamounts[i]\n    tag 130\t\t\tamounts[i]\n      JUMPDEST \t\t\tamounts[i]\n    tag 129\t\t\tamounts[i]\n      JUMPDEST \t\t\tamounts[i]\n      SWAP1 \t\t\tamounts[i]\n      POP \t\t\tamounts[i]\n      PUSH 20\t\t\tamounts[i]\n      MUL \t\t\tamounts[i]\n      ADD \t\t\tamounts[i]\n      CALLDATALOAD \t\t\tamounts[i]\n      DUP3 \t\t\ttotalAmount += amounts[i]\n      PUSH [tag] 131\t\t\ttotalAmount += amounts[i]\n      SWAP2 \t\t\ttotalAmount += amounts[i]\n      SWAP1 \t\t\ttotalAmount += amounts[i]\n      PUSH [tag] 78\t\t\ttotalAmount += amounts[i]\n      JUMP \t\t\ttotalAmount += amounts[i]\n    tag 131\t\t\ttotalAmount += amounts[i]\n      JUMPDEST \t\t\ttotalAmount += amounts[i]\n      SWAP2 \t\t\ttotalAmount += amounts[i]\n      POP \t\t\ttotalAmount += amounts[i]\n      DUP1 \t\t\ti++\n      DUP1 \t\t\ti++\n      PUSH 1\t\t\ti++\n      ADD \t\t\ti++\n      SWAP2 \t\t\ti++\n      POP \t\t\ti++\n      POP \t\t\ti++\n      PUSH [tag] 126\t\t\tfor (uint256 i = 0; i < totalR...\n      JUMP \t\t\tfor (uint256 i = 0; i < totalR...\n    tag 127\t\t\tfor (uint256 i = 0; i < totalR...\n      JUMPDEST \t\t\tfor (uint256 i = 0; i < totalR...\n      POP \t\t\tfor (uint256 i = 0; i < totalR...\n      DUP1 \t\t\ttotalAmount\n      CALLVALUE \t\t\tmsg.value\n      EQ \t\t\tmsg.value == totalAmount\n      PUSH [tag] 132\t\t\trequire(msg.value == totalAmou...\n      JUMPI \t\t\trequire(msg.value == totalAmou...\n      PUSH 40\t\t\trequire(msg.value == totalAmou...\n      MLOAD \t\t\trequire(msg.value == totalAmou...\n      PUSH 8C379A000000000000000000000000000000000000000000000000000000000\t\t\trequire(msg.value == totalAmou...\n      DUP2 \t\t\trequire(msg.value == totalAmou...\n      MSTORE \t\t\trequire(msg.value == totalAmou...\n      PUSH 4\t\t\trequire(msg.value == totalAmou...\n      ADD \t\t\trequire(msg.value == totalAmou...\n      PUSH [tag] 133\t\t\trequire(msg.value == totalAmou...\n      SWAP1 \t\t\trequire(msg.value == totalAmou...\n      PUSH [tag] 134\t\t\trequire(msg.value == totalAmou...\n      JUMP \t\t\trequire(msg.value == totalAmou...\n    tag 133\t\t\trequire(msg.value == totalAmou...\n      JUMPDEST \t\t\trequire(msg.value == totalAmou...\n      PUSH 40\t\t\trequire(msg.value == totalAmou...\n      MLOAD \t\t\trequire(msg.value == totalAmou...\n      DUP1 \t\t\trequire(msg.value == totalAmou...\n      SWAP2 \t\t\trequire(msg.value == totalAmou...\n      SUB \t\t\trequire(msg.value == totalAmou...\n      SWAP1 \t\t\trequire(msg.value == totalAmou...\n      REVERT \t\t\trequire(msg.value == totalAmou...\n    tag 132\t\t\trequire(msg.value == totalAmou...\n      JUMPDEST \t\t\trequire(msg.value == totalAmou...\n      PUSH 0\t\t\tbool success\n      PUSH 0\t\t\tuint256 i\n      PUSH 0\t\t\t0\n      SWAP1 \t\t\tuint256 i = 0\n      POP \t\t\tuint256 i = 0\n    tag 135\t\t\tfor (uint256 i = 0; i < totalR...\n      JUMPDEST \t\t\tfor (uint256 i = 0; i < totalR...\n      DUP4 \t\t\ttotalRecipients\n      DUP2 \t\t\ti\n      LT \t\t\ti < totalRecipients\n      ISZERO \t\t\tfor (uint256 i = 0; i < totalR...\n      PUSH [tag] 136\t\t\tfor (uint256 i = 0; i < totalR...\n      JUMPI \t\t\tfor (uint256 i = 0; i < totalR...\n      PUSH 0\t\t\t0\n      PUSH FFFFFFFFFFFFFFFFFFFFFFFFFFFFFFFFFFFFFFFF\t\t\trecipients[i] != address(0)\n      AND \t\t\trecipients[i] != address(0)\n      DUP10 \t\t\trecipients\n      DUP10 \t\t\trecipients\n      DUP4 \t\t\ti\n      DUP2 \t\t\trecipients[i]\n      DUP2 \t\t\trecipients[i]\n      LT \t\t\trecipients[i]\n      PUSH [tag] 138\t\t\trecipients[i]\n      JUMPI \t\t\trecipients[i]\n      PUSH [tag] 139\t\t\trecipients[i]\n      PUSH [tag] 76\t\t\trecipients[i]\n      JUMP \t\t\trecipients[i]\n    tag 139\t\t\trecipients[i]\n      JUMPDEST \t\t\trecipients[i]\n    tag 138\t\t\trecipients[i]\n      JUMPDEST \t\t\trecipients[i]\n      SWAP1 \t\t\trecipients[i]\n      POP \t\t\trecipients[i]\n      PUSH 20\t\t\trecipients[i]\n      MUL \t\t\trecipients[i]\n      ADD \t\t\trecipients[i]\n      PUSH 20\t\t\trecipients[i]\n      DUP2 \t\t\trecipients[i]\n      ADD \t\t\trecipients[i]\n      SWAP1 \t\t\trecipients[i]\n      PUSH [tag] 140\t\t\trecipients[i]\n      SWAP2 \t\t\trecipients[i]\n      SWAP1 \t\t\trecipients[i]\n      PUSH [tag] 35\t\t\trecipients[i]\n      JUMP \t\t\trecipients[i]\n    tag 140\t\t\trecipients[i]\n      JUMPDEST \t\t\trecipients[i]\n      PUSH FFFFFFFFFFFFFFFFFFFFFFFFFFFFFFFFFFFFFFFF\t\t\trecipients[i] != address(0)\n      AND \t\t\trecipients[i] != address(0)\n      SUB \t\t\trecipients[i] != address(0)\n      PUSH [tag] 141\t\t\trequire(recipients[i] != addre...\n      JUMPI \t\t\trequire(recipients[i] != addre...\n      PUSH 40\t\t\trequire(recipients[i] != addre...\n      MLOAD \t\t\trequire(recipients[i] != addre...\n      PUSH 8C379A000000000000000000000000000000000000000000000000000000000\t\t\trequire(recipients[i] != addre...\n      DUP2 \t\t\trequire(recipients[i] != addre...\n      MSTORE \t\t\trequire(recipients[i] != addre...\n      PUSH 4\t\t\trequire(recipients[i] != addre...\n      ADD \t\t\trequire(recipients[i] != addre...\n      PUSH [tag] 142\t\t\trequire(recipients[i] != addre...\n      SWAP1 \t\t\trequire(recipients[i] != addre...\n      PUSH [tag] 104\t\t\trequire(recipients[i] != addre...\n      JUMP \t\t\trequire(recipients[i] != addre...\n    tag 142\t\t\trequire(recipients[i] != addre...\n      JUMPDEST \t\t\trequire(recipients[i] != addre...\n      PUSH 40\t\t\trequire(recipients[i] != addre...\n      MLOAD \t\t\trequire(recipients[i] != addre...\n      DUP1 \t\t\trequire(recipients[i] != addre...\n      SWAP2 \t\t\trequire(recipients[i] != addre...\n      SUB \t\t\trequire(recipients[i] != addre...\n      SWAP1 \t\t\trequire(recipients[i] != addre...\n      REVERT \t\t\trequire(recipients[i] != addre...\n    tag 141\t\t\trequire(recipients[i] != addre...\n      JUMPDEST \t\t\trequire(recipients[i] != addre...\n      DUP9 \t\t\trecipients\n      DUP9 \t\t\trecipients\n      DUP3 \t\t\ti\n      DUP2 \t\t\trecipients[i]\n      DUP2 \t\t\trecipients[i]\n      LT \t\t\trecipients[i]\n      PUSH [tag] 143\t\t\trecipients[i]\n      JUMPI \t\t\trecipients[i]\n      PUSH [tag] 144\t\t\trecipients[i]\n      PUSH [tag] 76\t\t\trecipients[i]\n      JUMP \t\t\trecipients[i]\n    tag 144\t\t\trecipients[i]\n      JUMPDEST \t\t\trecipients[i]\n    tag 143\t\t\trecipients[i]\n      JUMPDEST \t\t\trecipients[i]\n      SWAP1 \t\t\trecipients[i]\n      POP \t\t\trecipients[i]\n      PUSH 20\t\t\trecipients[i]\n      MUL \t\t\trecipients[i]\n      ADD \t\t\trecipients[i]\n      PUSH 20\t\t\trecipients[i]\n      DUP2 \t\t\trecipients[i]\n      ADD \t\t\trecipients[i]\n      SWAP1 \t\t\trecipients[i]\n      PUSH [tag] 145\t\t\trecipients[i]\n      SWAP2 \t\t\trecipients[i]\n      SWAP1 \t\t\trecipients[i]\n      PUSH [tag] 35\t\t\trecipients[i]\n      JUMP \t\t\trecipients[i]\n    tag 145\t\t\trecipients[i]\n      JUMPDEST \t\t\trecipients[i]\n      PUSH FFFFFFFFFFFFFFFFFFFFFFFFFFFFFFFFFFFFFFFF\t\t\trecipients[i].call\n      AND \t\t\trecipients[i].call\n      DUP8 \t\t\tamounts\n      DUP8 \t\t\tamounts\n      DUP4 \t\t\ti\n      DUP2 \t\t\tamounts[i]\n      DUP2 \t\t\tamounts[i]\n      LT \t\t\tamounts[i]\n      PUSH [tag] 146\t\t\tamounts[i]\n      JUMPI \t\t\tamounts[i]\n      PUSH [tag] 147\t\t\tamounts[i]\n      PUSH [tag] 76\t\t\tamounts[i]\n      JUMP \t\t\tamounts[i]\n    tag 147\t\t\tamounts[i]\n      JUMPDEST \t\t\tamounts[i]\n    tag 146\t\t\tamounts[i]\n      JUMPDEST \t\t\tamounts[i]\n      SWAP1 \t\t\tamounts[i]\n      POP \t\t\tamounts[i]\n      PUSH 20\t\t\tamounts[i]\n      MUL \t\t\tamounts[i]\n      ADD \t\t\tamounts[i]\n      CALLDATALOAD \t\t\tamounts[i]\n      PUSH 40\t\t\trecipients[i].call{value: amou...\n      MLOAD \t\t\trecipients[i].call{value: amou...\n      PUSH [tag] 148\t\t\trecipients[i].call{value: amou...\n      SWAP1 \t\t\trecipients[i].call{value: amou...\n      PUSH [tag] 44\t\t\trecipients[i].call{value: amou...\n      JUMP \t\t\trecipients[i].call{value: amou...\n    tag 148\t\t\trecipients[i].call{value: amou...\n      JUMPDEST \t\t\trecipients[i].call{value: amou...\n      PUSH 0\t\t\trecipients[i].call{value: amou...\n      PUSH 40\t\t\trecipients[i].call{value: amou...\n      MLOAD \t\t\trecipients[i].call{value: amou...\n      DUP1 \t\t\trecipients[i].call{value: amou...\n      DUP4 \t\t\trecipients[i].call{value: amou...\n      SUB \t\t\trecipients[i].call{value: amou...\n      DUP2 \t\t\trecipients[i].call{value: amou...\n      DUP6 \t\t\trecipients[i].call{value: amou...\n      DUP8 \t\t\trecipients[i].call{value: amou...\n      GAS \t\t\trecipients[i].call{value: amou...\n      CALL \t\t\trecipients[i].call{value: amou...\n      SWAP3 \t\t\trecipients[i].call{value: amou...\n      POP \t\t\trecipients[i].call{value: amou...\n      POP \t\t\trecipients[i].call{value: amou...\n      POP \t\t\trecipients[i].call{value: amou...\n      RETURNDATASIZE \t\t\trecipients[i].call{value: amou...\n      DUP1 \t\t\trecipients[i].call{value: amou...\n      PUSH 0\t\t\trecipients[i].call{value: amou...\n      DUP2 \t\t\trecipients[i].call{value: amou...\n      EQ \t\t\trecipients[i].call{value: amou...\n      PUSH [tag] 151\t\t\trecipients[i].call{value: amou...\n      JUMPI \t\t\trecipients[i].call{value: amou...\n      PUSH 40\t\t\trecipients[i].call{value: amou...\n      MLOAD \t\t\trecipients[i].call{value: amou...\n      SWAP2 \t\t\trecipients[i].call{value: amou...\n      POP \t\t\trecipients[i].call{value: amou...\n      PUSH 1F\t\t\trecipients[i].call{value: amou...\n      NOT \t\t\trecipients[i].call{value: amou...\n      PUSH 3F\t\t\trecipients[i].call{value: amou...\n      RETURNDATASIZE \t\t\trecipients[i].call{value: amou...\n      ADD \t\t\trecipients[i].call{value: amou...\n      AND \t\t\trecipients[i].call{value: amou...\n      DUP3 \t\t\trecipients[i].call{value: amou...\n      ADD \t\t\trecipients[i].call{value: amou...\n      PUSH 40\t\t\trecipients[i].call{value: amou...\n      MSTORE \t\t\trecipients[i].call{value: amou...\n      RETURNDATASIZE \t\t\trecipients[i].call{value: amou...\n      DUP3 \t\t\trecipients[i].call{value: amou...\n      MSTORE \t\t\trecipients[i].call{value: amou...\n      RETURNDATASIZE \t\t\trecipients[i].call{value: amou...\n      PUSH 0\t\t\trecipients[i].call{value: amou...\n      PUSH 20\t\t\trecipients[i].call{value: amou...\n      DUP5 \t\t\trecipients[i].call{value: amou...\n      ADD \t\t\trecipients[i].call{value: amou...\n      RETURNDATACOPY \t\t\trecipients[i].call{value: amou...\n      PUSH [tag] 150\t\t\trecipients[i].call{value: amou...\n      JUMP \t\t\trecipients[i].call{value: amou...\n    tag 151\t\t\trecipients[i].call{value: amou...\n      JUMPDEST \t\t\trecipients[i].call{value: amou...\n      PUSH 60\t\t\trecipients[i].call{value: amou...\n      SWAP2 \t\t\trecipients[i].call{value: amou...\n      POP \t\t\trecipients[i].call{value: amou...\n    tag 150\t\t\trecipients[i].call{value: amou...\n      JUMPDEST \t\t\trecipients[i].call{value: amou...\n      POP \t\t\trecipients[i].call{value: amou...\n      POP \t\t\t(success, ) = recipients[i].ca...\n      DUP1 \t\t\t(success, ) = recipients[i].ca...\n      SWAP3 \t\t\t(success, ) = recipients[i].ca...\n      POP \t\t\t(success, ) = recipients[i].ca...\n      POP \t\t\t(success, ) = recipients[i].ca...\n      DUP2 \t\t\tsuccess\n      PUSH [tag] 152\t\t\trequire(success, \"Transfer gag...\n      JUMPI \t\t\trequire(success, \"Transfer gag...\n      PUSH 40\t\t\trequire(success, \"Transfer gag...\n      MLOAD \t\t\trequire(success, \"Transfer gag...\n      PUSH 8C379A000000000000000000000000000000000000000000000000000000000\t\t\trequire(success, \"Transfer gag...\n      DUP2 \t\t\trequire(success, \"Transfer gag...\n      MSTORE \t\t\trequire(success, \"Transfer gag...\n      PUSH 4\t\t\trequire(success, \"Transfer gag...\n      ADD \t\t\trequire(success, \"Transfer gag...\n      PUSH [tag] 153\t\t\trequire(success, \"Transfer gag...\n      SWAP1 \t\t\trequire(success, \"Transfer gag...\n      PUSH [tag] 154\t\t\trequire(success, \"Transfer gag...\n      JUMP \t\t\trequire(success, \"Transfer gag...\n    tag 153\t\t\trequire(success, \"Transfer gag...\n      JUMPDEST \t\t\trequire(success, \"Transfer gag...\n      PUSH 40\t\t\trequire(success, \"Transfer gag...\n      MLOAD \t\t\trequire(success, \"Transfer gag...\n      DUP1 \t\t\trequire(success, \"Transfer gag...\n      SWAP2 \t\t\trequire(success, \"Transfer gag...\n      SUB \t\t\trequire(success, \"Transfer gag...\n      SWAP1 \t\t\trequire(success, \"Transfer gag...\n      REVERT \t\t\trequire(success, \"Transfer gag...\n    tag 152\t\t\trequire(success, \"Transfer gag...\n      JUMPDEST \t\t\trequire(success, \"Transfer gag...\n      DUP1 \t\t\ti++\n      DUP1 \t\t\ti++\n      PUSH 1\t\t\ti++\n      ADD \t\t\ti++\n      SWAP2 \t\t\ti++\n      POP \t\t\ti++\n      POP \t\t\ti++\n      PUSH [tag] 135\t\t\tfor (uint256 i = 0; i < totalR...\n      JUMP \t\t\tfor (uint256 i = 0; i < totalR...\n    tag 136\t\t\tfor (uint256 i = 0; i < totalR...\n      JUMPDEST \t\t\tfor (uint256 i = 0; i < totalR...\n      POP \t\t\tfor (uint256 i = 0; i < totalR...\n      PUSH F16E4D5F82C54D462FFE3D21D1D2A968D757649029D89F7253094312837A6E8B\t\t\tBatchTransferSuccessful(totalR...\n      DUP4 \t\t\ttotalRecipients\n      DUP4 \t\t\ttotalAmount\n      TIMESTAMP \t\t\tblock.timestamp\n      PUSH 40\t\t\tBatchTransferSuccessful(totalR...\n      MLOAD \t\t\tBatchTransferSuccessful(totalR...\n      PUSH [tag] 155\t\t\tBatchTransferSuccessful(totalR...\n      SWAP4 \t\t\tBatchTransferSuccessful(totalR...\n      SWAP3 \t\t\tBatchTransferSuccessful(totalR...\n      SWAP2 \t\t\tBatchTransferSuccessful(totalR...\n      SWAP1 \t\t\tBatchTransferSuccessful(totalR...\n      PUSH [tag] 117\t\t\tBatchTransferSuccessful(totalR...\n      JUMP \t\t\tBatchTransferSuccessful(totalR...\n    tag 155\t\t\tBatchTransferSuccessful(totalR...\n      JUMPDEST \t\t\tBatchTransferSuccessful(totalR...\n      PUSH 40\t\t\tBatchTransferSuccessful(totalR...\n      MLOAD \t\t\tBatchTransferSuccessful(totalR...\n      DUP1 \t\t\tBatchTransferSuccessful(totalR...\n      SWAP2 \t\t\tBatchTransferSuccessful(totalR...\n      SUB \t\t\tBatchTransferSuccessful(totalR...\n      SWAP1 \t\t\tBatchTransferSuccessful(totalR...\n      LOG1 \t\t\tBatchTransferSuccessful(totalR...\n      PUSH 1\t\t\ttrue\n      SWAP4 \t\t\treturn true\n      POP \t\t\treturn true\n      POP \t\t\treturn true\n      POP \t\t\treturn true\n      POP \t\t\treturn true\n      SWAP5 \t\t\tfunction batchTransfer(address...\n      SWAP4 \t\t\tfunction batchTransfer(address...\n      POP \t\t\tfunction batchTransfer(address...\n      POP \t\t\tfunction batchTransfer(address...\n      POP \t\t\tfunction batchTransfer(address...\n      POP \t\t\tfunction batchTransfer(address...\n      JUMP \t\t\tfunction batchTransfer(address...\n    tag 29\t\t\taddress public owner\n      JUMPDEST \t\t\taddress public owner\n      PUSH 0\t\t\taddress public owner\n      PUSH 0\t\t\taddress public owner\n      SWAP1 \t\t\taddress public owner\n      SLOAD \t\t\taddress public owner\n      SWAP1 \t\t\taddress public owner\n      PUSH 100\t\t\taddress public owner\n      EXP \t\t\taddress public owner\n      SWAP1 \t\t\taddress public owner\n      DIV \t\t\taddress public owner\n      PUSH FFFFFFFFFFFFFFFFFFFFFFFFFFFFFFFFFFFFFFFF\t\t\taddress public owner\n      AND \t\t\taddress public owner\n      DUP2 \t\t\taddress public owner\n      JUMP \t\t\taddress public owner\n    tag 36\t\t\tfunction transferOwnership(add...\n      JUMPDEST \t\t\tfunction transferOwnership(add...\n      PUSH 0\t\t\towner\n      PUSH 0\t\t\towner\n      SWAP1 \t\t\towner\n      SLOAD \t\t\towner\n      SWAP1 \t\t\towner\n      PUSH 100\t\t\towner\n      EXP \t\t\towner\n      SWAP1 \t\t\towner\n      DIV \t\t\towner\n      PUSH FFFFFFFFFFFFFFFFFFFFFFFFFFFFFFFFFFFFFFFF\t\t\towner\n      AND \t\t\towner\n      PUSH FFFFFFFFFFFFFFFFFFFFFFFFFFFFFFFFFFFFFFFF\t\t\tmsg.sender == owner\n      AND \t\t\tmsg.sender == owner\n      CALLER \t\t\tmsg.sender\n      PUSH FFFFFFFFFFFFFFFFFFFFFFFFFFFFFFFFFFFFFFFF\t\t\tmsg.sender == owner\n      AND \t\t\tmsg.sender == owner\n      EQ \t\t\tmsg.sender == owner\n      PUSH [tag] 157\t\t\trequire(msg.sender == owner, \"...\n      JUMPI \t\t\trequire(msg.sender == owner, \"...\n      PUSH 40\t\t\trequire(msg.sender == owner, \"...\n      MLOAD \t\t\trequire(msg.sender == owner, \"...\n      PUSH 8C379A000000000000000000000000000000000000000000000000000000000\t\t\trequire(msg.sender == owner, \"...\n      DUP2 \t\t\trequire(msg.sender == owner, \"...\n      MSTORE \t\t\trequire(msg.sender == owner, \"...\n      PUSH 4\t\t\trequire(msg.sender == owner, \"...\n      ADD \t\t\trequire(msg.sender == owner, \"...\n      PUSH [tag] 158\t\t\trequire(msg.sender == owner, \"...\n      SWAP1 \t\t\trequire(msg.sender == owner, \"...\n      PUSH [tag] 40\t\t\trequire(msg.sender == owner, \"...\n      JUMP \t\t\trequire(msg.sender == owner, \"...\n    tag 158\t\t\trequire(msg.sender == owner, \"...\n      JUMPDEST \t\t\trequire(msg.sender == owner, \"...\n      PUSH 40\t\t\trequire(msg.sender == owner, \"...\n      MLOAD \t\t\trequire(msg.sender == owner, \"...\n      DUP1 \t\t\trequire(msg.sender == owner, \"...\n      SWAP2 \t\t\trequire(msg.sender == owner, \"...\n      SUB \t\t\trequire(msg.sender == owner, \"...\n      SWAP1 \t\t\trequire(msg.sender == owner, \"...\n      REVERT \t\t\trequire(msg.sender == owner, \"...\n    tag 157\t\t\trequire(msg.sender == owner, \"...\n      JUMPDEST \t\t\trequire(msg.sender == owner, \"...\n      PUSH 0\t\t\t0\n      PUSH FFFFFFFFFFFFFFFFFFFFFFFFFFFFFFFFFFFFFFFF\t\t\tnewOwner != address(0)\n      AND \t\t\tnewOwner != address(0)\n      DUP2 \t\t\tnewOwner\n      PUSH FFFFFFFFFFFFFFFFFFFFFFFFFFFFFFFFFFFFFFFF\t\t\tnewOwner != address(0)\n      AND \t\t\tnewOwner != address(0)\n      SUB \t\t\tnewOwner != address(0)\n      PUSH [tag] 160\t\t\trequire(newOwner != address(0)...\n      JUMPI \t\t\trequire(newOwner != address(0)...\n      PUSH 40\t\t\trequire(newOwner != address(0)...\n      MLOAD \t\t\trequire(newOwner != address(0)...\n      PUSH 8C379A000000000000000000000000000000000000000000000000000000000\t\t\trequire(newOwner != address(0)...\n      DUP2 \t\t\trequire(newOwner != address(0)...\n      MSTORE \t\t\trequire(newOwner != address(0)...\n      PUSH 4\t\t\trequire(newOwner != address(0)...\n      ADD \t\t\trequire(newOwner != address(0)...\n      PUSH [tag] 161\t\t\trequire(newOwner != address(0)...\n      SWAP1 \t\t\trequire(newOwner != address(0)...\n      PUSH [tag] 162\t\t\trequire(newOwner != address(0)...\n      JUMP \t\t\trequire(newOwner != address(0)...\n    tag 161\t\t\trequire(newOwner != address(0)...\n      JUMPDEST \t\t\trequire(newOwner != address(0)...\n      PUSH 40\t\t\trequire(newOwner != address(0)...\n      MLOAD \t\t\trequire(newOwner != address(0)...\n      DUP1 \t\t\trequire(newOwner != address(0)...\n      SWAP2 \t\t\trequire(newOwner != address(0)...\n      SUB \t\t\trequire(newOwner != address(0)...\n      SWAP1 \t\t\trequire(newOwner != address(0)...\n      REVERT \t\t\trequire(newOwner != address(0)...\n    tag 160\t\t\trequire(newOwner != address(0)...\n      JUMPDEST \t\t\trequire(newOwner != address(0)...\n      DUP1 \t\t\tnewOwner\n      PUSH 0\t\t\towner\n      PUSH 0\t\t\towner\n      PUSH 100\t\t\towner = newOwner\n      EXP \t\t\towner = newOwner\n      DUP2 \t\t\towner = newOwner\n      SLOAD \t\t\towner = newOwner\n      DUP2 \t\t\towner = newOwner\n      PUSH FFFFFFFFFFFFFFFFFFFFFFFFFFFFFFFFFFFFFFFF\t\t\towner = newOwner\n      MUL \t\t\towner = newOwner\n      NOT \t\t\towner = newOwner\n      AND \t\t\towner = newOwner\n      SWAP1 \t\t\towner = newOwner\n      DUP4 \t\t\towner = newOwner\n      PUSH FFFFFFFFFFFFFFFFFFFFFFFFFFFFFFFFFFFFFFFF\t\t\towner = newOwner\n      AND \t\t\towner = newOwner\n      MUL \t\t\towner = newOwner\n      OR \t\t\towner = newOwner\n      SWAP1 \t\t\towner = newOwner\n      SSTORE \t\t\towner = newOwner\n      POP \t\t\towner = newOwner\n      POP \t\t\tfunction transferOwnership(add...\n      JUMP \t\t\tfunction transferOwnership(add...\n    tag 164\t\t\tr\\r\\n * @dev Smart contract un...\n      JUMPDEST \t\t\tr\\r\\n * @dev Smart contract un...\n      PUSH 0\t\t\tn\n      PUSH 0\t\t\tn\n      REVERT \t\t\tuk jaringan \n    tag 165\t\t\tz\\r\\n */\\r\\ncontract BatchTran...\n      JUMPDEST \t\t\tz\\r\\n */\\r\\ncontract BatchTran...\n      PUSH 0\t\t\tb\n      PUSH 0\t\t\tl\n      REVERT \t\t\ttiap kali ba\n    tag 166\t\t\t berhasil dilakukan\\r\\n    eve...\n      JUMPDEST \t\t\t berhasil dilakukan\\r\\n    eve...\n      PUSH 0\t\t\transfer\n      PUSH FFFFFFFFFFFFFFFFFFFFFFFFFFFFFFFFFFFFFFFF\t\t\t, uint256 totalAmount, uint256...\n      DUP3 \t\t\tdress\n      AND \t\t\talAddresses, uint256 totalAmou...\n      SWAP1 \t\t\tuint256 totalAddresses, uint25...\n      POP \t\t\tuint256 totalAddresses, uint25...\n      SWAP2 \t\t\t berhasil dilakukan\\r\\n    eve...\n      SWAP1 \t\t\t berhasil dilakukan\\r\\n    eve...\n      POP \t\t\t berhasil dilakukan\\r\\n    eve...\n      JUMP \t\t\t berhasil dilakukan\\r\\n    eve...\n    tag 167\t\t\t/ Modifier untuk memastikan ha...\n      JUMPDEST \t\t\t/ Modifier untuk memastikan ha...\n      PUSH 0\t\t\ter yang\n      PUSH [tag] 218\t\t\t tertentu\\r\\n    modifier \n      DUP3 \t\t\tifier\n      PUSH [tag] 166\t\t\t tertentu\\r\\n    modifier \n      JUMP \t\t\t tertentu\\r\\n    modifier \n    tag 218\t\t\t tertentu\\r\\n    modifier \n      JUMPDEST \t\t\t tertentu\\r\\n    modifier \n      SWAP1 \t\t\tkses fungsi tertentu\\r\\n    mo...\n      POP \t\t\tkses fungsi tertentu\\r\\n    mo...\n      SWAP2 \t\t\t/ Modifier untuk memastikan ha...\n      SWAP1 \t\t\t/ Modifier untuk memastikan ha...\n      POP \t\t\t/ Modifier untuk memastikan ha...\n      JUMP \t\t\t/ Modifier untuk memastikan ha...\n    tag 168\t\t\t{\\r\\n        require(msg.sende...\n      JUMPDEST \t\t\t{\\r\\n        require(msg.sende...\n      PUSH [tag] 220\t\t\t fungsi ini\");\\r\\n        \n      DUP2 \t\t\t     \n      PUSH [tag] 167\t\t\t fungsi ini\");\\r\\n        \n      JUMP \t\t\t fungsi ini\");\\r\\n        \n    tag 220\t\t\t fungsi ini\");\\r\\n        \n      JUMPDEST \t\t\t fungsi ini\");\\r\\n        \n      DUP2 \t\t\tngaks\n      EQ \t\t\t mengakses fungsi ini\");\\r\\n  ...\n      PUSH [tag] 221\t\t\tyang dapat mengakses fungsi in...\n      JUMPI \t\t\tyang dapat mengakses fungsi in...\n      PUSH 0\t\t\t\\r\n      PUSH 0\t\t\t \n      REVERT \t\t\t   }\\r\\n    \\r\\n\n    tag 221\t\t\tyang dapat mengakses fungsi in...\n      JUMPDEST \t\t\tyang dapat mengakses fungsi in...\n      POP \t\t\t{\\r\\n        require(msg.sende...\n      JUMP \t\t\t{\\r\\n        require(msg.sende...\n    tag 169\t\t\tctor untuk menetapkan owner ko...\n      JUMPDEST \t\t\tctor untuk menetapkan owner ko...\n      PUSH 0\t\t\tructo\n      DUP2 \t\t\t;\\r\\n   \n      CALLDATALOAD \t\t\t = msg.sender;\\r\\n    \n      SWAP1 \t\t\t    owner = msg.sender;\\r\\n   ...\n      POP \t\t\t    owner = msg.sender;\\r\\n   ...\n      PUSH [tag] 223\t\t\t    /**\\r\\n     * @dev Fungsi ...\n      DUP2 \t\t\t untu\n      PUSH [tag] 168\t\t\t    /**\\r\\n     * @dev Fungsi ...\n      JUMP \t\t\t    /**\\r\\n     * @dev Fungsi ...\n    tag 223\t\t\t    /**\\r\\n     * @dev Fungsi ...\n      JUMPDEST \t\t\t    /**\\r\\n     * @dev Fungsi ...\n      SWAP3 \t\t\tctor untuk menetapkan owner ko...\n      SWAP2 \t\t\tctor untuk menetapkan owner ko...\n      POP \t\t\tctor untuk menetapkan owner ko...\n      POP \t\t\tctor untuk menetapkan owner ko...\n      JUMP \t\t\tctor untuk menetapkan owner ko...\n    tag 170\t\t\tner kontrak\\r\\n     * @param n...\n      JUMPDEST \t\t\tner kontrak\\r\\n     * @param n...\n      PUSH 0\t\t\tlamat o\n      DUP2 \t\t\t  fun\n      SWAP1 \t\t\t     */\\r\\n    fun\n      POP \t\t\t     */\\r\\n    fun\n      SWAP2 \t\t\tner kontrak\\r\\n     * @param n...\n      SWAP1 \t\t\tner kontrak\\r\\n     * @param n...\n      POP \t\t\tner kontrak\\r\\n     * @param n...\n      JUMP \t\t\tner kontrak\\r\\n     * @param n...\n    tag 171\t\t\terOwnership(address newOwner) ...\n      JUMPDEST \t\t\terOwnership(address newOwner) ...\n      PUSH [tag] 226\t\t\tr != address(0), \"Alamat\n      DUP2 \t\t\tAlama\n      PUSH [tag] 170\t\t\tr != address(0), \"Alamat\n      JUMP \t\t\tr != address(0), \"Alamat\n    tag 226\t\t\tr != address(0), \"Alamat\n      JUMPDEST \t\t\tr != address(0), \"Alamat\n      DUP2 \t\t\tnewOw\n      EQ \t\t\tre(newOwner != address(0), \"Al...\n      PUSH [tag] 227\t\t\t     require(newOwner != addre...\n      JUMPI \t\t\t     require(newOwner != addre...\n      PUSH 0\t\t\ta\n      PUSH 0\t\t\tt\n      REVERT \t\t\tr baru tidak\n    tag 227\t\t\t     require(newOwner != addre...\n      JUMPDEST \t\t\t     require(newOwner != addre...\n      POP \t\t\terOwnership(address newOwner) ...\n      JUMP \t\t\terOwnership(address newOwner) ...\n    tag 172\t\t\tnol\");\\r\\n        owner = newO...\n      JUMPDEST \t\t\tnol\");\\r\\n        owner = newO...\n      PUSH 0\t\t\t\\r\\n   \n      DUP2 \t\t\tngirim\n      CALLDATALOAD \t\t\tngsi untuk mengirim \n      SWAP1 \t\t\t* @dev Fungsi untuk mengirim \n      POP \t\t\t* @dev Fungsi untuk mengirim \n      PUSH [tag] 229\t\t\tken ke banyak alamat sekaligus...\n      DUP2 \t\t\tgus\\r\\n\n      PUSH [tag] 171\t\t\tken ke banyak alamat sekaligus...\n      JUMP \t\t\tken ke banyak alamat sekaligus...\n    tag 229\t\t\tken ke banyak alamat sekaligus...\n      JUMPDEST \t\t\tken ke banyak alamat sekaligus...\n      SWAP3 \t\t\tnol\");\\r\\n        owner = newO...\n      SWAP2 \t\t\tnol\");\\r\\n        owner = newO...\n      POP \t\t\tnol\");\\r\\n        owner = newO...\n      POP \t\t\tnol\");\\r\\n        owner = newO...\n      JUMP \t\t\tnol\");\\r\\n        owner = newO...\n    tag 13\t\t\t recipients Array alamat pener...\n      JUMPDEST \t\t\t recipients Array alamat pener...\n      PUSH 0\t\t\th yang\n      PUSH 0\t\t\tikirim\n      PUSH 40\t\t\tst\n      DUP4 \t\t\t  * @retu\n      DUP6 \t\t\trima\\r\\n \n      SUB \t\t\tpenerima\\r\\n     * @retur\n      SLT \t\t\ting penerima\\r\\n     * @return...\n      ISZERO \t\t\tmasing penerima\\r\\n     * @ret...\n      PUSH [tag] 231\t\t\tmasing penerima\\r\\n     * @ret...\n      JUMPI \t\t\tmasing penerima\\r\\n     * @ret...\n      PUSH [tag] 232\t\t\t Boolean yang menunjukkan kebe...\n      PUSH [tag] 164\t\t\t Boolean yang menunjukkan kebe...\n      JUMP \t\t\t Boolean yang menunjukkan kebe...\n    tag 232\t\t\t Boolean yang menunjukkan kebe...\n      JUMPDEST \t\t\t Boolean yang menunjukkan kebe...\n    tag 231\t\t\tmasing penerima\\r\\n     * @ret...\n      JUMPDEST \t\t\tmasing penerima\\r\\n     * @ret...\n      PUSH 0\t\t\tt\n      PUSH [tag] 233\t\t\texternal payable onlyOwner ret...\n      DUP6 \t\t\t       \n      DUP3 \t\t\tbool) \n      DUP7 \t\t\tr returns\n      ADD \t\t\tOwner returns (bool) {\n      PUSH [tag] 169\t\t\texternal payable onlyOwner ret...\n      JUMP \t\t\texternal payable onlyOwner ret...\n    tag 233\t\t\texternal payable onlyOwner ret...\n      JUMPDEST \t\t\texternal payable onlyOwner ret...\n      SWAP3 \t\t\t amounts) external payable onl...\n      POP \t\t\t amounts) external payable onl...\n      POP \t\t\tss[] calldata recipients, uint...\n      PUSH 20\t\t\t  \n      PUSH [tag] 234\t\t\tsi bahwa panjang array recipie...\n      DUP6 \t\t\t sama\\r\\n\n      DUP3 \t\t\tn amou\n      DUP7 \t\t\tcipients \n      ADD \t\t\ty recipients dan amoun\n      PUSH [tag] 172\t\t\tsi bahwa panjang array recipie...\n      JUMP \t\t\tsi bahwa panjang array recipie...\n    tag 234\t\t\tsi bahwa panjang array recipie...\n      JUMPDEST \t\t\tsi bahwa panjang array recipie...\n      SWAP2 \t\t\t/ Verifikasi bahwa panjang arr...\n      POP \t\t\t/ Verifikasi bahwa panjang arr...\n      POP \t\t\tnts = recipients.length;\\r\\n  ...\n      SWAP3 \t\t\t recipients Array alamat pener...\n      POP \t\t\t recipients Array alamat pener...\n      SWAP3 \t\t\t recipients Array alamat pener...\n      SWAP1 \t\t\t recipients Array alamat pener...\n      POP \t\t\t recipients Array alamat pener...\n      JUMP \t\t\t recipients Array alamat pener...\n    tag 173\t\t\tipients == amounts.length, \"Pa...\n      JUMPDEST \t\t\tipients == amounts.length, \"Pa...\n      PUSH 0\t\t\ts\n      PUSH 0\t\t\ti\n      REVERT \t\t\t/ Verifikasi\n    tag 174\t\t\tmum alamat penerima untuk efis...\n      JUMPDEST \t\t\tmum alamat penerima untuk efis...\n      PUSH 0\t\t\ti\n      PUSH 0\t\t\tn\n      REVERT \t\t\tamat penerim\n    tag 175\t\t\t batch\");\\r\\n        \\r\\n     ...\n      JUMPDEST \t\t\t batch\");\\r\\n        \\r\\n     ...\n      PUSH 0\t\t\tu\n      PUSH 0\t\t\tA\n      REVERT \t\t\t6 totalAmoun\n    tag 176\t\t\ti = 0; i < totalRecipients; i+...\n      JUMPDEST \t\t\ti = 0; i < totalRecipients; i+...\n      PUSH 0\t\t\t;\\r\\n     \n      PUSH 0\t\t\t }\\r\\n  \n      DUP4 \t\t\tal \n      PUSH 1F\t\t\tt, \"\n      DUP5 \t\t\ttalAmo\n      ADD \t\t\t= totalAmount, \"T\n      SLT \t\t\tue == totalAmount, \"Total a\n      PUSH [tag] 239\t\t\tre(msg.value == totalAmount, \"...\n      JUMPI \t\t\tre(msg.value == totalAmount, \"...\n      PUSH [tag] 240\t\t\tt harus sama dengan nilai yang...\n      PUSH [tag] 173\t\t\tt harus sama dengan nilai yang...\n      JUMP \t\t\tt harus sama dengan nilai yang...\n    tag 240\t\t\tt harus sama dengan nilai yang...\n      JUMPDEST \t\t\tt harus sama dengan nilai yang...\n    tag 239\t\t\tre(msg.value == totalAmount, \"...\n      JUMPDEST \t\t\tre(msg.value == totalAmount, \"...\n      DUP3 \t\t\t bool \n      CALLDATALOAD \t\t\tamat\\r\\n        bool s\n      SWAP1 \t\t\t-masing alamat\\r\\n        bool...\n      POP \t\t\t-masing alamat\\r\\n        bool...\n      PUSH FFFFFFFFFFFFFFFF\t\t\tint256 i = 0; i < \n      DUP2 \t\t\t  for \n      GT \t\t\t     for (uint256 i = 0; i < t\n      ISZERO \t\t\t        for (uint256 i = 0; i ...\n      PUSH [tag] 241\t\t\t        for (uint256 i = 0; i ...\n      JUMPI \t\t\t        for (uint256 i = 0; i ...\n      PUSH [tag] 242\t\t\tlRecipients; i++) {\\r\\n       ...\n      PUSH [tag] 174\t\t\tlRecipients; i++) {\\r\\n       ...\n      JUMP \t\t\tlRecipients; i++) {\\r\\n       ...\n    tag 242\t\t\tlRecipients; i++) {\\r\\n       ...\n      JUMPDEST \t\t\tlRecipients; i++) {\\r\\n       ...\n    tag 241\t\t\t        for (uint256 i = 0; i ...\n      JUMPDEST \t\t\t        for (uint256 i = 0; i ...\n      PUSH 20\t\t\tmat \n      DUP4 \t\t\t0), \"A\n      ADD \t\t\tess(0), \"Alamat p\n      SWAP2 \t\t\ts[i] != address(0), \"Alamat p\n      POP \t\t\ts[i] != address(0), \"Alamat p\n      DUP4 \t\t\t   \n      PUSH 20\t\t\t    \n      DUP3 \t\t\t\\r\\n    \n      MUL \t\t\tl\");\\r\\n           \n      DUP4 \t\t\t alamat \n      ADD \t\t\toleh alamat nol\");\\r\\n        ...\n      GT \t\t\tk boleh alamat nol\");\\r\\n     ...\n      ISZERO \t\t\tidak boleh alamat nol\");\\r\\n  ...\n      PUSH [tag] 243\t\t\tidak boleh alamat nol\");\\r\\n  ...\n      JUMPI \t\t\tidak boleh alamat nol\");\\r\\n  ...\n      PUSH [tag] 244\t\t\t     // Kirim token ke alamat ...\n      PUSH [tag] 175\t\t\t     // Kirim token ke alamat ...\n      JUMP \t\t\t     // Kirim token ke alamat ...\n    tag 244\t\t\t     // Kirim token ke alamat ...\n      JUMPDEST \t\t\t     // Kirim token ke alamat ...\n    tag 243\t\t\tidak boleh alamat nol\");\\r\\n  ...\n      JUMPDEST \t\t\tidak boleh alamat nol\");\\r\\n  ...\n      SWAP3 \t\t\ti = 0; i < totalRecipients; i+...\n      POP \t\t\ti = 0; i < totalRecipients; i+...\n      SWAP3 \t\t\ti = 0; i < totalRecipients; i+...\n      SWAP1 \t\t\ti = 0; i < totalRecipients; i+...\n      POP \t\t\ti = 0; i < totalRecipients; i+...\n      JUMP \t\t\ti = 0; i < totalRecipients; i+...\n    tag 177\t\t\t            require(success, \"...\n      JUMPDEST \t\t\t            require(success, \"...\n      PUSH 0\t\t\t     // \n      PUSH 0\t\t\tit eve\n      DUP4 \t\t\temi\n      PUSH 1F\t\t\t    \n      DUP5 \t\t\thasil\\r\n      ADD \t\t\t berhasil\\r\\n      \n      SLT \t\t\tsfer berhasil\\r\\n        emit\n      PUSH [tag] 246\t\t\tsemua transfer berhasil\\r\\n   ...\n      JUMPI \t\t\tsemua transfer berhasil\\r\\n   ...\n      PUSH [tag] 247\t\t\tchTransferSuccessful(totalReci...\n      PUSH [tag] 173\t\t\tchTransferSuccessful(totalReci...\n      JUMP \t\t\tchTransferSuccessful(totalReci...\n    tag 247\t\t\tchTransferSuccessful(totalReci...\n      JUMPDEST \t\t\tchTransferSuccessful(totalReci...\n    tag 246\t\t\tsemua transfer berhasil\\r\\n   ...\n      JUMPDEST \t\t\tsemua transfer berhasil\\r\\n   ...\n      DUP3 \t\t\t\\r\\n    \n      CALLDATALOAD \t\t\t\\r\\n    }\\r\\n    \\r\\n    /\n      SWAP1 \t\t\tturn true;\\r\\n    }\\r\\n    \\r\\...\n      POP \t\t\tturn true;\\r\\n    }\\r\\n    \\r\\...\n      PUSH FFFFFFFFFFFFFFFF\t\t\tuntuk mengirim tok\n      DUP2 \t\t\t Fungs\n      GT \t\t\tdev Fungsi untuk mengirim toke\n      ISZERO \t\t\t* @dev Fungsi untuk mengirim t...\n      PUSH [tag] 248\t\t\t* @dev Fungsi untuk mengirim t...\n      JUMPI \t\t\t* @dev Fungsi untuk mengirim t...\n      PUSH [tag] 249\t\t\tRC20 ke banyak alamat sekaligu...\n      PUSH [tag] 174\t\t\tRC20 ke banyak alamat sekaligu...\n      JUMP \t\t\tRC20 ke banyak alamat sekaligu...\n    tag 249\t\t\tRC20 ke banyak alamat sekaligu...\n      JUMPDEST \t\t\tRC20 ke banyak alamat sekaligu...\n    tag 248\t\t\t* @dev Fungsi untuk mengirim t...\n      JUMPDEST \t\t\t* @dev Fungsi untuk mengirim t...\n      PUSH 20\t\t\tlama\n      DUP4 \t\t\t Array\n      ADD \t\t\tents Array alamat\n      SWAP2 \t\t\tparam recipients Array alamat\n      POP \t\t\tparam recipients Array alamat\n      DUP4 \t\t\ten \n      PUSH 20\t\t\tmlah\n      DUP3 \t\t\tArray \n      MUL \t\t\tnts Array jumlah \n      DUP4 \t\t\tparam am\n      ADD \t\t\t * @param amounts Array jumlah...\n      GT \t\t\t    * @param amounts Array jum...\n      ISZERO \t\t\t\\r\\n     * @param amounts Arra...\n      PUSH [tag] 250\t\t\t\\r\\n     * @param amounts Arra...\n      JUMPI \t\t\t\\r\\n     * @param amounts Arra...\n      PUSH [tag] 251\t\t\t dikirim ke masing-masing pene...\n      PUSH [tag] 175\t\t\t dikirim ke masing-masing pene...\n      JUMP \t\t\t dikirim ke masing-masing pene...\n    tag 251\t\t\t dikirim ke masing-masing pene...\n      JUMPDEST \t\t\t dikirim ke masing-masing pene...\n    tag 250\t\t\t\\r\\n     * @param amounts Arra...\n      JUMPDEST \t\t\t\\r\\n     * @param amounts Arra...\n      SWAP3 \t\t\t            require(success, \"...\n      POP \t\t\t            require(success, \"...\n      SWAP3 \t\t\t            require(success, \"...\n      SWAP1 \t\t\t            require(success, \"...\n      POP \t\t\t            require(success, \"...\n      JUMP \t\t\t            require(success, \"...\n    tag 18\t\t\tan transaksi\\r\\n     */\\r\\n   ...\n      JUMPDEST \t\t\tan transaksi\\r\\n     */\\r\\n   ...\n      PUSH 0\t\t\tnts) e\n      PUSH 0\t\t\ternal \n      PUSH 0\t\t\tlyOwne\n      PUSH 0\t\t\treturn\n      PUSH 0\t\t\t(bool)\n      PUSH 60\t\t\tie\n      DUP7 \t\t\tents = re\n      DUP9 \t\t\ttalReci\n      SUB \t\t\t6 totalRecipients = rec\n      SLT \t\t\tnt256 totalRecipients = recipi...\n      ISZERO \t\t\t uint256 totalRecipients = rec...\n      PUSH [tag] 253\t\t\t uint256 totalRecipients = rec...\n      JUMPI \t\t\t uint256 totalRecipients = rec...\n      PUSH [tag] 254\t\t\tlength;\\r\\n        \\r\\n       ...\n      PUSH [tag] 164\t\t\tlength;\\r\\n        \\r\\n       ...\n      JUMP \t\t\tlength;\\r\\n        \\r\\n       ...\n    tag 254\t\t\tlength;\\r\\n        \\r\\n       ...\n      JUMPDEST \t\t\tlength;\\r\\n        \\r\\n       ...\n    tag 253\t\t\t uint256 totalRecipients = rec...\n      JUMPDEST \t\t\t uint256 totalRecipients = rec...\n      PUSH 0\t\t\ts\n      PUSH [tag] 255\t\t\tjang array recipients dan amou...\n      DUP9 \t\t\t);\\r\\n   \n      DUP3 \t\t\trus sa\n      DUP10 \t\t\t amounts \n      ADD \t\t\t dan amounts harus sam\n      PUSH [tag] 169\t\t\tjang array recipients dan amou...\n      JUMP \t\t\tjang array recipients dan amou...\n    tag 255\t\t\tjang array recipients dan amou...\n      JUMPDEST \t\t\tjang array recipients dan amou...\n      SWAP6 \t\t\tngth, \"Panjang array recipient...\n      POP \t\t\tngth, \"Panjang array recipient...\n      POP \t\t\t       require(totalRecipients...\n      PUSH 20\t\t\ts\\r\n      DUP7 \t\t\tfisiensi \n      ADD \t\t\tuk efisiensi gas\\r\\n\n      CALLDATALOAD \t\t\t penerima untuk efisiensi gas\\...\n      PUSH FFFFFFFFFFFFFFFF\t\t\tnts <= 2000, \"Maks\n      DUP2 \t\t\tlRecip\n      GT \t\t\totalRecipients <= 2000, \"Maksi\n      ISZERO \t\t\te(totalRecipients <= 2000, \"Ma...\n      PUSH [tag] 256\t\t\te(totalRecipients <= 2000, \"Ma...\n      JUMPI \t\t\te(totalRecipients <= 2000, \"Ma...\n      PUSH [tag] 257\t\t\t 2000 alamat penerima dalam sa...\n      PUSH [tag] 165\t\t\t 2000 alamat penerima dalam sa...\n      JUMP \t\t\t 2000 alamat penerima dalam sa...\n    tag 257\t\t\t 2000 alamat penerima dalam sa...\n      JUMPDEST \t\t\t 2000 alamat penerima dalam sa...\n    tag 256\t\t\te(totalRecipients <= 2000, \"Ma...\n      JUMPDEST \t\t\te(totalRecipients <= 2000, \"Ma...\n      PUSH [tag] 258\t\t\t20 token = IERC20(tokenAddress...\n      DUP9 \t\t\t= 0;\\r\\n \n      DUP3 \t\t\talAmou\n      DUP10 \t\t\tuint256 t\n      ADD \t\t\t    uint256 totalAmoun\n      PUSH [tag] 176\t\t\t20 token = IERC20(tokenAddress...\n      JUMP \t\t\t20 token = IERC20(tokenAddress...\n    tag 258\t\t\t20 token = IERC20(tokenAddress...\n      JUMPDEST \t\t\t20 token = IERC20(tokenAddress...\n      SWAP5 \t\t\tRC20\\r\\n        IERC20 token =...\n      POP \t\t\tRC20\\r\\n        IERC20 token =...\n      SWAP5 \t\t\tRC20\\r\\n        IERC20 token =...\n      POP \t\t\tRC20\\r\\n        IERC20 token =...\n      POP \t\t\tifikasi batas maksimum alamat ...\n      PUSH 40\t\t\tt \n      DUP7 \t\t\t totalAmo\n      ADD \t\t\t     totalAmount +\n      CALLDATALOAD \t\t\t+) {\\r\\n            totalAmoun...\n      PUSH FFFFFFFFFFFFFFFF\t\t\t      \\r\\n        //\n      DUP2 \t\t\t   }\\r\\n\n      GT \t\t\t      }\\r\\n        \\r\\n       ...\n      ISZERO \t\t\t\\n        }\\r\\n        \\r\\n   ...\n      PUSH [tag] 259\t\t\t\\n        }\\r\\n        \\r\\n   ...\n      JUMPI \t\t\t\\n        }\\r\\n        \\r\\n   ...\n      PUSH [tag] 260\t\t\tifikasi kontrak memiliki allow...\n      PUSH [tag] 165\t\t\tifikasi kontrak memiliki allow...\n      JUMP \t\t\tifikasi kontrak memiliki allow...\n    tag 260\t\t\tifikasi kontrak memiliki allow...\n      JUMPDEST \t\t\tifikasi kontrak memiliki allow...\n    tag 259\t\t\t\\n        }\\r\\n        \\r\\n   ...\n      JUMPDEST \t\t\t\\n        }\\r\\n        \\r\\n   ...\n      PUSH [tag] 261\t\t\tlAmount, \"Allowance token tida...\n      DUP9 \t\t\ttoken d\n      DUP3 \t\t\tTransf\n      DUP10 \t\t\t        /\n      ADD \t\t\t  \\r\\n        // Transfe\n      PUSH [tag] 177\t\t\tlAmount, \"Allowance token tida...\n      JUMP \t\t\tlAmount, \"Allowance token tida...\n    tag 261\t\t\tlAmount, \"Allowance token tida...\n      JUMPDEST \t\t\tlAmount, \"Allowance token tida...\n      SWAP3 \t\t\tess(this)) >= totalAmount, \"Al...\n      POP \t\t\tess(this)) >= totalAmount, \"Al...\n      SWAP3 \t\t\tess(this)) >= totalAmount, \"Al...\n      POP \t\t\tess(this)) >= totalAmount, \"Al...\n      POP \t\t\t = 0; i < totalRecipients; i++...\n      SWAP3 \t\t\tan transaksi\\r\\n     */\\r\\n   ...\n      SWAP6 \t\t\tan transaksi\\r\\n     */\\r\\n   ...\n      POP \t\t\tan transaksi\\r\\n     */\\r\\n   ...\n      SWAP3 \t\t\tan transaksi\\r\\n     */\\r\\n   ...\n      SWAP6 \t\t\tan transaksi\\r\\n     */\\r\\n   ...\n      SWAP1 \t\t\tan transaksi\\r\\n     */\\r\\n   ...\n      SWAP4 \t\t\tan transaksi\\r\\n     */\\r\\n   ...\n      POP \t\t\tan transaksi\\r\\n     */\\r\\n   ...\n      JUMP \t\t\tan transaksi\\r\\n     */\\r\\n   ...\n    tag 178\t\t\t\\n        require(token.transf...\n      JUMPDEST \t\t\t\\n        require(token.transf...\n      PUSH 0\t\t\tm(msg.s\n      DUP2 \t\t\t\"Tran\n      ISZERO \t\t\tount), \"Trans\n      ISZERO \t\t\ttotalAmount), \"Transf\n      SWAP1 \t\t\tess(this), totalAmount), \"Tran...\n      POP \t\t\tess(this), totalAmount), \"Tran...\n      SWAP2 \t\t\t\\n        require(token.transf...\n      SWAP1 \t\t\t\\n        require(token.transf...\n      POP \t\t\t\\n        require(token.transf...\n      JUMP \t\t\t\\n        require(token.transf...\n    tag 179\t\t\tirim ke kontrak gagal\");\\r\\n  ...\n      JUMPDEST \t\t\tirim ke kontrak gagal\");\\r\\n  ...\n      PUSH [tag] 264\t\t\tnerima\\r\\n        for (\n      DUP2 \t\t\t for \n      PUSH [tag] 178\t\t\tnerima\\r\\n        for (\n      JUMP \t\t\tnerima\\r\\n        for (\n    tag 264\t\t\tnerima\\r\\n        for (\n      JUMPDEST \t\t\tnerima\\r\\n        for (\n      DUP3 \t\t\tng \n      MSTORE \t\t\tng-masing penerima\\r\\n        ...\n      POP \t\t\tirim ke kontrak gagal\");\\r\\n  ...\n      POP \t\t\tirim ke kontrak gagal\");\\r\\n  ...\n      JUMP \t\t\tirim ke kontrak gagal\");\\r\\n  ...\n    tag 21\t\t\t; i < totalRecipients; i++) {\\...\n      JUMPDEST \t\t\t; i < totalRecipients; i++) {\\...\n      PUSH 0\t\t\tire(\n      PUSH 20\t\t\tat\n      DUP3 \t\t\ts(0), \"Al\n      ADD \t\t\tdress(0), \"Alamat \n      SWAP1 \t\t\ti] != address(0), \"Alamat \n      POP \t\t\ti] != address(0), \"Alamat \n      PUSH [tag] 266\t\t\tidak boleh alamat nol\");\\r\\n  ...\n      PUSH 0\t\t\tr\n      DUP4 \t\t\t // Trans\n      ADD \t\t\t     // Transfer \n      DUP5 \t\t\t\\r\\n    \n      PUSH [tag] 179\t\t\tidak boleh alamat nol\");\\r\\n  ...\n      JUMP \t\t\tidak boleh alamat nol\");\\r\\n  ...\n    tag 266\t\t\tidak boleh alamat nol\");\\r\\n  ...\n      JUMPDEST \t\t\tidak boleh alamat nol\");\\r\\n  ...\n      SWAP3 \t\t\t; i < totalRecipients; i++) {\\...\n      SWAP2 \t\t\t; i < totalRecipients; i++) {\\...\n      POP \t\t\t; i < totalRecipients; i++) {\\...\n      POP \t\t\t; i < totalRecipients; i++) {\\...\n      JUMP \t\t\t; i < totalRecipients; i++) {\\...\n    tag 24\t\t\tt penerima\\r\\n            requ...\n      JUMPDEST \t\t\tt penerima\\r\\n            requ...\n      PUSH 0\t\t\t      \n      PUSH 0\t\t\t// Emi\n      PUSH 0\t\t\tevent \n      PUSH 0\t\t\ttelah \n      PUSH 40\t\t\tTr\n      DUP6 \t\t\t  emit Ba\n      DUP8 \t\t\tl\\r\\n    \n      SUB \t\t\thasil\\r\\n        emit Bat\n      SLT \t\t\t berhasil\\r\\n        emit Batc...\n      ISZERO \t\t\tfer berhasil\\r\\n        emit B...\n      PUSH [tag] 268\t\t\tfer berhasil\\r\\n        emit B...\n      JUMPI \t\t\tfer berhasil\\r\\n        emit B...\n      PUSH [tag] 269\t\t\terSuccessful(totalRecipients, ...\n      PUSH [tag] 164\t\t\terSuccessful(totalRecipients, ...\n      JUMP \t\t\terSuccessful(totalRecipients, ...\n    tag 269\t\t\terSuccessful(totalRecipients, ...\n      JUMPDEST \t\t\terSuccessful(totalRecipients, ...\n    tag 268\t\t\tfer berhasil\\r\\n        emit B...\n      JUMPDEST \t\t\tfer berhasil\\r\\n        emit B...\n      PUSH 0\t\t\ta\n      DUP6 \t\t\ttuk menge\n      ADD \t\t\ti untuk mengembal\n      CALLDATALOAD \t\t\t * @dev Fungsi untuk mengembal...\n      PUSH FFFFFFFFFFFFFFFF\t\t\ta dikirim ke kontr\n      DUP2 \t\t\tk seng\n      GT \t\t\tidak sengaja dikirim ke kontra\n      ISZERO \t\t\tg tidak sengaja dikirim ke kon...\n      PUSH [tag] 270\t\t\tg tidak sengaja dikirim ke kon...\n      JUMPI \t\t\tg tidak sengaja dikirim ke kon...\n      PUSH [tag] 271\t\t\t     * @param tokenAddress Ala...\n      PUSH [tag] 165\t\t\t     * @param tokenAddress Ala...\n      JUMP \t\t\t     * @param tokenAddress Ala...\n    tag 271\t\t\t     * @param tokenAddress Ala...\n      JUMPDEST \t\t\t     * @param tokenAddress Ala...\n    tag 270\t\t\tg tidak sengaja dikirim ke kon...\n      JUMPDEST \t\t\tg tidak sengaja dikirim ke kon...\n      PUSH [tag] 272\t\t\tlah token yang akan dikembalik...\n      DUP8 \t\t\tdress t\n      DUP3 \t\t\tTokens\n      DUP9 \t\t\tion recov\n      ADD \t\t\tunction recoverTokens(\n      PUSH [tag] 176\t\t\tlah token yang akan dikembalik...\n      JUMP \t\t\tlah token yang akan dikembalik...\n    tag 272\t\t\tlah token yang akan dikembalik...\n      JUMPDEST \t\t\tlah token yang akan dikembalik...\n      SWAP5 \t\t\t @param amount Jumlah token ya...\n      POP \t\t\t @param amount Jumlah token ya...\n      SWAP5 \t\t\t @param amount Jumlah token ya...\n      POP \t\t\t @param amount Jumlah token ya...\n      POP \t\t\t;\\r\\n    }\\r\\n    \\r\\n    /**\\...\n      PUSH 20\t\t\t a\n      DUP6 \t\t\tnAddress \n      ADD \t\t\ttokenAddress == ad\n      CALLDATALOAD \t\t\t\\n        if (tokenAddress == ...\n      PUSH FFFFFFFFFFFFFFFF\t\t\tRecover native tok\n      DUP2 \t\t\t     /\n      GT \t\t\t        // Recover native toke\n      ISZERO \t\t\t           // Recover native t...\n      PUSH [tag] 273\t\t\t           // Recover native t...\n      JUMPI \t\t\t           // Recover native t...\n      PUSH [tag] 274\t\t\t            (bool success, ) =...\n      PUSH [tag] 165\t\t\t            (bool success, ) =...\n      JUMP \t\t\t            (bool success, ) =...\n    tag 274\t\t\t            (bool success, ) =...\n      JUMPDEST \t\t\t            (bool success, ) =...\n    tag 273\t\t\t           // Recover native t...\n      JUMPDEST \t\t\t           // Recover native t...\n      PUSH [tag] 275\t\t\tn gagal\");\\r\\n        } else {...\n      DUP8 \t\t\t      I\n      DUP3 \t\t\tn\\r\\n   \n      DUP9 \t\t\t ERC20 to\n      ADD \t\t\tover ERC20 token\\r\\n    \n      PUSH [tag] 177\t\t\tn gagal\");\\r\\n        } else {...\n      JUMP \t\t\tn gagal\");\\r\\n        } else {...\n    tag 275\t\t\tn gagal\");\\r\\n        } else {...\n      JUMPDEST \t\t\tn gagal\");\\r\\n        } else {...\n      SWAP3 \t\t\tansfer native token gagal\");\\r...\n      POP \t\t\tansfer native token gagal\");\\r...\n      SWAP3 \t\t\tansfer native token gagal\");\\r...\n      POP \t\t\tansfer native token gagal\");\\r...\n      POP \t\t\tamount) external onlyOwner {\\r...\n      SWAP3 \t\t\tt penerima\\r\\n            requ...\n      SWAP6 \t\t\tt penerima\\r\\n            requ...\n      SWAP2 \t\t\tt penerima\\r\\n            requ...\n      SWAP5 \t\t\tt penerima\\r\\n            requ...\n      POP \t\t\tt penerima\\r\\n            requ...\n      SWAP3 \t\t\tt penerima\\r\\n            requ...\n      POP \t\t\tt penerima\\r\\n            requ...\n      JUMP \t\t\tt penerima\\r\\n            requ...\n    tag 180\t\t\tenAddress);\\r\\n            req...\n      JUMPDEST \t\t\tenAddress);\\r\\n            req...\n      PUSH [tag] 277\t\t\t;\\r\\n        }\\r\\n    }\\r\\n   \n      DUP2 \t\t\t}\\r\\n  \n      PUSH [tag] 167\t\t\t;\\r\\n        }\\r\\n    }\\r\\n   \n      JUMP \t\t\t;\\r\\n        }\\r\\n    }\\r\\n   \n    tag 277\t\t\t;\\r\\n        }\\r\\n    }\\r\\n   \n      JUMPDEST \t\t\t;\\r\\n        }\\r\\n    }\\r\\n   \n      DUP3 \t\t\tgal\n      MSTORE \t\t\token gagal\");\\r\\n        }\\r\\n...\n      POP \t\t\tenAddress);\\r\\n            req...\n      POP \t\t\tenAddress);\\r\\n            req...\n      JUMP \t\t\tenAddress);\\r\\n            req...\n    tag 31\t\t\tgsi untuk menerima native toke...\n      JUMPDEST \t\t\tgsi untuk menerima native toke...\n      PUSH 0\t\t\t unt\n      PUSH 20\t\t\t\\r\\n\n      DUP3 \t\t\tce IERC20\n      ADD \t\t\terface IERC20 {\\r\\n \n      SWAP1 \t\t\tC20\\r\\ninterface IERC20 {\\r\\n \n      POP \t\t\tC20\\r\\ninterface IERC20 {\\r\\n \n      PUSH [tag] 279\t\t\tn transferFrom(address sender,...\n      PUSH 0\t\t\tt\n      DUP4 \t\t\t amount) \n      ADD \t\t\tt256 amount) exte\n      DUP5 \t\t\tient, \n      PUSH [tag] 180\t\t\tn transferFrom(address sender,...\n      JUMP \t\t\tn transferFrom(address sender,...\n    tag 279\t\t\tn transferFrom(address sender,...\n      JUMPDEST \t\t\tn transferFrom(address sender,...\n      SWAP3 \t\t\tgsi untuk menerima native toke...\n      SWAP2 \t\t\tgsi untuk menerima native toke...\n      POP \t\t\tgsi untuk menerima native toke...\n      POP \t\t\tgsi untuk menerima native toke...\n      JUMP \t\t\tgsi untuk menerima native toke...\n    tag 35\t\t\tbool);\\r\\n    function transfe...\n      JUMPDEST \t\t\tbool);\\r\\n    function transfe...\n      PUSH 0\t\t\tount) \n      PUSH 20\t\t\twa\n      DUP3 \t\t\tunction a\n      DUP5 \t\t\t);\\r\\n   \n      SUB \t\t\tbool);\\r\\n    function al\n      SLT \t\t\tns (bool);\\r\\n    function all...\n      ISZERO \t\t\tturns (bool);\\r\\n    function ...\n      PUSH [tag] 281\t\t\tturns (bool);\\r\\n    function ...\n      JUMPI \t\t\tturns (bool);\\r\\n    function ...\n      PUSH [tag] 282\t\t\taddress owner, address spender...\n      PUSH [tag] 164\t\t\taddress owner, address spender...\n      JUMP \t\t\taddress owner, address spender...\n    tag 282\t\t\taddress owner, address spender...\n      JUMPDEST \t\t\taddress owner, address spender...\n    tag 281\t\t\tturns (bool);\\r\\n    function ...\n      JUMPDEST \t\t\tturns (bool);\\r\\n    function ...\n      PUSH 0\t\t\t\n      PUSH [tag] 283\t\t\t\n      DUP5 \t\t\t\n      DUP3 \t\t\t\n      DUP6 \t\t\t\n      ADD \t\t\t\n      PUSH [tag] 169\t\t\t\n      JUMP \t\t\t\n    tag 283\t\t\t\n      JUMPDEST \t\t\t\n      SWAP2 \t\t\t\n      POP \t\t\t\n      POP \t\t\t\n      SWAP3 \t\t\tbool);\\r\\n    function transfe...\n      SWAP2 \t\t\tbool);\\r\\n    function transfe...\n      POP \t\t\tbool);\\r\\n    function transfe...\n      POP \t\t\tbool);\\r\\n    function transfe...\n      JUMP \t\t\tbool);\\r\\n    function transfe...\n    tag 181\t\t\t\n      JUMPDEST \t\t\t\n      PUSH 0\t\t\t\n      DUP3 \t\t\t\n      DUP3 \t\t\t\n      MSTORE \t\t\t\n      PUSH 20\t\t\t\n      DUP3 \t\t\t\n      ADD \t\t\t\n      SWAP1 \t\t\t\n      POP \t\t\t\n      SWAP3 \t\t\t\n      SWAP2 \t\t\t\n      POP \t\t\t\n      POP \t\t\t\n      JUMP \t\t\t\n    tag 182\t\t\t\n      JUMPDEST \t\t\t\n      PUSH 48616E7961206F776E65722079616E67206461706174206D656E67616B736573\t\t\t\n      PUSH 0\t\t\t\n      DUP3 \t\t\t\n      ADD \t\t\t\n      MSTORE \t\t\t\n      PUSH 2066756E67736920696E69000000000000000000000000000000000000000000\t\t\t\n      PUSH 20\t\t\t\n      DUP3 \t\t\t\n      ADD \t\t\t\n      MSTORE \t\t\t\n      POP \t\t\t\n      JUMP \t\t\t\n    tag 183\t\t\t\n      JUMPDEST \t\t\t\n      PUSH 0\t\t\t\n      PUSH [tag] 287\t\t\t\n      PUSH 2B\t\t\t\n      DUP4 \t\t\t\n      PUSH [tag] 181\t\t\t\n      JUMP \t\t\t\n    tag 287\t\t\t\n      JUMPDEST \t\t\t\n      SWAP2 \t\t\t\n      POP \t\t\t\n      PUSH [tag] 288\t\t\t\n      DUP3 \t\t\t\n      PUSH [tag] 182\t\t\t\n      JUMP \t\t\t\n    tag 288\t\t\t\n      JUMPDEST \t\t\t\n      PUSH 40\t\t\t\n      DUP3 \t\t\t\n      ADD \t\t\t\n      SWAP1 \t\t\t\n      POP \t\t\t\n      SWAP2 \t\t\t\n      SWAP1 \t\t\t\n      POP \t\t\t\n      JUMP \t\t\t\n    tag 40\t\t\t\n      JUMPDEST \t\t\t\n      PUSH 0\t\t\t\n      PUSH 20\t\t\t\n      DUP3 \t\t\t\n      ADD \t\t\t\n      SWAP1 \t\t\t\n      POP \t\t\t\n      DUP2 \t\t\t\n      DUP2 \t\t\t\n      SUB \t\t\t\n      PUSH 0\t\t\t\n      DUP4 \t\t\t\n      ADD \t\t\t\n      MSTORE \t\t\t\n      PUSH [tag] 290\t\t\t\n      DUP2 \t\t\t\n      PUSH [tag] 183\t\t\t\n      JUMP \t\t\t\n    tag 290\t\t\t\n      JUMPDEST \t\t\t\n      SWAP1 \t\t\t\n      POP \t\t\t\n      SWAP2 \t\t\t\n      SWAP1 \t\t\t\n      POP \t\t\t\n      JUMP \t\t\t\n    tag 184\t\t\t\n      JUMPDEST \t\t\t\n      PUSH 0\t\t\t\n      DUP2 \t\t\t\n      SWAP1 \t\t\t\n      POP \t\t\t\n      SWAP3 \t\t\t\n      SWAP2 \t\t\t\n      POP \t\t\t\n      POP \t\t\t\n      JUMP \t\t\t\n    tag 185\t\t\t\n      JUMPDEST \t\t\t\n      POP \t\t\t\n      JUMP \t\t\t\n    tag 186\t\t\t\n      JUMPDEST \t\t\t\n      PUSH 0\t\t\t\n      PUSH [tag] 294\t\t\t\n      PUSH 0\t\t\t\n      DUP4 \t\t\t\n      PUSH [tag] 184\t\t\t\n      JUMP \t\t\t\n    tag 294\t\t\t\n      JUMPDEST \t\t\t\n      SWAP2 \t\t\t\n      POP \t\t\t\n      PUSH [tag] 295\t\t\t\n      DUP3 \t\t\t\n      PUSH [tag] 185\t\t\t\n      JUMP \t\t\t\n    tag 295\t\t\t\n      JUMPDEST \t\t\t\n      PUSH 0\t\t\t\n      DUP3 \t\t\t\n      ADD \t\t\t\n      SWAP1 \t\t\t\n      POP \t\t\t\n      SWAP2 \t\t\t\n      SWAP1 \t\t\t\n      POP \t\t\t\n      JUMP \t\t\t\n    tag 44\t\t\t\n      JUMPDEST \t\t\t\n      PUSH 0\t\t\t\n      PUSH [tag] 297\t\t\t\n      DUP3 \t\t\t\n      PUSH [tag] 186\t\t\t\n      JUMP \t\t\t\n    tag 297\t\t\t\n      JUMPDEST \t\t\t\n      SWAP2 \t\t\t\n      POP \t\t\t\n      DUP2 \t\t\t\n      SWAP1 \t\t\t\n      POP \t\t\t\n      SWAP2 \t\t\t\n      SWAP1 \t\t\t\n      POP \t\t\t\n      JUMP \t\t\t\n    tag 187\t\t\t\n      JUMPDEST \t\t\t\n      PUSH 5472616E73666572206E617469766520746F6B656E20676167616C0000000000\t\t\t\n      PUSH 0\t\t\t\n      DUP3 \t\t\t\n      ADD \t\t\t\n      MSTORE \t\t\t\n      POP \t\t\t\n      JUMP \t\t\t\n    tag 188\t\t\t\n      JUMPDEST \t\t\t\n      PUSH 0\t\t\t\n      PUSH [tag] 300\t\t\t\n      PUSH 1B\t\t\t\n      DUP4 \t\t\t\n      PUSH [tag] 181\t\t\t\n      JUMP \t\t\t\n    tag 300\t\t\t\n      JUMPDEST \t\t\t\n      SWAP2 \t\t\t\n      POP \t\t\t\n      PUSH [tag] 301\t\t\t\n      DUP3 \t\t\t\n      PUSH [tag] 187\t\t\t\n      JUMP \t\t\t\n    tag 301\t\t\t\n      JUMPDEST \t\t\t\n      PUSH 20\t\t\t\n      DUP3 \t\t\t\n      ADD \t\t\t\n      SWAP1 \t\t\t\n      POP \t\t\t\n      SWAP2 \t\t\t\n      SWAP1 \t\t\t\n      POP \t\t\t\n      JUMP \t\t\t\n    tag 50\t\t\t\n      JUMPDEST \t\t\t\n      PUSH 0\t\t\t\n      PUSH 20\t\t\t\n      DUP3 \t\t\t\n      ADD \t\t\t\n      SWAP1 \t\t\t\n      POP \t\t\t\n      DUP2 \t\t\t\n      DUP2 \t\t\t\n      SUB \t\t\t\n      PUSH 0\t\t\t\n      DUP4 \t\t\t\n      ADD \t\t\t\n      MSTORE \t\t\t\n      PUSH [tag] 303\t\t\t\n      DUP2 \t\t\t\n      PUSH [tag] 188\t\t\t\n      JUMP \t\t\t\n    tag 303\t\t\t\n      JUMPDEST \t\t\t\n      SWAP1 \t\t\t\n      POP \t\t\t\n      SWAP2 \t\t\t\n      SWAP1 \t\t\t\n      POP \t\t\t\n      JUMP \t\t\t\n    tag 189\t\t\t\n      JUMPDEST \t\t\t\n      PUSH [tag] 305\t\t\t\n      DUP2 \t\t\t\n      PUSH [tag] 170\t\t\t\n      JUMP \t\t\t\n    tag 305\t\t\t\n      JUMPDEST \t\t\t\n      DUP3 \t\t\t\n      MSTORE \t\t\t\n      POP \t\t\t\n      POP \t\t\t\n      JUMP \t\t\t\n    tag 53\t\t\t\n      JUMPDEST \t\t\t\n      PUSH 0\t\t\t\n      PUSH 40\t\t\t\n      DUP3 \t\t\t\n      ADD \t\t\t\n      SWAP1 \t\t\t\n      POP \t\t\t\n      PUSH [tag] 307\t\t\t\n      PUSH 0\t\t\t\n      DUP4 \t\t\t\n      ADD \t\t\t\n      DUP6 \t\t\t\n      PUSH [tag] 180\t\t\t\n      JUMP \t\t\t\n    tag 307\t\t\t\n      JUMPDEST \t\t\t\n      PUSH [tag] 308\t\t\t\n      PUSH 20\t\t\t\n      DUP4 \t\t\t\n      ADD \t\t\t\n      DUP5 \t\t\t\n      PUSH [tag] 189\t\t\t\n      JUMP \t\t\t\n    tag 308\t\t\t\n      JUMPDEST \t\t\t\n      SWAP4 \t\t\t\n      SWAP3 \t\t\t\n      POP \t\t\t\n      POP \t\t\t\n      POP \t\t\t\n      JUMP \t\t\t\n    tag 190\t\t\t\n      JUMPDEST \t\t\t\n      PUSH [tag] 310\t\t\t\n      DUP2 \t\t\t\n      PUSH [tag] 178\t\t\t\n      JUMP \t\t\t\n    tag 310\t\t\t\n      JUMPDEST \t\t\t\n      DUP2 \t\t\t\n      EQ \t\t\t\n      PUSH [tag] 311\t\t\t\n      JUMPI \t\t\t\n      PUSH 0\t\t\t\n      PUSH 0\t\t\t\n      REVERT \t\t\t\n    tag 311\t\t\t\n      JUMPDEST \t\t\t\n      POP \t\t\t\n      JUMP \t\t\t\n    tag 191\t\t\t\n      JUMPDEST \t\t\t\n      PUSH 0\t\t\t\n      DUP2 \t\t\t\n      MLOAD \t\t\t\n      SWAP1 \t\t\t\n      POP \t\t\t\n      PUSH [tag] 313\t\t\t\n      DUP2 \t\t\t\n      PUSH [tag] 190\t\t\t\n      JUMP \t\t\t\n    tag 313\t\t\t\n      JUMPDEST \t\t\t\n      SWAP3 \t\t\t\n      SWAP2 \t\t\t\n      POP \t\t\t\n      POP \t\t\t\n      JUMP \t\t\t\n    tag 57\t\t\t\n      JUMPDEST \t\t\t\n      PUSH 0\t\t\t\n      PUSH 20\t\t\t\n      DUP3 \t\t\t\n      DUP5 \t\t\t\n      SUB \t\t\t\n      SLT \t\t\t\n      ISZERO \t\t\t\n      PUSH [tag] 315\t\t\t\n      JUMPI \t\t\t\n      PUSH [tag] 316\t\t\t\n      PUSH [tag] 164\t\t\t\n      JUMP \t\t\t\n    tag 316\t\t\t\n      JUMPDEST \t\t\t\n    tag 315\t\t\t\n      JUMPDEST \t\t\t\n      PUSH 0\t\t\t\n      PUSH [tag] 317\t\t\t\n      DUP5 \t\t\t\n      DUP3 \t\t\t\n      DUP6 \t\t\t\n      ADD \t\t\t\n      PUSH [tag] 191\t\t\t\n      JUMP \t\t\t\n    tag 317\t\t\t\n      JUMPDEST \t\t\t\n      SWAP2 \t\t\t\n      POP \t\t\t\n      POP \t\t\t\n      SWAP3 \t\t\t\n      SWAP2 \t\t\t\n      POP \t\t\t\n      POP \t\t\t\n      JUMP \t\t\t\n    tag 192\t\t\t\n      JUMPDEST \t\t\t\n      PUSH 5472616E7366657220746F6B656E20676167616C000000000000000000000000\t\t\t\n      PUSH 0\t\t\t\n      DUP3 \t\t\t\n      ADD \t\t\t\n      MSTORE \t\t\t\n      POP \t\t\t\n      JUMP \t\t\t\n    tag 193\t\t\t\n      JUMPDEST \t\t\t\n      PUSH 0\t\t\t\n      PUSH [tag] 320\t\t\t\n      PUSH 14\t\t\t\n      DUP4 \t\t\t\n      PUSH [tag] 181\t\t\t\n      JUMP \t\t\t\n    tag 320\t\t\t\n      JUMPDEST \t\t\t\n      SWAP2 \t\t\t\n      POP \t\t\t\n      PUSH [tag] 321\t\t\t\n      DUP3 \t\t\t\n      PUSH [tag] 192\t\t\t\n      JUMP \t\t\t\n    tag 321\t\t\t\n      JUMPDEST \t\t\t\n      PUSH 20\t\t\t\n      DUP3 \t\t\t\n      ADD \t\t\t\n      SWAP1 \t\t\t\n      POP \t\t\t\n      SWAP2 \t\t\t\n      SWAP1 \t\t\t\n      POP \t\t\t\n      JUMP \t\t\t\n    tag 60\t\t\t\n      JUMPDEST \t\t\t\n      PUSH 0\t\t\t\n      PUSH 20\t\t\t\n      DUP3 \t\t\t\n      ADD \t\t\t\n      SWAP1 \t\t\t\n      POP \t\t\t\n      DUP2 \t\t\t\n      DUP2 \t\t\t\n      SUB \t\t\t\n      PUSH 0\t\t\t\n      DUP4 \t\t\t\n      ADD \t\t\t\n      MSTORE \t\t\t\n      PUSH [tag] 323\t\t\t\n      DUP2 \t\t\t\n      PUSH [tag] 193\t\t\t\n      JUMP \t\t\t\n    tag 323\t\t\t\n      JUMPDEST \t\t\t\n      SWAP1 \t\t\t\n      POP \t\t\t\n      SWAP2 \t\t\t\n      SWAP1 \t\t\t\n      POP \t\t\t\n      JUMP \t\t\t\n    tag 194\t\t\t\n      JUMPDEST \t\t\t\n      PUSH 50616E6A616E6720617272617920726563697069656E74732064616E20616D6F\t\t\t\n      PUSH 0\t\t\t\n      DUP3 \t\t\t\n      ADD \t\t\t\n      MSTORE \t\t\t\n      PUSH 756E74732068617275732073616D610000000000000000000000000000000000\t\t\t\n      PUSH 20\t\t\t\n      DUP3 \t\t\t\n      ADD \t\t\t\n      MSTORE \t\t\t\n      POP \t\t\t\n      JUMP \t\t\t\n    tag 195\t\t\t\n      JUMPDEST \t\t\t\n      PUSH 0\t\t\t\n      PUSH [tag] 326\t\t\t\n      PUSH 2F\t\t\t\n      DUP4 \t\t\t\n      PUSH [tag] 181\t\t\t\n      JUMP \t\t\t\n    tag 326\t\t\t\n      JUMPDEST \t\t\t\n      SWAP2 \t\t\t\n      POP \t\t\t\n      PUSH [tag] 327\t\t\t\n      DUP3 \t\t\t\n      PUSH [tag] 194\t\t\t\n      JUMP \t\t\t\n    tag 327\t\t\t\n      JUMPDEST \t\t\t\n      PUSH 40\t\t\t\n      DUP3 \t\t\t\n      ADD \t\t\t\n      SWAP1 \t\t\t\n      POP \t\t\t\n      SWAP2 \t\t\t\n      SWAP1 \t\t\t\n      POP \t\t\t\n      JUMP \t\t\t\n    tag 67\t\t\t\n      JUMPDEST \t\t\t\n      PUSH 0\t\t\t\n      PUSH 20\t\t\t\n      DUP3 \t\t\t\n      ADD \t\t\t\n      SWAP1 \t\t\t\n      POP \t\t\t\n      DUP2 \t\t\t\n      DUP2 \t\t\t\n      SUB \t\t\t\n      PUSH 0\t\t\t\n      DUP4 \t\t\t\n      ADD \t\t\t\n      MSTORE \t\t\t\n      PUSH [tag] 329\t\t\t\n      DUP2 \t\t\t\n      PUSH [tag] 195\t\t\t\n      JUMP \t\t\t\n    tag 329\t\t\t\n      JUMPDEST \t\t\t\n      SWAP1 \t\t\t\n      POP \t\t\t\n      SWAP2 \t\t\t\n      SWAP1 \t\t\t\n      POP \t\t\t\n      JUMP \t\t\t\n    tag 196\t\t\t\n      JUMPDEST \t\t\t\n      PUSH 4D616B73696D616C203230303020616C616D61742070656E6572696D61206461\t\t\t\n      PUSH 0\t\t\t\n      DUP3 \t\t\t\n      ADD \t\t\t\n      MSTORE \t\t\t\n      PUSH 6C616D2073617475206261746368000000000000000000000000000000000000\t\t\t\n      PUSH 20\t\t\t\n      DUP3 \t\t\t\n      ADD \t\t\t\n      MSTORE \t\t\t\n      POP \t\t\t\n      JUMP \t\t\t\n    tag 197\t\t\t\n      JUMPDEST \t\t\t\n      PUSH 0\t\t\t\n      PUSH [tag] 332\t\t\t\n      PUSH 2E\t\t\t\n      DUP4 \t\t\t\n      PUSH [tag] 181\t\t\t\n      JUMP \t\t\t\n    tag 332\t\t\t\n      JUMPDEST \t\t\t\n      SWAP2 \t\t\t\n      POP \t\t\t\n      PUSH [tag] 333\t\t\t\n      DUP3 \t\t\t\n      PUSH [tag] 196\t\t\t\n      JUMP \t\t\t\n    tag 333\t\t\t\n      JUMPDEST \t\t\t\n      PUSH 40\t\t\t\n      DUP3 \t\t\t\n      ADD \t\t\t\n      SWAP1 \t\t\t\n      POP \t\t\t\n      SWAP2 \t\t\t\n      SWAP1 \t\t\t\n      POP \t\t\t\n      JUMP \t\t\t\n    tag 70\t\t\t\n      JUMPDEST \t\t\t\n      PUSH 0\t\t\t\n      PUSH 20\t\t\t\n      DUP3 \t\t\t\n      ADD \t\t\t\n      SWAP1 \t\t\t\n      POP \t\t\t\n      DUP2 \t\t\t\n      DUP2 \t\t\t\n      SUB \t\t\t\n      PUSH 0\t\t\t\n      DUP4 \t\t\t\n      ADD \t\t\t\n      MSTORE \t\t\t\n      PUSH [tag] 335\t\t\t\n      DUP2 \t\t\t\n      PUSH [tag] 197\t\t\t\n      JUMP \t\t\t\n    tag 335\t\t\t\n      JUMPDEST \t\t\t\n      SWAP1 \t\t\t\n      POP \t\t\t\n      SWAP2 \t\t\t\n      SWAP1 \t\t\t\n      POP \t\t\t\n      JUMP \t\t\t\n    tag 76\t\t\t\n      JUMPDEST \t\t\t\n      PUSH 4E487B7100000000000000000000000000000000000000000000000000000000\t\t\t\n      PUSH 0\t\t\t\n      MSTORE \t\t\t\n      PUSH 32\t\t\t\n      PUSH 4\t\t\t\n      MSTORE \t\t\t\n      PUSH 24\t\t\t\n      PUSH 0\t\t\t\n      REVERT \t\t\t\n    tag 198\t\t\t\n      JUMPDEST \t\t\t\n      PUSH 4E487B7100000000000000000000000000000000000000000000000000000000\t\t\t\n      PUSH 0\t\t\t\n      MSTORE \t\t\t\n      PUSH 11\t\t\t\n      PUSH 4\t\t\t\n      MSTORE \t\t\t\n      PUSH 24\t\t\t\n      PUSH 0\t\t\t\n      REVERT \t\t\t\n    tag 78\t\t\t\n      JUMPDEST \t\t\t\n      PUSH 0\t\t\t\n      PUSH [tag] 339\t\t\t\n      DUP3 \t\t\t\n      PUSH [tag] 170\t\t\t\n      JUMP \t\t\t\n    tag 339\t\t\t\n      JUMPDEST \t\t\t\n      SWAP2 \t\t\t\n      POP \t\t\t\n      PUSH [tag] 340\t\t\t\n      DUP4 \t\t\t\n      PUSH [tag] 170\t\t\t\n      JUMP \t\t\t\n    tag 340\t\t\t\n      JUMPDEST \t\t\t\n      SWAP3 \t\t\t\n      POP \t\t\t\n      DUP3 \t\t\t\n      DUP3 \t\t\t\n      ADD \t\t\t\n      SWAP1 \t\t\t\n      POP \t\t\t\n      DUP1 \t\t\t\n      DUP3 \t\t\t\n      GT \t\t\t\n      ISZERO \t\t\t\n      PUSH [tag] 341\t\t\t\n      JUMPI \t\t\t\n      PUSH [tag] 342\t\t\t\n      PUSH [tag] 198\t\t\t\n      JUMP \t\t\t\n    tag 342\t\t\t\n      JUMPDEST \t\t\t\n    tag 341\t\t\t\n      JUMPDEST \t\t\t\n      SWAP3 \t\t\t\n      SWAP2 \t\t\t\n      POP \t\t\t\n      POP \t\t\t\n      JUMP \t\t\t\n    tag 80\t\t\t\n      JUMPDEST \t\t\t\n      PUSH 0\t\t\t\n      PUSH 40\t\t\t\n      DUP3 \t\t\t\n      ADD \t\t\t\n      SWAP1 \t\t\t\n      POP \t\t\t\n      PUSH [tag] 344\t\t\t\n      PUSH 0\t\t\t\n      DUP4 \t\t\t\n      ADD \t\t\t\n      DUP6 \t\t\t\n      PUSH [tag] 180\t\t\t\n      JUMP \t\t\t\n    tag 344\t\t\t\n      JUMPDEST \t\t\t\n      PUSH [tag] 345\t\t\t\n      PUSH 20\t\t\t\n      DUP4 \t\t\t\n      ADD \t\t\t\n      DUP5 \t\t\t\n      PUSH [tag] 180\t\t\t\n      JUMP \t\t\t\n    tag 345\t\t\t\n      JUMPDEST \t\t\t\n      SWAP4 \t\t\t\n      SWAP3 \t\t\t\n      POP \t\t\t\n      POP \t\t\t\n      POP \t\t\t\n      JUMP \t\t\t\n    tag 199\t\t\t\n      JUMPDEST \t\t\t\n      PUSH 0\t\t\t\n      DUP2 \t\t\t\n      MLOAD \t\t\t\n      SWAP1 \t\t\t\n      POP \t\t\t\n      PUSH [tag] 347\t\t\t\n      DUP2 \t\t\t\n      PUSH [tag] 171\t\t\t\n      JUMP \t\t\t\n    tag 347\t\t\t\n      JUMPDEST \t\t\t\n      SWAP3 \t\t\t\n      SWAP2 \t\t\t\n      POP \t\t\t\n      POP \t\t\t\n      JUMP \t\t\t\n    tag 84\t\t\t\n      JUMPDEST \t\t\t\n      PUSH 0\t\t\t\n      PUSH 20\t\t\t\n      DUP3 \t\t\t\n      DUP5 \t\t\t\n      SUB \t\t\t\n      SLT \t\t\t\n      ISZERO \t\t\t\n      PUSH [tag] 349\t\t\t\n      JUMPI \t\t\t\n      PUSH [tag] 350\t\t\t\n      PUSH [tag] 164\t\t\t\n      JUMP \t\t\t\n    tag 350\t\t\t\n      JUMPDEST \t\t\t\n    tag 349\t\t\t\n      JUMPDEST \t\t\t\n      PUSH 0\t\t\t\n      PUSH [tag] 351\t\t\t\n      DUP5 \t\t\t\n      DUP3 \t\t\t\n      DUP6 \t\t\t\n      ADD \t\t\t\n      PUSH [tag] 199\t\t\t\n      JUMP \t\t\t\n    tag 351\t\t\t\n      JUMPDEST \t\t\t\n      SWAP2 \t\t\t\n      POP \t\t\t\n      POP \t\t\t\n      SWAP3 \t\t\t\n      SWAP2 \t\t\t\n      POP \t\t\t\n      POP \t\t\t\n      JUMP \t\t\t\n    tag 200\t\t\t\n      JUMPDEST \t\t\t\n      PUSH 416C6C6F77616E636520746F6B656E20746964616B2063756B75700000000000\t\t\t\n      PUSH 0\t\t\t\n      DUP3 \t\t\t\n      ADD \t\t\t\n      MSTORE \t\t\t\n      POP \t\t\t\n      JUMP \t\t\t\n    tag 201\t\t\t\n      JUMPDEST \t\t\t\n      PUSH 0\t\t\t\n      PUSH [tag] 354\t\t\t\n      PUSH 1B\t\t\t\n      DUP4 \t\t\t\n      PUSH [tag] 181\t\t\t\n      JUMP \t\t\t\n    tag 354\t\t\t\n      JUMPDEST \t\t\t\n      SWAP2 \t\t\t\n      POP \t\t\t\n      PUSH [tag] 355\t\t\t\n      DUP3 \t\t\t\n      PUSH [tag] 200\t\t\t\n      JUMP \t\t\t\n    tag 355\t\t\t\n      JUMPDEST \t\t\t\n      PUSH 20\t\t\t\n      DUP3 \t\t\t\n      ADD \t\t\t\n      SWAP1 \t\t\t\n      POP \t\t\t\n      SWAP2 \t\t\t\n      SWAP1 \t\t\t\n      POP \t\t\t\n      JUMP \t\t\t\n    tag 87\t\t\t\n      JUMPDEST \t\t\t\n      PUSH 0\t\t\t\n      PUSH 20\t\t\t\n      DUP3 \t\t\t\n      ADD \t\t\t\n      SWAP1 \t\t\t\n      POP \t\t\t\n      DUP2 \t\t\t\n      DUP2 \t\t\t\n      SUB \t\t\t\n      PUSH 0\t\t\t\n      DUP4 \t\t\t\n      ADD \t\t\t\n      MSTORE \t\t\t\n      PUSH [tag] 357\t\t\t\n      DUP2 \t\t\t\n      PUSH [tag] 201\t\t\t\n      JUMP \t\t\t\n    tag 357\t\t\t\n      JUMPDEST \t\t\t\n      SWAP1 \t\t\t\n      POP \t\t\t\n      SWAP2 \t\t\t\n      SWAP1 \t\t\t\n      POP \t\t\t\n      JUMP \t\t\t\n    tag 89\t\t\t\n      JUMPDEST \t\t\t\n      PUSH 0\t\t\t\n      PUSH 60\t\t\t\n      DUP3 \t\t\t\n      ADD \t\t\t\n      SWAP1 \t\t\t\n      POP \t\t\t\n      PUSH [tag] 359\t\t\t\n      PUSH 0\t\t\t\n      DUP4 \t\t\t\n      ADD \t\t\t\n      DUP7 \t\t\t\n      PUSH [tag] 180\t\t\t\n      JUMP \t\t\t\n    tag 359\t\t\t\n      JUMPDEST \t\t\t\n      PUSH [tag] 360\t\t\t\n      PUSH 20\t\t\t\n      DUP4 \t\t\t\n      ADD \t\t\t\n      DUP6 \t\t\t\n      PUSH [tag] 180\t\t\t\n      JUMP \t\t\t\n    tag 360\t\t\t\n      JUMPDEST \t\t\t\n      PUSH [tag] 361\t\t\t\n      PUSH 40\t\t\t\n      DUP4 \t\t\t\n      ADD \t\t\t\n      DUP5 \t\t\t\n      PUSH [tag] 189\t\t\t\n      JUMP \t\t\t\n    tag 361\t\t\t\n      JUMPDEST \t\t\t\n      SWAP5 \t\t\t\n      SWAP4 \t\t\t\n      POP \t\t\t\n      POP \t\t\t\n      POP \t\t\t\n      POP \t\t\t\n      JUMP \t\t\t\n    tag 202\t\t\t\n      JUMPDEST \t\t\t\n      PUSH 5472616E7366657220646172692070656E676972696D206B65206B6F6E747261\t\t\t\n      PUSH 0\t\t\t\n      DUP3 \t\t\t\n      ADD \t\t\t\n      MSTORE \t\t\t\n      PUSH 6B20676167616C00000000000000000000000000000000000000000000000000\t\t\t\n      PUSH 20\t\t\t\n      DUP3 \t\t\t\n      ADD \t\t\t\n      MSTORE \t\t\t\n      POP \t\t\t\n      JUMP \t\t\t\n    tag 203\t\t\t\n      JUMPDEST \t\t\t\n      PUSH 0\t\t\t\n      PUSH [tag] 364\t\t\t\n      PUSH 27\t\t\t\n      DUP4 \t\t\t\n      PUSH [tag] 181\t\t\t\n      JUMP \t\t\t\n    tag 364\t\t\t\n      JUMPDEST \t\t\t\n      SWAP2 \t\t\t\n      POP \t\t\t\n      PUSH [tag] 365\t\t\t\n      DUP3 \t\t\t\n      PUSH [tag] 202\t\t\t\n      JUMP \t\t\t\n    tag 365\t\t\t\n      JUMPDEST \t\t\t\n      PUSH 40\t\t\t\n      DUP3 \t\t\t\n      ADD \t\t\t\n      SWAP1 \t\t\t\n      POP \t\t\t\n      SWAP2 \t\t\t\n      SWAP1 \t\t\t\n      POP \t\t\t\n      JUMP \t\t\t\n    tag 95\t\t\t\n      JUMPDEST \t\t\t\n      PUSH 0\t\t\t\n      PUSH 20\t\t\t\n      DUP3 \t\t\t\n      ADD \t\t\t\n      SWAP1 \t\t\t\n      POP \t\t\t\n      DUP2 \t\t\t\n      DUP2 \t\t\t\n      SUB \t\t\t\n      PUSH 0\t\t\t\n      DUP4 \t\t\t\n      ADD \t\t\t\n      MSTORE \t\t\t\n      PUSH [tag] 367\t\t\t\n      DUP2 \t\t\t\n      PUSH [tag] 203\t\t\t\n      JUMP \t\t\t\n    tag 367\t\t\t\n      JUMPDEST \t\t\t\n      SWAP1 \t\t\t\n      POP \t\t\t\n      SWAP2 \t\t\t\n      SWAP1 \t\t\t\n      POP \t\t\t\n      JUMP \t\t\t\n    tag 204\t\t\t\n      JUMPDEST \t\t\t\n      PUSH 416C616D61742070656E6572696D6120746964616B20626F6C656820616C616D\t\t\t\n      PUSH 0\t\t\t\n      DUP3 \t\t\t\n      ADD \t\t\t\n      MSTORE \t\t\t\n      PUSH 6174206E6F6C0000000000000000000000000000000000000000000000000000\t\t\t\n      PUSH 20\t\t\t\n      DUP3 \t\t\t\n      ADD \t\t\t\n      MSTORE \t\t\t\n      POP \t\t\t\n      JUMP \t\t\t\n    tag 205\t\t\t\n      JUMPDEST \t\t\t\n      PUSH 0\t\t\t\n      PUSH [tag] 370\t\t\t\n      PUSH 26\t\t\t\n      DUP4 \t\t\t\n      PUSH [tag] 181\t\t\t\n      JUMP \t\t\t\n    tag 370\t\t\t\n      JUMPDEST \t\t\t\n      SWAP2 \t\t\t\n      POP \t\t\t\n      PUSH [tag] 371\t\t\t\n      DUP3 \t\t\t\n      PUSH [tag] 204\t\t\t\n      JUMP \t\t\t\n    tag 371\t\t\t\n      JUMPDEST \t\t\t\n      PUSH 40\t\t\t\n      DUP3 \t\t\t\n      ADD \t\t\t\n      SWAP1 \t\t\t\n      POP \t\t\t\n      SWAP2 \t\t\t\n      SWAP1 \t\t\t\n      POP \t\t\t\n      JUMP \t\t\t\n    tag 104\t\t\t\n      JUMPDEST \t\t\t\n      PUSH 0\t\t\t\n      PUSH 20\t\t\t\n      DUP3 \t\t\t\n      ADD \t\t\t\n      SWAP1 \t\t\t\n      POP \t\t\t\n      DUP2 \t\t\t\n      DUP2 \t\t\t\n      SUB \t\t\t\n      PUSH 0\t\t\t\n      DUP4 \t\t\t\n      ADD \t\t\t\n      MSTORE \t\t\t\n      PUSH [tag] 373\t\t\t\n      DUP2 \t\t\t\n      PUSH [tag] 205\t\t\t\n      JUMP \t\t\t\n    tag 373\t\t\t\n      JUMPDEST \t\t\t\n      SWAP1 \t\t\t\n      POP \t\t\t\n      SWAP2 \t\t\t\n      SWAP1 \t\t\t\n      POP \t\t\t\n      JUMP \t\t\t\n    tag 117\t\t\t\n      JUMPDEST \t\t\t\n      PUSH 0\t\t\t\n      PUSH 60\t\t\t\n      DUP3 \t\t\t\n      ADD \t\t\t\n      SWAP1 \t\t\t\n      POP \t\t\t\n      PUSH [tag] 375\t\t\t\n      PUSH 0\t\t\t\n      DUP4 \t\t\t\n      ADD \t\t\t\n      DUP7 \t\t\t\n      PUSH [tag] 189\t\t\t\n      JUMP \t\t\t\n    tag 375\t\t\t\n      JUMPDEST \t\t\t\n      PUSH [tag] 376\t\t\t\n      PUSH 20\t\t\t\n      DUP4 \t\t\t\n      ADD \t\t\t\n      DUP6 \t\t\t\n      PUSH [tag] 189\t\t\t\n      JUMP \t\t\t\n    tag 376\t\t\t\n      JUMPDEST \t\t\t\n      PUSH [tag] 377\t\t\t\n      PUSH 40\t\t\t\n      DUP4 \t\t\t\n      ADD \t\t\t\n      DUP5 \t\t\t\n      PUSH [tag] 189\t\t\t\n      JUMP \t\t\t\n    tag 377\t\t\t\n      JUMPDEST \t\t\t\n      SWAP5 \t\t\t\n      SWAP4 \t\t\t\n      POP \t\t\t\n      POP \t\t\t\n      POP \t\t\t\n      POP \t\t\t\n      JUMP \t\t\t\n    tag 206\t\t\t\n      JUMPDEST \t\t\t\n      PUSH 546F74616C20616D6F756E742068617275732073616D612064656E67616E206E\t\t\t\n      PUSH 0\t\t\t\n      DUP3 \t\t\t\n      ADD \t\t\t\n      MSTORE \t\t\t\n      PUSH 696C61692079616E672064696B6972696D000000000000000000000000000000\t\t\t\n      PUSH 20\t\t\t\n      DUP3 \t\t\t\n      ADD \t\t\t\n      MSTORE \t\t\t\n      POP \t\t\t\n      JUMP \t\t\t\n    tag 207\t\t\t\n      JUMPDEST \t\t\t\n      PUSH 0\t\t\t\n      PUSH [tag] 380\t\t\t\n      PUSH 31\t\t\t\n      DUP4 \t\t\t\n      PUSH [tag] 181\t\t\t\n      JUMP \t\t\t\n    tag 380\t\t\t\n      JUMPDEST \t\t\t\n      SWAP2 \t\t\t\n      POP \t\t\t\n      PUSH [tag] 381\t\t\t\n      DUP3 \t\t\t\n      PUSH [tag] 206\t\t\t\n      JUMP \t\t\t\n    tag 381\t\t\t\n      JUMPDEST \t\t\t\n      PUSH 40\t\t\t\n      DUP3 \t\t\t\n      ADD \t\t\t\n      SWAP1 \t\t\t\n      POP \t\t\t\n      SWAP2 \t\t\t\n      SWAP1 \t\t\t\n      POP \t\t\t\n      JUMP \t\t\t\n    tag 134\t\t\t\n      JUMPDEST \t\t\t\n      PUSH 0\t\t\t\n      PUSH 20\t\t\t\n      DUP3 \t\t\t\n      ADD \t\t\t\n      SWAP1 \t\t\t\n      POP \t\t\t\n      DUP2 \t\t\t\n      DUP2 \t\t\t\n      SUB \t\t\t\n      PUSH 0\t\t\t\n      DUP4 \t\t\t\n      ADD \t\t\t\n      MSTORE \t\t\t\n      PUSH [tag] 383\t\t\t\n      DUP2 \t\t\t\n      PUSH [tag] 207\t\t\t\n      JUMP \t\t\t\n    tag 383\t\t\t\n      JUMPDEST \t\t\t\n      SWAP1 \t\t\t\n      POP \t\t\t\n      SWAP2 \t\t\t\n      SWAP1 \t\t\t\n      POP \t\t\t\n      JUMP \t\t\t\n    tag 208\t\t\t\n      JUMPDEST \t\t\t\n      PUSH 5472616E7366657220676167616C000000000000000000000000000000000000\t\t\t\n      PUSH 0\t\t\t\n      DUP3 \t\t\t\n      ADD \t\t\t\n      MSTORE \t\t\t\n      POP \t\t\t\n      JUMP \t\t\t\n    tag 209\t\t\t\n      JUMPDEST \t\t\t\n      PUSH 0\t\t\t\n      PUSH [tag] 386\t\t\t\n      PUSH E\t\t\t\n      DUP4 \t\t\t\n      PUSH [tag] 181\t\t\t\n      JUMP \t\t\t\n    tag 386\t\t\t\n      JUMPDEST \t\t\t\n      SWAP2 \t\t\t\n      POP \t\t\t\n      PUSH [tag] 387\t\t\t\n      DUP3 \t\t\t\n      PUSH [tag] 208\t\t\t\n      JUMP \t\t\t\n    tag 387\t\t\t\n      JUMPDEST \t\t\t\n      PUSH 20\t\t\t\n      DUP3 \t\t\t\n      ADD \t\t\t\n      SWAP1 \t\t\t\n      POP \t\t\t\n      SWAP2 \t\t\t\n      SWAP1 \t\t\t\n      POP \t\t\t\n      JUMP \t\t\t\n    tag 154\t\t\t\n      JUMPDEST \t\t\t\n      PUSH 0\t\t\t\n      PUSH 20\t\t\t\n      DUP3 \t\t\t\n      ADD \t\t\t\n      SWAP1 \t\t\t\n      POP \t\t\t\n      DUP2 \t\t\t\n      DUP2 \t\t\t\n      SUB \t\t\t\n      PUSH 0\t\t\t\n      DUP4 \t\t\t\n      ADD \t\t\t\n      MSTORE \t\t\t\n      PUSH [tag] 389\t\t\t\n      DUP2 \t\t\t\n      PUSH [tag] 209\t\t\t\n      JUMP \t\t\t\n    tag 389\t\t\t\n      JUMPDEST \t\t\t\n      SWAP1 \t\t\t\n      POP \t\t\t\n      SWAP2 \t\t\t\n      SWAP1 \t\t\t\n      POP \t\t\t\n      JUMP \t\t\t\n    tag 210\t\t\t\n      JUMPDEST \t\t\t\n      PUSH 416C616D6174206F776E6572206261727520746964616B20626F6C656820616C\t\t\t\n      PUSH 0\t\t\t\n      DUP3 \t\t\t\n      ADD \t\t\t\n      MSTORE \t\t\t\n      PUSH 616D6174206E6F6C000000000000000000000000000000000000000000000000\t\t\t\n      PUSH 20\t\t\t\n      DUP3 \t\t\t\n      ADD \t\t\t\n      MSTORE \t\t\t\n      POP \t\t\t\n      JUMP \t\t\t\n    tag 211\t\t\t\n      JUMPDEST \t\t\t\n      PUSH 0\t\t\t\n      PUSH [tag] 392\t\t\t\n      PUSH 28\t\t\t\n      DUP4 \t\t\t\n      PUSH [tag] 181\t\t\t\n      JUMP \t\t\t\n    tag 392\t\t\t\n      JUMPDEST \t\t\t\n      SWAP2 \t\t\t\n      POP \t\t\t\n      PUSH [tag] 393\t\t\t\n      DUP3 \t\t\t\n      PUSH [tag] 210\t\t\t\n      JUMP \t\t\t\n    tag 393\t\t\t\n      JUMPDEST \t\t\t\n      PUSH 40\t\t\t\n      DUP3 \t\t\t\n      ADD \t\t\t\n      SWAP1 \t\t\t\n      POP \t\t\t\n      SWAP2 \t\t\t\n      SWAP1 \t\t\t\n      POP \t\t\t\n      JUMP \t\t\t\n    tag 162\t\t\t\n      JUMPDEST \t\t\t\n      PUSH 0\t\t\t\n      PUSH 20\t\t\t\n      DUP3 \t\t\t\n      ADD \t\t\t\n      SWAP1 \t\t\t\n      POP \t\t\t\n      DUP2 \t\t\t\n      DUP2 \t\t\t\n      SUB \t\t\t\n      PUSH 0\t\t\t\n      DUP4 \t\t\t\n      ADD \t\t\t\n      MSTORE \t\t\t\n      PUSH [tag] 395\t\t\t\n      DUP2 \t\t\t\n      PUSH [tag] 211\t\t\t\n      JUMP \t\t\t\n    tag 395\t\t\t\n      JUMPDEST \t\t\t\n      SWAP1 \t\t\t\n      POP \t\t\t\n      SWAP2 \t\t\t\n      SWAP1 \t\t\t\n      POP \t\t\t\n      JUMP \t\t\t\n    .data\n"
}